:100000000C944A000C9469000C9469000C946900EB
:100010000C9469000C9469000C9469000C946900BC
:100020000C9469000C9469000C9469000C946900AC
:100030000C9469000C9469000C9469000C9469009C
:100040000C9469000C9469000C9469000C9469008C
:100050000C9469000C9469000C9469000C9469007C
:100060000C9469000C9469000C9469000C9469006C
:100070000C9469000C9469000C9469000C9469005C
:100080000C9469000C9469000C9469000C9469004C
:100090000C94690011241FBECFEFD0E1DEBFCDBFAD
:1000A00011E0A0E0B1E0E2E2FAE000E00BBF02C044
:1000B00007900D92A432B107D9F711E0A4E2B1E0A4
:1000C00001C01D92A833B107E1F70E946E010C94A4
:1000D0000F050C9400008FEF87B99FE093BB1AB80F
:1000E0008DB9089582E88093900083E18093910018
:1000F00085E39CE0909397008093960008952EB13D
:100100002C7F2EB961157105A9F4BC0180E090E047
:1001100025E33CE040E050E00E94DD0125E030E0D6
:1001200040E050E00E94FC01309399002093980039
:10013000709A089561307105A9F4BC0180E090E0E7
:1001400025E33CE040E050E00E94DD0125E030E0A6
:1001500040E050E00E94FC01309399002093980009
:10016000719A089584E690E09093990080939800A6
:1001700090939B0080939A00089589B129B191E0F2
:1001800021FD90E080FD04C081E0992331F002C0A0
:10019000913011F080E0089582E00895813021F4DB
:1001A000653031F06F5F04C0823011F4611161502D
:1001B000862F0895089520E030E008C00F920F9038
:1001C0000F920F900F920F902F5F3F4F2817390714
:1001D000A9F708950F931F93CF93DF938C01C0E08D
:1001E000D0E005C088EE93E00E94DB002196C017A6
:1001F000D107C1F7DF91CF911F910F910895A29A76
:1002000084E690E00E94DB00A298089588E290E0E6
:100210000E94EA0088E388B90E94FF0088E290E02B
:100220000E94DB008CE088B988E290E00E94DB004D
:100230000E94FF0081E088B982E090E00E94EA001D
:100240000E94FF0086E088B90E94FF000895A098F0
:10025000A19888B90E94FF000895A09AA19888B932
:100260000E94FF000895A098A198662311F4805879
:1002700003C0613011F4805488B90E94FF000895D2
:100280000F931F93CF93DF9300D0CDB7DEB7498391
:100290005A830E9433014981042F5A81152F02C0CD
:1002A0000E942D01F80181918F018823C9F70F90D9
:1002B0000F90DF91CF911F910F910895CF93DF930E
:1002C0000F92CDB7DEB749830E9433014981842F55
:1002D0000E942D010F90DF91CF910895CF93DF936E
:1002E00000D0CDB7DEB70E946B000E9406010E94CD
:1002F0007200789481E00E94270182E390E00E94DE
:10030000EA0080E060E043E151E00E94400180E0CB
:1003100061E043E051E00E9440018CED95E00E94D5
:10032000EA0084E690E00E94EA00EE24FF2400E068
:1003300010E06E010894C11CD11C30E0632E31E046
:10034000732E0E94BD00A82EBB24A814B90419F472
:10035000E114F10429F4602F0E94CE00082F10E070
:10036000C80160E070E00E947F0000D000D000D0A3
:10037000EDB7FEB73196ADB7BEB71296DC92CE920E
:10038000119773826282158304830E9439028DB7AC
:100390009EB706960FB6F8949EBF0FBE8DBF8DE038
:1003A00061E0A6010E94400184E690E00E94EA001C
:1003B000450121E0E22EF12CC4CF629FD001739F52
:1003C000F001829FE00DF11D649FE00DF11D929FF1
:1003D000F00D839FF00D749FF00D659FF00D992730
:1003E000729FB00DE11DF91F639FB00DE11DF91F54
:1003F000BD01CF011124089597FB092E05260ED0CB
:1004000057FD04D014D00AD0001C38F45095409504
:10041000309521953F4F4F4F5F4F0895F6F79095D8
:100420008095709561957F4F8F4F9F4F0895A1E202
:100430001A2EAA1BBB1BFD010DC0AA1FBB1FEE1F5E
:10044000FF1FA217B307E407F50720F0A21BB30BA9
:10045000E40BF50B661F771F881F991F1A9469F725
:1004600060957095809590959B01AC01BD01CF0181
:1004700008950F931F93CF93DF93CDB7DEB72E97D9
:100480000FB6F894DEBF0FBECDBF0D891E8986E082
:100490008C831A8309838FEF9FE79E838D83AE0140
:1004A000475E5F4FCE0101966F89788D0E9468028A
:1004B000EF81F885E00FF11F10822E960FB6F894A9
:1004C000DEBF0FBECDBFDF91CF911F910F91089579
:1004D0002F923F924F925F926F927F928F929F9254
:1004E000AF92BF92CF92DF92EF92FF920F931F9342
:1004F000CF93DF93CDB7DEB72D970FB6F894DEBF5D
:100500000FBECDBF3C017D876C875A01FC0117826D
:100510001682838181FFC8C12E010894411C511CA1
:10052000F3019381EC85FD8593FD859193FF819186
:10053000FD87EC87882309F4B3C1853241F493FD2C
:10054000859193FF8191FD87EC87853229F490E0B6
:10055000B3010E948504E4CFFF24EE2410E01032A2
:10056000B0F48B3269F08C3228F4803251F083324F
:1005700071F40BC08D3239F0803349F411602CC016
:100580001260146029C0186027C0106125C017FDD3
:100590002EC0282F20532A3098F416FF08C08F2D24
:1005A000880FF82EFF0CFF0CF80EF20E15C08E2DE2
:1005B000880FE82EEE0CEE0CE80EE20E10620CC076
:1005C0008E3221F416FD6CC1106406C08C3611F415
:1005D000106802C0883659F4EC85FD8593FD85913D
:1005E00093FF8191FD87EC87882309F0B8CF982F7E
:1005F0009554933018F09052933038F424E030E062
:10060000A20EB31E3FE339830FC0833631F0833728
:1006100081F0833509F05AC022C0F50180818983B9
:1006200022E030E0A20EB31E21E0C22ED12C420106
:1006300014C092E0292E312C2A0C3B1CF50180803D
:10064000918016FF03C06F2D70E002C06FEF7FEF47
:10065000C4010E947A046C0151011F7715C082E029
:10066000282E312C2A0C3B1CF5018080918016FF2E
:1006700003C06F2D70E002C06FEF7FEFC4010E94D6
:100680006F046C011068510113FD1CC006C080E2AC
:1006900090E0B3010E948504EA948E2D90E0C81684
:1006A000D906A8F30FC0F40117FD859117FF8191BA
:1006B0004F0190E0B3010E948504E110EA94089490
:1006C000C108D108C114D10471F7E7C0843611F014
:1006D000893651F5F50117FF07C080819181A2810C
:1006E000B38124E030E008C080819181AA2797FD82
:1006F000A095BA2F22E030E0A20EB31E012F0F7694
:10070000B7FF08C0B095A095909581959F4FAF4FCA
:10071000BF4F0068BC01CD01A2012AE030E00E9479
:10072000B104D82ED4183FC0853721F41F7E2AE0AB
:1007300030E020C0197F8F36A9F0803720F488354B
:1007400009F0AEC00BC0803721F0883709F0A8C08F
:1007500001C0106114FF09C0146007C014FF08C075
:10076000166006C028E030E005C020E130E002C09D
:1007700020E132E0F50117FF07C0608171818281BD
:10078000938144E050E006C06081718180E090E098
:1007900042E050E0A40EB51EA2010E94B104D82E82
:1007A000D418012F0F7706FF09C00E7FDF1430F435
:1007B00004FF06C002FD04C00F7E02C01D2D01C053
:1007C0001F2D802F90E004FF0CC0FE01ED0DF11DE8
:1007D0002081203311F4097E09C002FF06C01E5F8C
:1007E00005C086789070009709F01F5F802E9924CD
:1007F00003FD12C000FF0DC0FD2C1E1550F4FE0CB1
:10080000F11A1E2D06C080E290E0B3010E9485041B
:100810001F5F1E15C0F304C01E1510F4E11A01C0BD
:10082000EE2484FE0FC080E390E0B3010E948504B3
:1008300082FE1FC081FE03C088E590E010C088E7FB
:1008400090E00DC0C40186789070009791F081FC13
:1008500002C080E201C08BE207FD8DE290E0B301AF
:100860000E94850406C080E390E0B3010E948504E5
:10087000FA94DF14C0F3DA94F201ED0DF11D8081DA
:1008800090E0B3010E948504DD20A9F706C080E254
:1008900090E0B3010E948504EA94EE20C1F740CEB7
:1008A000F3018681978102C08FEF9FEF2D960FB6DF
:1008B000F894DEBF0FBECDBFDF91CF911F910F9196
:1008C000FF90EF90DF90CF90BF90AF909F908F9070
:1008D0007F906F905F904F903F902F900895FC0114
:1008E0000590615070400110D8F7809590958E0F5B
:1008F0009F1F0895FC016150704001900110D8F7CE
:10090000809590958E0F9F1F08950F931F93CF93FF
:10091000DF938C01EB018B8181FF1BC082FF0DC037
:100920002E813F818C819D812817390764F4E881ED
:10093000F9810193F983E88306C0E885F985802F62
:100940000995009731F48E819F8101969F838E8354
:1009500002C00FEF1FEFC801DF91CF911F910F91E0
:100960000895FA01AA27283051F1203181F1E89445
:100970006F936E7F6E5F7F4F8F4F9F4FAF4FB1E092
:100980003ED0B4E03CD0670F781F891F9A1FA11D8D
:10099000680F791F8A1F911DA11D6A0F711D811D8E
:1009A000911DA11D20D009F468943F912AE0269F53
:1009B00011243019305D3193DEF6CF010895462FB2
:1009C0004770405D4193B3E00FD0C9F7F6CF462F93
:1009D0004F70405D4A3318F0495D31FD40524193FC
:1009E00002D0A9F7EACFB4E0A695979587957795B9
:1009F0006795BA95C9F700976105710508959B0140
:100A0000AC010A2E06945795479537952795BA95C8
:100A1000C9F7620F731F841F951FA01D0895F894D6
:020A2000FFCF06
:100A220025640053504545445F434F4E54524F4C4A
:100A3200000000414A4F552D554E495645525349E3
:040A42005459000003
:00000001FF
