:100000000C944A000C9469000C9469000C946900EB
:100010000C9469000C9469000C9469000C946900BC
:100020000C9469000C9469000C9469000C946900AC
:100030000C9469000C9469000C9469000C9469009C
:100040000C9469000C9469000C9469000C9469008C
:100050000C9469000C9469000C9469000C9469007C
:100060000C9469000C9469000C9469000C9469006C
:100070000C9469000C9469000C9469000C9469005C
:100080000C9469000C9469000C9469000C9469004C
:100090000C94690011241FBECFEFD0E1DEBFCDBFAD
:1000A00012E0A0E0B1E0EAE5FEE100E00BBF02C033
:1000B00007900D92A631B107D9F712E0A6E1B2E0A0
:1000C00001C01D92AE33B107E1F70E9452050C94B6
:1000D0002B0F0C9400009091D80091609093D80061
:1000E000833089F0843028F4813051F08230D1F4AB
:1000F00011C0853061F0853040F0863099F409C038
:100100001092E20009C086E005C088E003C08EE0DE
:1001100001C082E18093E2008CE08093E30087E3FA
:100120008093E40080E0982F9295907F9093ED006B
:100130001092EF001092EE001092F3001092F20075
:100140001092F1001092F0001092F7001092F60059
:100150001092F5001092F4001092FA001092FA003A
:100160001092FA001092FA001092FA001092FA001F
:100170001092FA001092FA008F5F8F30A1F6109261
:10018000DB001092DF001092DE001092E10010926E
:10019000E0008091D80082608093D8008091D900DF
:1001A00082FFFCCF08959091D80091609093D80081
:1001B0008330C1F0843028F4813051F0823039F539
:1001C0000EC08530C9F0853078F0863001F516C054
:1001D0001092E20084E08093E30083E116C0109265
:1001E000E2000FC082E00BC082E08093E2008EE06C
:1001F0008093E3008BE409C086E001C088E080932F
:10020000E2008CE08093E30087E38093E40080E0E9
:10021000982F9295907F9093ED001092EF0010929E
:10022000EE001092F3001092F2001092F100109282
:10023000F0001092F7001092F6001092F500109264
:10024000F4001092FA001092FA001092FA00109244
:10025000FA001092FA001092FA001092FA0010922E
:10026000FA008F5F8F30A1F61092DB001092DF0052
:100270001092DE001092E1001092E00080E2809384
:10028000D8008091D80082608093D8008091D900F6
:1002900082FFFCCF0895FB01642F208131814281D0
:1002A00053818295807F8093ED001092EE00109232
:1002B000EF0085818823A1F4DA01C90133E0B69506
:1002C000A795979587953A95D1F78093F300229556
:1002D000220F207E2093F2008091EF008F7E29C0B4
:1002E000DA01C90175E1B695A795979587957A9535
:1002F000D1F78093F300DA01C9017DE0B695A795A7
:10030000979587957A95D1F78093F200DA01C90124
:1003100035E0B695A795979587953A95D1F780934F
:10032000F100220F220F220F2093F0008091EF00A6
:1003300080618093EF008091EF009681892B8093FC
:10034000EF008091F0006470682B6093F000809162
:10035000F0008D7F8093F0008091F0008E7F80937D
:10036000F00080E009C0DF01A80FB11D17969C9135
:1003700017979093FA008F5F96818917A0F3809169
:10038000EF0080648093EF008091EE0086FFFCCF49
:100390008091EE008F7B8093EE0081E00895FF92C4
:1003A0000F931F93FB018295807F8093ED008091D6
:1003B000EE0085FFFCCF8091EF0084FD1BC015820D
:1003C0008091F30090E0A0E0B0E0BA2FA92F982F21
:1003D00088272091F20030E040E050E0822B932B00
:1003E000A42BB52B05E0B695A795979587950A950B
:1003F000D1F735C081E085838091F30090E0A0E0E3
:10040000B0E0B82FAA27992788270091F200F09032
:10041000F1004091F00010E020E030E09801112759
:100420000027802B912BA22BB32B50E060E070E0D3
:10043000842B952BA62BB72B2F2D30E040E050E0DE
:10044000542F432F322F2227822B932BA42BB52BF3
:1004500043E0B695A795979587954A95D1F7808300
:100460009183A283B3838091F00084708483809110
:10047000EF008F70868340E009C08091FA002E0F54
:100480003F1FD90117968C9317974F5F242F30E0A9
:100490008091EF0090E08F709070281739076CF30F
:1004A0001092EE008091EF0080688093EF008091C1
:1004B000EE008F7D8093EE0081E01F910F91FF9001
:1004C0000895AF92CF92DF92EF92FF920F938295B1
:1004D000807F8093ED001092EE00222339F5DB013E
:1004E000CA0133E0B695A795979587953A95D1F7C8
:1004F0008093F3004295440F407E4093F200D70171
:10050000C60123E0B695A795979587952A95D1F7CB
:100510008093F700C294CC0CA0EECA22C092F600E1
:100520001092F4008091EF008F7E4FC0DB01CA0172
:10053000F5E1B695A79597958795FA95D1F78093AC
:10054000F300DB01CA01EDE0B695A7959795879575
:10055000EA95D1F78093F200DB01CA0165E0B69518
:10056000A795979587956A95D1F78093F100440FE9
:10057000440F440F4093F000D701C60155E1B695F2
:10058000A795979587955A95D1F78093F700D7014E
:10059000C6014DE0B695A795979587954A95D1F7F1
:1005A0008093F600D701C60135E0B695A7959795DB
:1005B00087953A95D1F78093F500CC0CCC0CCC0CF8
:1005C000C092F4008091EF0080618093EF008091F1
:1005D000EF000F70082B0093EF009091F4008A2D2C
:1005E0008770892B8093F4008091EF00806880935E
:1005F000EF000F91FF90EF90DF90CF90AF900895B4
:10060000AF92CF92DF92EF92FF920F931F93902FB2
:10061000382F3295307F3093ED001092EE0021FF9D
:1006200004C03091EF00306203C03091EF003F7D95
:100630003093EF0020FD27C08A019B0153E03695DF
:100640002795179507955A95D1F70093F300429592
:10065000440F407E4093F200A701960103E05695B7
:100660004795379527950A95D1F72093F700C294BF
:10067000CC0C10EEC122C092F6001092F400209132
:10068000EF002F7E4FC08A019B01B5E1369527957B
:1006900017950795BA95D1F70093F3008A019B014E
:1006A000ADE03695279517950795AA95D1F7009354
:1006B000F2008A019B01F5E036952795179507957D
:1006C000FA95D1F70093F100440F440F440F409383
:1006D000F000A7019601E5E15695479537952795D6
:1006E000EA95D1F72093F700A70196017DE0569592
:1006F0004795379527957A95D1F72093F600A7016E
:10070000960165E056954795379527956A95D1F7F7
:100710002093F500CC0CCC0CCC0CC092F4002091B2
:10072000EF0020612093EF002091EF009F70922B4B
:100730009093EF002091F4009A2D9770922B909354
:10074000F4009091DB00906A9093DB00883050F4C5
:1007500021E030E002C0220F331F8A95E2F7209398
:10076000DE000BC090E0089721E030E002C0220FCD
:10077000331F8A95E2F72093DF008091EF008068B5
:100780008093EF0078941F910F91FF90EF90DF908E
:10079000CF90AF9008958FEF87B988B983BB9CEF56
:1007A00090BB8DB908958AE88093900083E180938F
:1007B000910085E39CE0909397008093960086E4F7
:1007C00090E090939D0080939C0008952EB12C7F23
:1007D0002EB961157105A9F4BC0180E090E025E314
:1007E0003CE040E050E00E94A40B25E030E040E017
:1007F00050E00E94D70B3093990020939800709A94
:10080000089561307105A9F4BC0180E090E025E312
:100810003CE040E050E00E94A40B25E030E040E0E6
:1008200050E00E94D70B3093990020939800719A62
:10083000089584E690E090939900809398009093B7
:100840009B0080939A000895AF92BF92CF92DF925F
:10085000EF92FF920F931F93BC0180E090E00E9403
:1008600042097B018C0124EB32EA41E15CE30E9406
:10087000C6075B016C01C801B7012EE034E74AE509
:100880005AE30E94C6072AE939E949E15FE30E9479
:1008900068079B01AC01C601B5010E94680720E012
:1008A00030E04AEF52E40E94C6070E94F2057093BE
:1008B0009D0060939C001F910F91FF90EF90DF903F
:1008C000CF90BF90AF9008958A30910550F18E304F
:1008D000910520F182319105F0F086319105C0F04B
:1008E0008A31910590F08C31910578F08032910534
:1008F00078F08432910578F08832910578F087336A
:10090000910578F020E030E00EC021E030E00BC02F
:1009100022E030E008C023E030E005C024E030E011
:1009200002C025E030E0C90108958931910530F019
:100930008D31910530F021E030E005C020E030E05D
:1009400002C022E030E0C90108959C014A9783303B
:10095000910570F044EB50E0249FC001259F900D5D
:10096000349F900D112462E370E00E94C30B02C01B
:100970006AE570E0CB01089520E030E008C00F92F6
:100980000F900F920F900F920F902F5F3F4F2817ED
:100990003907A8F30895A29A84E690E00E94BC0467
:1009A000A2980895A098A198662311F4805803C0D6
:1009B000613011F4805488B90E94CB040895A09A44
:1009C000A19888B90E94CB040895DF93CF930F922A
:1009D000CDB7DEB749830E94D2044981842F0E949B
:1009E000DF040F90CF91DF910895EF92FF920F9364
:1009F0001F93DF93CF9300D0CDB7DEB749835A83DF
:100A00000E94D20449815A818A0102C00E94DF04F7
:100A1000F80181918F018823C9F70F900F90CF9132
:100A2000DF911F910F91FF90EF900895A098A198EA
:100A300088B90E94CB0408950F931F93CF93DF933F
:100A40008C01C0E0D0E005C088EE93E00E94BC04B9
:100A50002196C017D107C0F3DF91CF911F910F915D
:100A6000089588E290E00E941C0588E388B90E94FE
:100A7000CB0488E290E00E94BC048CE088B988E254
:100A800090E00E94BC040E94CB0481E088B982E01F
:100A900090E00E941C050E94CB0486E088B90E9469
:100AA000CB0408959F92AF92BF92CF92DF92EF92C4
:100AB000FF920F931F93DF93CF93CDB7DEB72A97A3
:100AC0000FB6F894DEBF0FBECDBF0E94CB030E94CD
:100AD00031050E94D30383E00E946B0081E041E076
:100AE00050E060E070E021E008E0CC24DD247601F5
:100AF000AA240E94610278948E010F5F1F4F75E057
:100B0000E72E71E0F72E66E0C62ED12CCC0EDD1E4E
:100B100081E06BE272E00E94CF0180E060E040E0A3
:100B200051E00E94F50400D000D000D0EDB7FEB730
:100B30003196ADB7BEB712961C930E931197F38200
:100B4000E28280913202848315820E944B0C8DB721
:100B50009EB706960FB6F8949EBF0FBE8DBF84E079
:100B600060E0A8010E94F50480E061E048E051E007
:100B70000E94F50400D000D000D0EDB7FEB731964A
:100B8000ADB7BEB71296DC92CE921197F382E28295
:100B900080913302848315820E944B0C8DB79EB7DF
:100BA00006960FB6F8949EBF0FBE8DBF84E061E03D
:100BB000A6010E94F5048091330290E00E94A504F2
:100BC0000E94240490903202892D90E00E946404D7
:100BD0005C01892D90E00E949504BC01C5010E9432
:100BE000E60396CFEF92FF920F931F937B018C0148
:100BF00020E030E040E05FE40E94C00887FD11C0C3
:100C0000C801B70120E030E040E05FE40E949507B2
:100C10000E94F0089B01AC012050304040405048F9
:100C200006C0C801B7010E94F0089B01AC01B901E0
:100C3000CA011F910F91FF90EF900895A0E0B0E0DE
:100C4000E4E2F6E00C94180CFC01EA0180818230A9
:100C500008F438C1DB019C91923008F430C1843033
:100C600059F4943009F02EC1918111968C9111970D
:100C7000981709F021C126C1943009F420C192309F
:100C8000B1F4823009F01EC1CA01AF0128E0DA01D7
:100C90000D90AD01DC010D92CD012150C1F7DB01BA
:100CA00011968C9111979181892389830AC1823091
:100CB00009F405C1C280D380DB0112966D907C904F
:100CC000139724813581468157811496ED90FD90CC
:100CD0000D911C911797C601861997095C0197FF22
:100CE00004C0AA24BB24A81AB90AB0E2AB16B10406
:100CF0000CF061C0181619066CF5370148010A2C72
:100D000004C096948794779467940A94D2F781E00C
:100D100090E0A0E0B0E00A2C04C0880F991FAA1F41
:100D2000BB1F0A94D2F70197A109B1098E219F2117
:100D3000A023B123EE24FF248701E3940097A105AB
:100D4000B10519F4EE24FF248701E628F7280829C5
:100D500019293CC00097D1F1CA0CDB1C39014A01AA
:100D60000A2C04C096948794779467940A94D2F7D7
:100D700081E090E0A0E0B0E00A2C04C0880F991F49
:100D8000AA1FBB1F0A94D2F70197A109B1098223B8
:100D90009323A423B52321E030E040E050E0009706
:100DA000A105B10519F420E030E0A9012629372971
:100DB000482959290BC06C147D0424F4EE24FF2427
:100DC000870104C0630120E030E0A9018181FB01BB
:100DD0009181891709F445C0882349F0D801C701DA
:100DE000821B930BA40BB50B9C01AD0104C02E1903
:100DF0003F09400B510B57FD04C01982DB82CA82A8
:100E00000BC081E08983DB82CA8250954095309582
:100E100021953F4F4F4F5F4F2C833D834E835F8320
:100E20000DC0880F991FAA1FBB1F8C839D83AE83A3
:100E3000BF838A819B8101979B838A838C819D815B
:100E4000AE81BF819C01AD012150304040405040F7
:100E50002F3FEFEF3E07EFEF4E07EFE35E0708F39C
:100E60000BC08983DB82CA822E0D3F1D401F511F9C
:100E70002C833D834E835F8383E088832C813D8177
:100E80004E815F8157FF1DC0DA01C90181709070EA
:100E9000A070B0705695479537952795822B932B68
:100EA000A42BB52B8C839D83AE83BF838A819B81CA
:100EB00001969B838A8305C0EDE0F1E003C0FB014E
:100EC00001C0FE01CF01CDB7DEB7EEE00C94340CCB
:100ED000A0E2B0E0EEE6F7E00C94200C69837A83A0
:100EE0008B839C832D833E834F83588789E0E82E34
:100EF000F12CEC0EFD1ECE010196B7010E94E20A14
:100F00008E010F5E1F4FCE010596B8010E94E20AC6
:100F1000C701B801AE01475E5F4F0E941E060E94E6
:100F2000140AA096E6E00C943C0CA0E2B0E0EBE9D9
:100F3000F7E00C94200C69837A838B839C832D8348
:100F40003E834F8358878E01075F1F4FCE01019666
:100F5000B8010E94E20A91E1E92EF12CEC0EFD1E8F
:100F6000CE010596B7010E94E20A8A8991E089279D
:100F70008A8BC801B701AE01475E5F4F0E941E0613
:100F80000E94140AA096E6E00C943C0CA0E2B0E0AB
:100F9000ECECF7E00C94140C69837A838B839C83CC
:100FA0002D833E834F835887CE010196BE01675F34
:100FB0007F4F0E94E20ACE010596BE016F5E7F4F11
:100FC0000E94E20A9985923078F089898230C0F0D7
:100FD000943019F4823041F4CBC0843019F492304B
:100FE00079F4C6C0923051F481E02A859A89291794
:100FF00009F480E08A87CE010996BCC0823051F4A2
:1010000081E02A859A89291709F480E08A8BCE012C
:101010004196B0C06D847E848F849888ED88FE8868
:101020000F89188DE0E2F0E080E090E0DC01AA2476
:10103000BB24650120E030E0A901B301617070704C
:1010400061157105D1F02E0D3F1D401F511F150177
:101050002601280E391E4A1E5B1E81E090E0A0E0AA
:10106000B0E02E153F054007510718F080E090E0F2
:10107000DC01820D931DA41DB51DAA0CBB1CCC1C4C
:10108000DD1C17FF09C061E0262E312C412C512CAC
:10109000A228B328C428D528319749F0EE0CFF1CAC
:1010A000001F111F9694879477946794C6CF6B891D
:1010B0007C89EB85FC856E0F7F1F6E5F7F4F7C8F79
:1010C0006B8F61E0EA857A89E71709F460E06A8F3F
:1010D0006B8D7C8D10C0FC01E170F070309729F0B1
:1010E00056954795379527955068B695A795979546
:1010F00087956F5F7F4FB7FDEECF0CC0880F991FAC
:10110000AA1FBB1F57FD8160220F331F441F551FAD
:10111000615070408030E0E09E07E0E0AE07E0E420
:10112000BE0760F36B8F7C8F6FE7E62EF12C012DED
:10113000112DE822F9220A231B2360E4E616F104AC
:101140000105110561F487FD0AC02115310541052E
:10115000510529F0805C9F4FAF4FBF4F80788D8F36
:101160009E8FAF8FB8A383E0898FCE01499602C0CE
:101170008DE091E00E94140AA096E2E10C94300CFC
:10118000A8E1B0E0E6ECF8E00C94200C69837A83E7
:101190008B839C832D833E834F8358878E01075F0B
:1011A0001F4FCE010196B8010E94E20A81E1E82EAC
:1011B000F12CEC0EFD1ECE010596B7010E94E20A4D
:1011C0008985823040F08989823028F0C801B701D2
:1011D0000E944B0B01C08FEF6896E6E00C943C0C2C
:1011E000ACE0B0E0E6EFF8E00C94240C69837A837D
:1011F0008B839C83CE010196BE016B5F7F4F0E9463
:10120000E20A8D81823081F1823070F1843021F4E4
:101210008E81882369F10AC02F81388537FD24C06B
:101220006E812F3131053CF0662311F120E030E072
:1012300040E050E821C08EE190E0821B930B2985AD
:101240003A854B855C8504C056954795379527951B
:101250008A95D2F7662381F0509540953095219577
:101260003F4F4F4F5F4F08C020E030E0A90104C05E
:101270002FEF3FEF4FEF5FE7B901CA012C96E2E095
:101280000C94400CA8E0B0E0E8E4F9E00C941E0CEB
:101290007B018C011A82611571058105910519F494
:1012A00082E089835FC083E089838EE1C82ED12CE0
:1012B000DC82CB82ED82FE820F831887C801B701E2
:1012C0000E94BA09FC013197F7FF3AC0AA27BB2751
:1012D000AE1BBF0B21E030E040E050E00A2E04C01E
:1012E000220F331F441F551F0A94D2F7215030405C
:1012F000404050402E213F214023512361E070E0C7
:1013000080E090E0211531054105510519F460E0B8
:1013100070E0CB0104C016950795F794E794AA9561
:10132000D2F7E62AF72A082B192BED82FE820F83CB
:1013300018878EE190E08E1B9F0B9C838B8312C0DD
:10134000309781F00E2E04C0EE0CFF1C001F111F01
:101350000A94D2F7ED82FE820F831887CE1ADF0A35
:10136000DC82CB82CE0101960E94140A2896E8E026
:101370000C943A0CAF92BF92CF92DF92EF92FF9211
:101380000F931F937B018C0180E0E81680E0F80644
:1013900081E0080780E0180758F4EFEFEE16F1043B
:1013A0000105110509F090F480E090E0DC0117C020
:1013B000F0E0EF16F0E0FF06F0E00F07F1E01F07A6
:1013C00050F480E190E0A0E0B0E009C088E090E057
:1013D000A0E0B0E004C088E190E0A0E0B0E020E24E
:1013E00030E040E050E0281B390B4A0B5B0B570103
:1013F000680104C0D694C794B794A7948A95D2F78D
:10140000D601C5018B5E9E4FFC018081281B3109EE
:1014100041095109C9011F910F91FF90EF90DF9091
:10142000CF90BF90AF900895EF92FF920F931F93CC
:10143000CF93DF93FC0124813581468157816181FF
:101440008081823020F44061EFEFF0E0A3C084306F
:1014500009F49BC0823009F492C021153105410581
:10146000510509F48FC00280F381E02D8FEFE2383F
:10147000F8070CF05AC0C2E8DFEFCE1BDF0BCA3111
:10148000D1056CF579018A010C2E04C016950795DB
:10149000F794E7940A94D2F781E090E0A0E0B0E0FE
:1014A0000C2E04C0880F991FAA1FBB1F0A94D2F7E5
:1014B0000197A109B10982239323A423B52321E035
:1014C00030E040E050E00097A105B10519F420E0BC
:1014D00030E0A9012E293F29402B512B03C020E0E9
:1014E00030E0A901DA01C9018F779070A070B07067
:1014F00080349105A105B10539F427FF09C0205CAE
:101500003F4F4F4F5F4F04C0215C3F4F4F4F5F4FE6
:10151000E1E0F0E0203080E0380780E0480780E438
:10152000580728F5E0E0F0E022C0E038F1056CF55E
:10153000E158FF4FDA01C9018F779070A070B07049
:1015400080349105A105B10539F427FF09C0205C5D
:101550003F4F4F4F5F4F04C0215C3F4F4F4F5F4F96
:1015600057FF05C05695479537952795319687E0E3
:1015700056954795379527958A95D1F70BC0E0E0AA
:10158000F0E005C0E0E0F0E005C0EFEFF0E020E0C3
:1015900030E0A9018E2F879588278795942F9F7714
:1015A000679566276795E695E22EA92FA82BFE2F53
:1015B000F62B622F732F8A2F9F2FCDB7DEB7E6E071
:1015C0000C943C0CDC01FB012C9111963C91119781
:1015D00012968C911297482F4F7750E0982F991FB1
:1015E0009927991F13966C911397862F880F892B33
:1015F00090E0661F6627661F6183009739F5211505
:1016000031054105510511F482E029C082E89FEFC0
:101610009383828367E0220F331F441F551F6A950F
:10162000D1F783E0808309C0220F331F441F551F69
:1016300082819381019793838283203080E03807F1
:1016400080E0480780E4580778F320C08F3F910579
:1016500079F4211531054105510519F484E08083A1
:10166000089544FF03C081E0808310C010820EC043
:101670008F5790409383828383E0808387E0220F9B
:10168000331F441F551F8A95D1F750642483358337
:10169000468357830895FC01DB019081923008F462
:1016A00049C08C91823008F445C0943051F4618176
:1016B0008430B1F511962C91119730E0261B310939
:1016C00041C0843021F0923041F48230B1F1119662
:1016D0008C9111978823A1F12DC06181823001F195
:1016E00011968C9111976817D9F422813381129643
:1016F0008D919C9113978217930794F028173907BF
:10170000BCF0248135814681578114968D919D913D
:101710000D90BC91A02D82179307A407B50718F46C
:10172000662341F00DC0281739074A075B0728F4E4
:10173000662331F021E030E005C020E030E002C057
:101740002FEF3FEFC9010895629FD001739FF00111
:10175000829FE00DF11D649FE00DF11D929FF00D41
:10176000839FF00D749FF00D659FF00D9927729F78
:10177000B00DE11DF91F639FB00DE11DF91FBD0103
:10178000CF0111240895AA1BBB1B51E107C0AA1F5A
:10179000BB1FA617B70710F0A61BB70B881F991F12
:1017A0005A95A9F780959095BC01CD01089597FBB6
:1017B000092E05260ED057FD04D014D00AD0001CE7
:1017C00038F450954095309521953F4F4F4F5F4FDE
:1017D0000895F6F790958095709561957F4F8F4F9E
:1017E0009F4F0895A1E21A2EAA1BBB1BFD010DC03D
:1017F000AA1FBB1FEE1FFF1FA217B307E407F507C1
:1018000020F0A21BB30BE40BF50B661F771F881F9C
:10181000991F1A9469F760957095809590959B0132
:10182000AC01BD01CF0108952F923F924F925F927C
:101830006F927F928F929F92AF92BF92CF92DF92E0
:10184000EF92FF920F931F93CF93DF93CDB7DEB745
:10185000CA1BDB0B0FB6F894DEBF0FBECDBF0994D9
:101860002A88398848885F846E847D848C849B8430
:10187000AA84B984C884DF80EE80FD800C811B813E
:10188000AA81B981CE0FD11D0FB6F894DEBF0FBE6D
:10189000CDBFED0108950F931F93DF93CF93CDB785
:1018A000DEB72E970FB6F894DEBF0FBECDBF0D8901
:1018B0001E8986E08C831A8309838FEF9FE79E83BE
:1018C0008D839E01275E3F4FCE0101966F89788DF3
:1018D000A9010E947B0CEF81F885E00FF11F1082B7
:1018E0002E960FB6F894DEBF0FBECDBFCF91DF911D
:1018F0001F910F9108952F923F924F925F926F9296
:101900007F928F929F92AF92BF92CF92DF92EF928F
:10191000FF920F931F93DF93CF93CDB7DEB72C9732
:101920000FB6F894DEBF0FBECDBF6C011B018A015C
:10193000FC0117821682838181FFD1C12E01089498
:10194000411C511CF6019381F10193FD859193FF98
:1019500081911F01882309F4BEC1853239F493FDBA
:10196000859193FF81911F01853229F490E0B601A2
:101970000E94A10EE7CFEE24FF2420E02032B0F435
:101980008B3269F08C3228F4803251F0833271F45A
:101990000BC08D3239F0803349F421602CC02260B5
:1019A000246029C0286027C0206125C027FD2CC0E5
:1019B000382F30533A3098F426FF08C08E2D880F08
:1019C000E82EEE0CEE0CE80EE30E15C08F2D880FFE
:1019D000F82EFF0CFF0CF80EF30E20620CC08E32B6
:1019E00021F426FD78C1206406C08C3611F42068ED
:1019F00002C0883649F4F10193FD859193FF8191EE
:101A00001F01882309F0BACF982F9554933018F00E
:101A10009052933028F40C5F1F4FFFE3F9830DC001
:101A2000833631F0833771F0833509F060C022C00E
:101A3000F801808189830E5F1F4F420171E0A72E5C
:101A4000B12C16C062E0662E712C600E711EF8017A
:101A50008080918026FF03C06E2D70E002C06FEF82
:101A60007FEFC4012C870E94960E5C0183012C85B8
:101A70002F7717C052E0652E712C600E711EF80191
:101A80008080918026FF03C06E2D70E002C06FEF52
:101A90007FEFC4012C870E948B0E5C012C8520688F
:101AA000830123FD20C008C080E290E0B6012C87AE
:101AB0000E94A10EFA942C858F2D90E0A816B906ED
:101AC00098F311C0F40127FD859127FF81914F0103
:101AD00090E0B6012C870E94A10E2C85F110FA949B
:101AE0000894A108B108A114B10461F7F1C08436CB
:101AF00011F0893649F527FF08C0F801608171812E
:101B0000828193810C5F1F4F09C0F8016081718150
:101B1000882777FD8095982F0E5F1F4F4FE6B42ED4
:101B2000B22297FF09C090958095709561957F4F7F
:101B30008F4F9F4FF0E8BF2AA2012AE030E00E94B9
:101B4000CD0E782E741845C0853731F43FEEB32E94
:101B5000B2222AE030E025C099EFB92EB2228F36AA
:101B6000C1F0803720F4883509F0B5C00DC080374A
:101B700021F0883709F0AFC002C020E1B22AB4FEDC
:101B80000BC084E0B82A08C0B4FE09C0E6E0BE2A53
:101B900006C028E030E005C020E130E002C020E1CE
:101BA00032E0B7FE08C0F8016081718182819381C3
:101BB0000C5F1F4F07C0F8016081718180E090E0E9
:101BC0000E5F1F4FA2010E94CD0E782E7418FFE702
:101BD000BF22B6FE0BC02EEFB2227E1438F4B4FE44
:101BE00007C0B2FC05C08FEEB82202C0A72C01C00E
:101BF000AE2C8B2D90E0B4FE0DC0FE01E70DF11D63
:101C00002081203319F4E9EEBE2209C0A394B2FE6C
:101C100006C004C086789070009709F0A3948B2CBE
:101C20009924B3FC14C0B0FE0FC0AF1428F4E72C05
:101C3000EF0CEA18AF2C08C0E72C06C080E290E059
:101C4000B6010E94A10EA394AF14C0F304C0AF1458
:101C500010F4FA1801C0FF2484FE0FC080E390E066
:101C6000B6010E94A10E82FE1FC081FE03C088E55E
:101C700090E010C088E790E00DC0C40186789070B5
:101C8000009791F081FC02C080E201C08BE2B7FCBA
:101C90008DE290E0B6010E94A10E06C080E390E0C4
:101CA000B6010E94A10EEA947E14C0F37A94F20168
:101CB000E70DF11D808190E0B6010E94A10E772012
:101CC000A9F706C080E290E0B6010E94A10EFA9446
:101CD000FF20C1F737CEF6012681378102C02FEFF2
:101CE0003FEFC9012C960FB6F894DEBF0FBECDBFF3
:101CF000CF91DF911F910F91FF90EF90DF90CF90E8
:101D0000BF90AF909F908F907F906F905F904F901B
:101D10003F902F900895FC01059061507040011094
:101D2000D8F7809590958E0F9F1F0895FC01615004
:101D3000704001900110D8F7809590958E0F9F1FED
:101D400008950F931F93CF93DF938C01EB018B8149
:101D500081FF1BC082FF0DC02E813F818C819D8140
:101D60002817390764F4E881F9810193F983E8833E
:101D700006C0E885F985802F0995009731F48E819A
:101D80009F8101969F838E8302C00FEF1FEFC801D2
:101D9000DF91CF911F910F910895FA01AA27283062
:101DA00051F1203181F1E8946F936E7F6E5F7F4F28
:101DB0008F4F9F4FAF4FB1E03ED0B4E03CD0670FA4
:101DC000781F891F9A1FA11D680F791F8A1F911DF7
:101DD000A11D6A0F711D811D911DA11D20D009F447
:101DE00068943F912AE0269F11243019305D319389
:101DF000DEF6CF010895462F4770405D4193B3E072
:101E00000FD0C9F7F6CF462F4F70405D4A3318F018
:101E1000495D31FD4052419302D0A9F7EACFB4E0C9
:101E2000A6959795879577956795BA95C9F7009781
:101E30006105710508959B01AC010A2E0694579522
:101E4000479537952795BA95C9F7620F731F841F79
:0A1E5000951FA01D0895F894FFCF20
:101E5A0059203A200025640058203A20000000004A
:101E6A00000000000000010202030303030404044B
:101E7A00040404040405050505050505050505050D
:101E8A0005050505050606060606060606060606ED
:101E9A0006060606060606060606060606060606D8
:101EAA0006060606060707070707070707070707BD
:101EBA0007070707070707070707070707070707A8
:101ECA000707070707070707070707070707070798
:101EDA000707070707070707070707070707070788
:101EEA00070707070708080808080808080808086D
:101EFA000808080808080808080808080808080858
:101F0A000808080808080808080808080808080847
:101F1A000808080808080808080808080808080837
:101F2A000808080808080808080808080808080827
:101F3A000808080808080808080808080808080817
:101F4A000808080808080808080808080808080807
:101F5A0008080808080808080808080808080808F7
:061F6A0008080808080049
:00000001FF
