:100000000C944A000C9469000C9469000C946900EB
:100010000C9469000C9469000C9469000C946900BC
:100020000C9469000C9469000C9469000C946900AC
:100030000C9469000C9469000C9469000C9469009C
:100040000C9469000C946B000C9469000C9469008A
:100050000C9469000C9469000C9469000C9469007C
:100060000C9469000C943F010C9469000C94690095
:100070000C9469000C9469000C9469000C9469005C
:100080000C9469000C9469000C9469000C9469004C
:100090000C94690011241FBECFEFD0E1DEBFCDBFAD
:1000A00012E0A0E0B1E0E0EDF7E200E00BBF02C03B
:1000B00007900D92AE33B107D9F712E0AEE3B2E08C
:1000C00001C01D92A83AB107E1F70E94820F0C947B
:1000D000E6130C9400001F920F920FB60F920BB60E
:1000E0000F9211248F939F93EF93FF938091490276
:1000F00090914A028130910531F4709A10924A022F
:100100001092490207C0709881E090E090934A02F3
:1001100080934902E0914302F0914402E45DFE4F76
:10012000808186BDFF91EF919F918F910F900BBEC3
:100130000F900FBE0F901F9018958091400288235A
:1001400049F0E0913401F091350180E091E0918334
:100150008083089581E0809340026091470270910E
:10016000480280E090E00E94150DDC01CB018093F5
:10017000760290937702A0937802B093790260910F
:100180005A0270915B0280E090E00E94150DDC0144
:10019000CB0180937A0290937B02A0937C02B09370
:1001A0007D0280914102909142029093830280935C
:1001B0008202609145027091460280E090E00E94C8
:1001C000150DDC01CB0180937E0290937F02A093FA
:1001D0008002B09381020E94CE056091600270910E
:1001E000610280916202909163020E946A08DC01C0
:1001F000CB0190935F0280935E02609164027091E4
:10020000650280916602909167020E94C40CDC0135
:10021000CB0190935D0280935C02609168027091C3
:10022000690280916A0290916B020E94C40CDC0109
:10023000CB0190933F0280933E0280916C0290919B
:100240006D0290939D0080939C0060916E0270916E
:100250006F0280917002909171020E946A086EB9DB
:1002600010924002089580E480937C0080EF80BB70
:100270008FE080937E0088EC80937A0008951F922F
:100280000F920FB60F9211248F939F938091780055
:1002900090917900909346028093450288EC809378
:1002A0007A009F918F910F900FBE0F901F9018951D
:1002B0008FEF87B918B89FE093BB8DB9279A10BA12
:1002C00008958AE88093900083ED8093910085E300
:1002D0009CE0909397008093960086E490E0909342
:1002E0009D0080939C000895A29A84E690E00E946D
:1002F0004B05A298089588E290E00E945A0588E391
:1003000088B90E94740188E290E00E944B058CE05D
:1003100088B988E290E00E944B050E94740181E058
:1003200088B982E090E00E945A050E94740186E03C
:1003300088B90E9474010895A098A19888B90E9474
:1003400074010895A09AA19888B90E947401089533
:10035000A098A198662311F4805803C0613011F46D
:10036000805488B90E94740108950F931F93CF930E
:10037000DF9300D0CDB7DEB749835A830E94A8012E
:100380004981042F5A81152F02C00E94A201F80151
:1003900081918F018823C9F70F900F90DF91CF9142
:1003A0001F910F910895CF93DF930F92CDB7DEB7D2
:1003B00049830E94A8014981842F0E94A2010F90C5
:1003C000DF91CF9108959091D80091609093D800DB
:1003D000833089F0843028F4813051F08230D1F4B8
:1003E00011C0853061F0853040F0863099F409C045
:1003F0001092E20009C086E005C088E003C08EE0EC
:1004000001C082E18093E2008CE08093E30087E307
:100410008093E40080E0982F9295907F9093ED0078
:100420001092EF001092EE001092F3001092F20082
:100430001092F1001092F0001092F7001092F60066
:100440001092F5001092F4001092FA001092FA0047
:100450001092FA001092FA001092FA001092FA002C
:100460001092FA001092FA008F5F8F30A1F610926E
:10047000DB001092DF001092DE001092E10010927B
:10048000E0008091D80082608093D8008091D900EC
:1004900082FFFCCF08959091D80091609093D8008E
:1004A0008330C1F0843028F4813051F0823039F546
:1004B0000EC08530C9F0853078F0863001F516C061
:1004C0001092E20084E08093E30083E116C0109272
:1004D000E2000FC082E00BC082E08093E2008EE079
:1004E0008093E3008BE409C086E001C088E080933C
:1004F000E2008CE08093E30087E38093E40080E0F7
:10050000982F9295907F9093ED001092EF001092AB
:10051000EE001092F3001092F2001092F10010928F
:10052000F0001092F7001092F6001092F500109271
:10053000F4001092FA001092FA001092FA00109251
:10054000FA001092FA001092FA001092FA0010923B
:10055000FA008F5F8F30A1F61092DB001092DF005F
:100560001092DE001092E1001092E00080E2809391
:10057000D8008091D80082608093D8008091D90003
:1005800082FFFCCF08950F931F93FB01008111811F
:10059000228133818295807F8093ED001092EE005E
:1005A0001092EF0085818823A1F4D901C80153E09E
:1005B000B695A795979587955A95D1F78093F300AF
:1005C0000295000F007E0093F2008091EF008F7E75
:1005D00029C0D901C80155E1B695A795979587958A
:1005E0005A95D1F78093F300D901C8016DE0B69513
:1005F000A795979587956A95D1F78093F200D901D1
:10060000C80175E0B695A795979587957A95D1F726
:100610008093F100000F000F000F0093F000809115
:10062000EF0080618093EF008091EF009681892B2D
:100630008093EF008091F0004470482B4093F000CD
:100640008091F0008D7F8093F0008091F0008E7F8C
:100650008093F00080E009C0DF01A80FB11D17965C
:100660009C9117979093FA008F5F96818917A0F35A
:100670008091EF0080648093EF008091EE0086FF10
:10068000FCCF8091EE008F7B8093EE0081E01F9184
:100690000F910895CF92DF92EF92FF920F931F93E5
:1006A000FB018295807F8093ED008091EE0085FFB5
:1006B000FCCF8091EF0084FD1BC015828091F30078
:1006C00090E0A0E0B0E0BA2FA92F982F88274091A2
:1006D000F20050E060E070E0842B952BA62BB72B46
:1006E00035E0B695A795979587953A95D1F735C09A
:1006F00081E085838091F30090E0A0E0B0E0B82F26
:10070000AA2799278827C090F2004091F100009114
:10071000F000DD24EE24FF247601DD24CC248C2996
:100720009D29AE29BF2910E020E030E0802B912BDD
:10073000A22BB32B50E060E070E0762F652F542F92
:100740004427842B952BA62BB72B689412F8B695CB
:10075000A795979587951694D1F780839183A28367
:10076000B3838091F000847084838091EF008F7058
:10077000868340E009C08091FA002E0F3F1FD90107
:1007800017968C9317974F5F242F30E08091EF00DE
:1007900090E08F709070281739076CF31092EE007C
:1007A0008091EF0080688093EF008091EE008F7D54
:1007B0008093EE0081E01F910F91FF90EF90DF900A
:1007C000CF900895AF92CF92DF92EF92FF920F9366
:1007D0008295807F8093ED001092EE00DB01CA01CC
:1007E000222329F5F3E0B695A79597958795FA9575
:1007F000D1F78093F3004295440F407E4093F2007E
:10080000D701C60123E0B695A795979587952A95B8
:10081000D1F78093F700C294CC0C30EEC322C09283
:10082000F6001092F4008091EF008F7E4DC0E5E15C
:10083000B695A79597958795EA95D1F78093F3009C
:10084000DB01CA01FDE0B695A79597958795FA95C6
:10085000D1F78093F200DB01CA0125E0B695A79598
:10086000979587952A95D1F78093F100440F440F0F
:10087000440F4093F000D701C60135E1B695A79526
:10088000979587953A95D1F78093F700D701C601E0
:100890004DE0B695A795979587954A95D1F78093A2
:1008A000F600D701C601E5E0B695A795979587951F
:1008B000EA95D1F78093F500CC0CCC0CCC0CC0920F
:1008C000F4008091EF0080618093EF008091EF0051
:1008D0000F70082B0093EF009091F4008A2D877021
:1008E000892B8093F4008091F4008E7F8093F40034
:1008F0008091EF0080688093EF000F91FF90EF9060
:10090000DF90CF90AF900895AF92CF92DF92EF92A9
:10091000FF920F93382F8295807F8093ED00109285
:10092000EE008091EF0021FF02C0806201C08F7D48
:100930008093EF00DB01CA0120FD25C023E0B695BE
:10094000A795979587952A95D1F78093F3004295BF
:10095000440F407E4093F200D701C60143E0B695B4
:10096000A795979587954A95D1F78093F700C294FC
:10097000CC0C50EEC522C092F6001092F40080918B
:10098000EF008F7E4DC0E5E1B695A79597958795C9
:10099000EA95D1F78093F300DB01CA01FDE0B6953B
:1009A000A79597958795FA95D1F78093F200DB018B
:1009B000CA0125E0B695A795979587952A95D1F711
:1009C0008093F100440F440F440F4093F000D7018F
:1009D000C60145E1B695A795979587954A95D1F7B4
:1009E0008093F700D701C601EDE0B695A7959795DE
:1009F0008795EA95D1F78093F600D701C601F5E017
:100A0000B695A79597958795FA95D1F78093F500B8
:100A1000CC0CCC0CCC0CC092F4008091EF00806127
:100A20008093EF008091EF000F70082B0093EF0090
:100A30009091F4008A2D8770892B8093F400809127
:100A4000DB00806A8093DB00383050F481E090E076
:100A500002C0880F991F3A95E2F78093DE000DC01F
:100A6000232F30E02850304081E090E002C0880F12
:100A7000991F2A95E2F78093DF008091EF0080684C
:100A80008093EF0078940F91FF90EF90DF90CF90DC
:100A9000AF900895089520E030E008C00F920F90C5
:100AA0000F920F900F920F902F5F3F4F281739072B
:100AB000A9F708950F931F93CF93DF938C01C0E0A4
:100AC000D0E005C088EE93E00E944B052196C01748
:100AD000D107C1F7DF91CF911F910F910895CF9268
:100AE000DF92EF92FF92C0907E02D0907F02E09062
:100AF0008002F0908102C701B60120E030E041E6BB
:100B000054E40E94BA0B181644F481E08093A202C8
:100B100080E090E0A4EBB2E434C0C701B60120E06D
:100B200030E048E454E40E94BA0B181644F482E022
:100B30008093A20280E090E0A0EAB2E422C0C70164
:100B4000B60120E030E04FE254E40E94BA0B1816E0
:100B500044F483E08093A20280E090E0A0E2B1E45C
:100B600010C0C701B60120E030E046E154E40E9425
:100B70001C0C181674F084E08093A20280E090E0D0
:100B8000DC0180938E0290938F02A0939002B09329
:100B90009102FF90EF90DF90CF9008958F929F92F7
:100BA000AF92BF92CF92DF92EF92FF92CF9380915C
:100BB0009D02882321F481E080939D0203C2C091AD
:100BC0009E02C13021F0C23009F0FBC14BC06091E0
:100BD000760270917702809178029091790220E0FC
:100BE00030E0A9010E94580B882309F0EDC1609103
:100BF0007A0270917B0280917C0290917D0220E0CC
:100C000030E0A9010E94580B882309F0DDC182E081
:100C100080939E02C093A1020E946F05C093A3021D
:100C20008091820290918302009771F0C093A40298
:100C300080E090E0ACE7B3E480939202909393025B
:100C4000A0939402B093950281E080939F0292E07A
:100C50009093A002ECE9F2E010929C0281878287D7
:100C60001386B2C16091760270917702809178020A
:100C70009091790220E030E0A9010E94890B88233D
:100C800079F460917A0270917B0280917C0290915C
:100C90007D0220E030E0A9010E94890B882301F148
:100CA0001092A6021092A5021092A00210929F022A
:100CB0008091A402823059F480E090E0DC018093BE
:100CC000860290938702A0938802B09389021092C3
:100CD000A4021092A3021092A2021092A10271C16A
:100CE000C091A202C23009F1C33020F4C13009F032
:100CF00092C007C0C33009F447C0C43009F08BC0AC
:100D000043C0C0907E02D0907F02E0908002F090BD
:100D10008102C701B60120E030E041E654E40E94C0
:100D2000BA0B18160CF042C015C0C0907E02D090CD
:100D30007F02E0908002F0908102C701B60120E0BE
:100D400030E041E654E40E94BA0B181684F481E0C6
:100D50008093A20280E090E0A4EBB2E480938E0244
:100D600090938F02A0939002B093910256C0C70156
:100D7000B60120E030E048E454E40E94BA0B1816B3
:100D80003CF5C093A2021FC0C0907E02D0907F02AB
:100D9000E0908002F0908102C701B60120E030E0CF
:100DA00041E654E40E94BA0B18168CF2C701B60152
:100DB00020E030E048E454E40E94BA0B181644F4F2
:100DC00082E08093A20280E090E0A0EAB2E4C6CF85
:100DD000C701B60120E030E04FE254E40E94BA0BB4
:100DE000181644F483E08093A20280E090E0A0E231
:100DF000B1E4B4CFC701B60120E030E046E154E4ED
:100E00000E941C0C18164CF084E08093A20280E033
:100E100090E0DC01A3CF0E946F058091A402813095
:100E200021F0823009F064C04FC08091A70288236E
:100E3000A1F480919C02813081F482E08093A4022D
:100E400080E090E0A0E8BFE3809386029093870261
:100E5000A0938802B093890260C060918202709171
:100E60008302882777FD8095982F0E944D0C6B0197
:100E70007C012EE034E74AE55AE30E94570A2AE94A
:100E800039E949E15FE30E94EB094B015C01C701CD
:100E9000B60124EB32EA41E15CE30E94570A9B0170
:100EA000AC01C501B4010E94EB0920E030E04AEF3B
:100EB00052E40E94570A0E94C40CDC01CB019093BB
:100EC0009B0280939A0229C08091A702813021F071
:100ED00080919C02882309F580E090E0DC018093FA
:100EE000860290938702A0938802B093890206C07D
:100EF0008091820290918302009779F081E0809343
:100F0000A40280E090E0ACE7B3E480939202909377
:100F10009302A0939402B09395028091A002813035
:100F200019F0823041F511C060917E0270917F020C
:100F3000809180029091810220E030E048E454E406
:100F40000E941C0C1816E4F016C060917E0270918D
:100F50007F02809180029091810220E030E048E49D
:100F600054E40E94BA0B18165CF481E08093A0024E
:100F700080939C0205C082E08093A00210929C02A4
:100F80002091A602213019F02230A9F40DC08091E1
:100F90008202909183028F319105B4F082E08093B8
:100FA000A6022093A70210C0809182029091830232
:100FB0008F3191054CF481E08093A6021092A70234
:100FC00003C081E080939E02809186029091870207
:100FD000A0918802B091890280936002909361028F
:100FE000A0936202B093630280918A0290918B0277
:100FF000A0918C02B0918D0280936402909365025F
:10100000A0936602B093670280918E0290918F0246
:10101000A0919002B091910280936802909369022E
:10102000A0936A02B0936B0280919A0290919B0206
:1010300090936D0280936C02809192029091930242
:10104000A0919402B091950280936E0290936F02EA
:10105000A0937002B09371028091960290919702D2
:10106000A0919802B09199028093720290937302BA
:10107000A0937402B0937502CF91FF90EF90DF9030
:10108000CF90BF90AF909F908F900895E0913401E2
:10109000F09135011182108286E1E6E8F2E0DF018D
:1010A000982F1D929A95E9F79CE0ECE9F2E0DF01B8
:1010B0001D929A95E9F79EE0E6E7F2E0DF011D92C6
:1010C0009A95E9F7E0E6F2E0DF011D928A95E9F7EB
:1010D00008950895CF92DF92EF92FF920F931F939E
:1010E0006B017C0120E030E040E05FE40E94EB0B0C
:1010F00087FD11C0C701B60120E030E040E05FE4A9
:101100000E941F0A0E94C40C8B019C0100501040D9
:101110002040304806C0C701B6010E94C40C8B01B4
:101120009C01B801C9011F910F91FF90EF90DF90D2
:10113000CF900895A0E0B0E0E0EAF8E00C94DB1076
:10114000EC014B01FA018881823008F43EC1DB01D9
:101150009C91923008F436C1843059F4943009F0EF
:1011600034C1998111968C911197981709F027C174
:101170002CC1943009F426C19230A9F4823009F0D0
:1011800024C1CE0128E0DC010D90CD01DA010D92E1
:10119000AD012150C1F7D40111968C91119799811D
:1011A0008923818311C1823009F40CC1AA80BB80DC
:1011B000DB0112964D915C911397CC80DD80EE801F
:1011C000FF8014960D911D912D913C911797C501AB
:1011D000841B950BDC0197FF04C0AA27BB27A81B23
:1011E000B90BA032B1050CF067C01816190684F5CA
:1011F000280139010A2E04C07694679457944794C5
:101200000A94D2F741E050E060E070E004C0440F7F
:10121000551F661F771FAA95D2F741505040604076
:101220007040402351236223732381E090E0A0E0CB
:10123000B0E0411551056105710519F480E090E0B9
:10124000DC018C019D0104291529262937293FC07D
:101250000097E9F1AA0EBB1E260137010A2E04C031
:1012600076946794579447940A94D2F741E050E0FB
:1012700060E070E004C0440F551F661F771FAA95F9
:10128000D2F741505040604070404C215D216E21AA
:101290007F2181E090E0A0E0B0E0411551056105BB
:1012A000710519F480E090E0DC016C017D01C42837
:1012B000D528E628F7280BC04A155B0524F400E082
:1012C00010E0980104C05A01CC24DD247601898104
:1012D000D40111969C911197891709F445C0882370
:1012E00029F00C191D092E093F0908C0D701C601B4
:1012F000801B910BA20BB30B8C019D0137FD04C029
:101300001182B382A2820BC081E08183B382A28268
:1013100030952095109501951F4F2F4F3F4F048317
:101320001583268337830DC0880F991FAA1FBB1F03
:1013300084839583A683B783828193810197938366
:10134000828384819581A681B781AC01BD01415022
:101350005040604070404F3F2FEF52072FEF620721
:101360002FE3720708F30BC08183B382A2820C0DB6
:101370001D1D2E1D3F1D048315832683378383E0A7
:101380008083448155816681778177FF1DC0DB01B1
:10139000CA0181709070A070B0707695679557956E
:1013A0004795842B952BA62BB72B84839583A683F7
:1013B000B7838281938101969383828305C0C6E3BC
:1013C000D1E003C0E40101C0EF01CE01CDB7DEB72B
:1013D000E0E10C94F710A0E2B0E0E1EFF9E00C944A
:1013E000E910DC01CB018D839E83AF83B88729830D
:1013F0003A834B835C83CE010596BE01675E7F4FC7
:101400000E94BC0ECE010196BE016F5E7F4F0E940E
:10141000BC0ECE014996BE016F5E7F4FAE01475FA5
:101420005F4F0E949A080E94E50D462F572F682FA4
:10143000792FCB01BA01A096E2E00C940511A0E24D
:10144000B0E0E5E2FAE00C94E910DC01CB018D8319
:101450009E83AF83B88729833A834B835C83CE0115
:101460000596BE01675E7F4F0E94BC0ECE010196BD
:10147000BE016F5E7F4F0E94BC0E8A8991E0892772
:101480008A8BCE014996BE016F5E7F4FAE01475FEA
:101490005F4F0E949A080E94E50D462F572F682F34
:1014A000792FCB01BA01A096E2E00C940511A0E2DD
:1014B000B0E0EDE5FAE00C94DB10DC01CB018D83AC
:1014C0009E83AF83B88729833A834B835C83CE01A5
:1014D0000596BE01675E7F4F0E94BC0ECE0101964D
:1014E000BE016F5E7F4F0E94BC0E998D923078F0E6
:1014F00089898230C0F0943019F4823041F4CAC036
:10150000843019F4923079F4C5C0923051F481E0FE
:101510002A8D9A89291709F480E08A8FCE0149968D
:10152000BBC0823051F481E02A8D9A89291709F4D1
:1015300080E08A8BCE014196AFC04D8C5E8C6F8C63
:1015400078A00D891E892F89388DE0E2F0E040E017
:1015500050E0BA01882499245401CC24DD2476017A
:10156000C201817090700097D1F0C00ED11EE21EB2
:10157000F31EDB01CA01880D991DAA1DBB1D41E0A8
:1015800050E060E070E0C016D106E206F30618F005
:1015900040E050E0BA01480F591F6A1F7B1F880CBA
:1015A000991CAA1CBB1C37FF08C081E090E0A0E09A
:1015B000B0E0882A992AAA2ABB2A000F111F221FED
:1015C000331F7694679457944794319749F68B8DDF
:1015D0009C8D2B893C89820F931F02969C878B8759
:1015E00081E02A8D9A89291709F480E08A872B8562
:1015F0003C8517C0CA0181709070009761F0F69425
:10160000E794D794C79480E090E0A0E0B0E8C82ABF
:10161000D92AEA2AFB2A76956795579547952F5F31
:101620003F4F77FDE7CFC9010BC0440F551F661F21
:10163000771FF7FC4160CC0CDD1CEE1CFF1C0197F2
:101640004030A0E05A07A0E06A07A0E47A0768F3F8
:101650008B879C87DB01CA018F779070A070B07078
:1016600080349105A105B10561F447FD0AC0C1149C
:10167000D104E104F10429F0405C5F4F6F4F7F4FCC
:1016800040784D875E876F87788B83E08987CE01AE
:10169000099602C086E391E00E94E50D462F572F80
:1016A000682F792FCB01BA01A096E0E10C94F710D6
:1016B000A8E1B0E0EEE5FBE00C94E910DC01CB0121
:1016C0008D839E83AF83B88729833A834B835C8362
:1016D000CE010596BE016F5E7F4F0E94BC0ECE010B
:1016E0000196BE01675F7F4F0E94BC0E89898230E0
:1016F00058F08985823040F0CE014196BE01675F87
:101700007F4F0E94250F01C081E06896E2E00C94B3
:101710000511A8E1B0E0EFE8FBE00C94E910DC0172
:10172000CB018D839E83AF83B88729833A834B8314
:101730005C83CE010596BE016F5E7F4F0E94BC0E9A
:10174000CE010196BE01675F7F4F0E94BC0E898962
:10175000823058F08985823040F0CE014196BE013A
:10176000675F7F4F0E94250F01C081E06896E2E02D
:101770000C940511A8E1B0E0E0ECFBE00C94E9105A
:10178000DC01CB018D839E83AF83B88729833A83A5
:101790004B835C83CE010596BE016F5E7F4F0E9436
:1017A000BC0ECE010196BE01675F7F4F0E94BC0E4A
:1017B0008989823058F08985823040F0CE01419687
:1017C000BE01675F7F4F0E94250F01C08FEF6896B3
:1017D000E2E00C940511A8E1B0E0E1EFFBE00C942D
:1017E000E910DC01CB018D839E83AF83B887298309
:1017F0003A834B835C83CE010596BE016F5E7F4FBB
:101800000E94BC0ECE010196BE01675F7F4F0E9411
:10181000BC0E8989823058F08985823040F0CE0133
:101820004196BE01675F7F4F0E94250F01C08FEF79
:101830006896E2E00C940511A8E1B0E0E2E2FCE079
:101840000C94E910DC01CB018D839E83AF83B887B4
:1018500029833A834B835C83CE010596BE016F5E7C
:101860007F4F0E94BC0ECE010196BE01675F7F4F85
:101870000E94BC0E8989823058F08985823040F000
:10188000CE014196BE01675F7F4F0E94250F01C0C8
:1018900081E06896E2E00C940511CF92DF92EF921E
:1018A000FF92CF93DF93CDB7DEB728970FB6F894AA
:1018B000DEBF0FBECDBF6B017C0183E08983D70102
:1018C000C6018827B7FD83959927AA27BB27282F0C
:1018D0008A83C114D104E104F10419F482E08983FC
:1018E00035C08EE190E09C838B83222389F080E0D9
:1018F000C81680E0D80680E0E80680E8F80659F1CE
:10190000F094E094D094C094C11CD11CE11CF11C53
:10191000CD82DE82EF82F886C701B6010E94920D69
:1019200001971816190694F4082E04C0CC0CDD1C7F
:10193000EE1CFF1C0A94D2F7CD82DE82EF82F8867D
:101940002EE130E0281B390B3C832B83CE0101961E
:101950000E94E50D04C060E070E080E09FEC382F4D
:10196000292F862F972FA32FB22FBC01CD012896A8
:101970000FB6F894DEBF0FBECDBFDF91CF91FF90C1
:10198000EF90DF90CF900895ACE0B0E0EAECFCE09F
:101990000C94E710DC01CB0189839A83AB83BC8371
:1019A000CE010196BE016B5F7F4F0E94BC0E8D8100
:1019B000823069F1823058F1843039F02F813885D6
:1019C00037FD25C02F31310544F08E81882319F170
:1019D00000E010E020E030E822C08EE190E0821BC1
:1019E000930B09851A852B853C8504C03695279570
:1019F000179507958A95D2F78E81882381F03095C7
:101A00002095109501951F4F2F4F3F4F08C000E0C4
:101A100010E0980104C00FEF1FEF2FEF3FE7B80170
:101A2000C9012C96E4E00C940311A8E0B0E0EBE1CE
:101A3000FDE00C94E3106B017C011A8261157105C5
:101A40008105910519F482E089835EC083E0898372
:101A50000EE110E01C830B83CD82DE82EF82F886DC
:101A6000C701B6010E94920D9C012150304037FF02
:101A700038C0EE27FF27E21BF30B81E090E0A0E0E7
:101A8000B0E00E2E04C0880F991FAA1FBB1F0A9436
:101A9000D2F70197A109B1098C219D21AE21BF2167
:101AA00041E050E060E070E00097A105B10519F455
:101AB00040E050E0BA0104C0F694E794D794C7948C
:101AC000EA95D2F7C42AD52AE62AF72ACD82DE8201
:101AD000EF82F8868EE190E0821B930B9C838B83D0
:101AE00013C02115310581F0022E04C0CC0CDD1C81
:101AF000EE1CFF1C0A94D2F7CD82DE82EF82F886BC
:101B0000021B130B1C830B83CE0101960E94E50D73
:101B1000462F572F682F792FCB01BA012896E8E07E
:101B20000C94FF10CF92DF92EF92FF920F931F93CE
:101B30008B019C01003080E0180781E0280780E0DD
:101B4000380750F40F3F11052105310509F088F4DD
:101B500080E090E0DC0116C00030E0E01E07E0E02D
:101B60002E07E1E03E0750F480E190E0A0E0B0E015
:101B700009C088E090E0A0E0B0E004C088E190E017
:101B8000A0E0B0E040E250E060E070E0481B590B9C
:101B90006A0B7B0B6801790104C0F694E794D79433
:101BA000C7948A95D2F7D701C601825C9E4FFC018B
:101BB0008081481B510961097109CA011F910F9168
:101BC000FF90EF90DF90CF900895CF92DF92EF9249
:101BD000FF920F931F93DC0114964D915D916D91CF
:101BE0007C9117971196EC9111978C91823020F48B
:101BF00060618FEF90E0A5C0843009F49DC0823011
:101C000009F494C0411551056105710509F491C0AD
:101C100012968D919C9113972FEF823892070CF0BA
:101C200059C022E83FEF281B390B2A31310564F5F2
:101C30006A017B01022E04C0F694E794D794C794FE
:101C40000A94D2F781E090E0A0E0B0E004C0880FF1
:101C5000991FAA1FBB1F2A95D2F70197A109B109A5
:101C600084239523A623B72341E050E060E070E091
:101C70000097A105B10519F440E050E0BA014C29E4
:101C80005D296E297F2903C040E050E0BA01DB01E5
:101C9000CA018F779070A070B07080349105A10553
:101CA000B10539F447FF09C0405C5F4F6F4F7F4F6C
:101CB00004C0415C5F4F6F4F7F4F81E090E0403048
:101CC00020E0520720E0620720E4720738F580E048
:101CD00090E024C0803891057CF58A019B010F7744
:101CE000107020703070003411052105310539F471
:101CF00047FF09C0405C5F4F6F4F7F4F04C0415C9E
:101D00005F4F6F4F7F4F77FD03C081589F4F06C0D5
:101D1000769567955795479580589F4F97E07695AC
:101D20006795579547959A95D1F70BC080E090E05D
:101D300005C080E090E005C08FEF90E040E050E00B
:101D4000BA01982F979599279795A62FAF77E79582
:101D5000EE27E79586953A2F392B282F2E2B842FA7
:101D6000952FA32FB22FBC01CD011F910F91FF9092
:101D7000EF90DF90CF900895DC01FB014C9111961C
:101D80005C91119712968C911297682F6F7770E083
:101D9000982F991F9927991F13962C911397822F8B
:101DA000880F892B90E0221F2227221F2183009772
:101DB00039F5411551056105710511F482E029C01D
:101DC00082E89FEF9383828327E0440F551F661FAD
:101DD000771F2A95D1F783E0808309C0440F551FF0
:101DE000661F771F8281938101979383828340309E
:101DF00080E0580780E0680780E4780778F320C027
:101E00008F3F910579F4411551056105710519F46C
:101E100084E08083089564FF03C081E0808310C064
:101E200010820EC08F5790409383828383E080831B
:101E300087E0440F551F661F771F8A95D1F770649E
:101E400044835583668377830895CF93FC01DB0138
:101E50009081923008F44CC08C91823008F448C0D4
:101E6000943069F42181843039F411968C91119762
:101E700090E0821B910944C02223D1F13FC08430FD
:101E800021F0923041F48230B1F111968C9111978A
:101E90008823A1F12DC0C181823001F111968C916E
:101EA0001197C817D9F48281938112962D913C9194
:101EB00013972817390794F082179307BCF04481D1
:101EC00055816681778114968D919D910D90BC917D
:101ED000A02D84179507A607B70718F4CC2341F067
:101EE0000DC0481759076A077B0728F4CC2331F047
:101EF00081E090E005C080E090E002C08FEF9FEFAE
:101F0000CF910895CF93DF93CDB7DEB72F970FB65C
:101F1000F894DEBF0FBECDBF0E9458010E947B0126
:101F20000E9461010E943301789481E00E949C012B
:101F300082E390E00E945A0580E060E048E051E0D2
:101F40000E94B50184E190E00E945A0585E00E945C
:101F5000E30185E00E944B0282E042E050E060E055
:101F600070E021E008E0CC24DD24760135E0A32EEA
:101F70000E94E203E1E0EE2EF12C00E010E0FCE034
:101F80008F2E912C8C0E9D1EACE0CA2EA1E0DA2E75
:101F90005E010894A11CB11CB8E06B2E712C6C0E74
:101FA0007D1E84E0482E512C4C0E5D1E20E8322E02
:101FB00033E0232E82E06BE472E00E944A038091BA
:101FC00052028093470210924802809154028093FB
:101FD0005A0210925B028091560280934102109245
:101FE00042020E949D00809156028A3020F100D06A
:101FF00000D000D0EDB7FEB73196ADB7BEB71296A0
:102000009C928E921197D382C282809141029091CC
:1020100042020A97958384830E941011EDB7FEB7A0
:1020200036960FB6F894FEBF0FBEEDBF85E060E0B8
:10203000A4010E94B50100D000D000D0EDB7FEB7DA
:102040003196ADB7BEB71296BC92AE921197D382BD
:10205000C28280913E0290913F02958384830E94C8
:102060001011EDB7FEB736960FB6F894FEBF0FBE4F
:10207000EDBF88E060E0A5010E94B50100D000D06E
:1020800000D0EDB7FEB73196ADB7BEB712967C92D1
:102090006E921197D382C28280914502909146023E
:1020A000958384830E941011EDB7FEB736960FB664
:1020B000F894FEBF0FBEEDBF88E061E0A3010E946F
:1020C000B50100D000D000D0EDB7FEB73196ADB766
:1020D000BEB712965C924E921197D382C2828091C3
:1020E0005E0290915F02958384830E941011EDB788
:1020F000FEB736960FB6F894FEBF0FBEEDBF8BE06D
:1021000060E0A2010E94B501789480915E029091F6
:102110005F028130910509F041C00115110519F0E8
:102120000150104047CFF1E0EF16F104B9F580E01F
:1021300061E04FE051E00E94B501689A24BC81E063
:1021400080936E008091240190912501FC01E45D53
:10215000FE4F208126BD909344028093430206E205
:1021600011E00CC08AE090E00E945A05D8018D91E0
:102170009D918D019093440280934302809143028C
:1021800090914402BFEF8F3F9B0761F7EEEFEDB9EF
:1021900015B8EE24FF2402E310E00CCF80E061E0EC
:1021A00047E151E00E94B50135B881E0E82EF12CFD
:1021B00001CF2F923F924F925F926F927F928F92B8
:1021C0009F92AF92BF92CF92DF92EF92FF920F93C6
:1021D0001F93CF93DF93CDB7DEB7CA1BDB0B0FB6D0
:1021E000F894DEBF0FBECDBF09942A88398848888D
:1021F0005F846E847D848C849B84AA84B984C88423
:10220000DF80EE80FD800C811B81AA81B981CE0F19
:10221000D11D0FB6F894DEBF0FBECDBFED010895FE
:102220000F931F93CF93DF93CDB7DEB72E970FB6E3
:10223000F894DEBF0FBECDBF0D891E8986E08C836A
:102240001A8309838FEF9FE79E838D83AE01475EDC
:102250005F4FCE0101966F89788D0E943F11EF810B
:10226000F885E00FF11F10822E960FB6F894DEBFAE
:102270000FBECDBFDF91CF911F910F9108952F9287
:102280003F924F925F926F927F928F929F92AF9206
:10229000BF92CF92DF92EF92FF920F931F93CF9353
:1022A000DF93CDB7DEB72D970FB6F894DEBF0FBE24
:1022B000CDBF3C017D876C875A01FC0117821682D5
:1022C000838181FFC8C12E010894411C511CF30178
:1022D0009381EC85FD8593FD859193FF8191FD8729
:1022E000EC87882309F4B3C1853241F493FD8591CD
:1022F00093FF8191FD87EC87853229F490E0B3014B
:102300000E945C13E4CFFF24EE2410E01032B0F4FE
:102310008B3269F08C3228F4803251F0833271F4C0
:102320000BC08D3239F0803349F411602CC012603B
:10233000146029C0186027C0106125C017FD2EC089
:10234000282F20532A3098F416FF08C08F2D880FAD
:10235000F82EFF0CFF0CF80EF20E15C08E2D880F14
:10236000E82EEE0CEE0CE80EE20E10620CC08E327F
:1023700021F416FD6CC1106406C08C3611F410688F
:1023800002C0883659F4EC85FD8593FD859193FF55
:102390008191FD87EC87882309F0B8CF982F955459
:1023A000933018F09052933038F424E030E0A20ECD
:1023B000B31E3FE339830FC0833631F0833781F09A
:1023C000833509F05AC022C0F5018081898322E05B
:1023D00030E0A20EB31E21E0C22ED12C420114C067
:1023E00092E0292E312C2A0C3B1CF5018080918033
:1023F00016FF03C06F2D70E002C06FEF7FEFC401C6
:102400000E9451136C0151011F7715C082E0282EE4
:10241000312C2A0C3B1CF5018080918016FF03C0F3
:102420006F2D70E002C06FEF7FEFC4010E94461372
:102430006C011068510113FD1CC006C080E290E0E1
:10244000B3010E945C13EA948E2D90E0C816D90661
:10245000A8F30FC0F40117FD859117FF81914F017B
:1024600090E0B3010E945C13E110EA940894C10863
:10247000D108C114D10471F7E7C0843611F0893650
:1024800051F5F50117FF07C080819181A281B381C9
:1024900024E030E008C080819181AA2797FDA095B3
:1024A000BA2F22E030E0A20EB31E012F0F76B7FF45
:1024B00008C0B095A095909581959F4FAF4FBF4FA5
:1024C0000068BC01CD01A2012AE030E00E9488131F
:1024D000D82ED4183FC0853721F41F7E2AE030E083
:1024E00020C0197F8F36A9F0803720F4883509F095
:1024F000AEC00BC0803721F0883709F0A8C001C0FA
:10250000106114FF09C0146007C014FF08C01660F2
:1025100006C028E030E005C020E130E002C020E144
:1025200032E0F50117FF07C06081718182819381DC
:1025300044E050E006C06081718180E090E042E0BC
:1025400050E0A40EB51EA2010E948813D82ED41804
:10255000012F0F7706FF09C00E7FDF1430F404FF50
:1025600006C002FD04C00F7E02C01D2D01C01F2D3C
:10257000802F90E004FF0CC0FE01ED0DF11D2081C5
:10258000203311F4097E09C002FF06C01E5F05C09A
:1025900086789070009709F01F5F802E992403FDC4
:1025A00012C000FF0DC0FD2C1E1550F4FE0CF11AD8
:1025B0001E2D06C080E290E0B3010E945C131F5FF5
:1025C0001E15C0F304C01E1510F4E11A01C0EE245C
:1025D00084FE0FC080E390E0B3010E945C1382FE92
:1025E0001FC081FE03C088E590E010C088E790E03E
:1025F0000DC0C40186789070009791F081FC02C0F4
:1026000080E201C08BE207FD8DE290E0B3010E9401
:102610005C1306C080E390E0B3010E945C13FA945F
:10262000DF14C0F3DA94F201ED0DF11D808190E02A
:10263000B3010E945C13DD20A9F706C080E290E0A0
:10264000B3010E945C13EA94EE20C1F740CEF3017F
:102650008681978102C08FEF9FEF2D960FB6F89479
:10266000DEBF0FBECDBFDF91CF911F910F91FF90C5
:10267000EF90DF90CF90BF90AF909F908F907F9022
:102680006F905F904F903F902F900895FC010590C0
:10269000615070400110D8F7809590958E0F9F1F64
:1026A0000895FC016150704001900110D8F78095A9
:1026B00090958E0F9F1F08950F931F93CF93DF93D5
:1026C0008C01EB018B8181FF1BC082FF0DC02E812D
:1026D0003F818C819D812817390764F4E881F98155
:1026E0000193F983E88306C0E885F985802F099571
:1026F000009731F48E819F8101969F838E8302C063
:102700000FEF1FEFC801DF91CF911F910F91089537
:10271000FA01AA27283051F1203181F1E8946F9312
:102720006E7F6E5F7F4F8F4F9F4FAF4FB1E03ED0B8
:10273000B4E03CD0670F781F891F9A1FA11D680F56
:10274000791F8A1F911DA11D6A0F711D811D911D89
:10275000A11D20D009F468943F912AE0269F1124FE
:102760003019305D3193DEF6CF010895462F477062
:10277000405D4193B3E00FD0C9F7F6CF462F4F70BD
:10278000405D4A3318F0495D31FD4052419302D01B
:10279000A9F7EACFB4E0A6959795879577956795C1
:1027A000BA95C9F700976105710508959B01AC01C1
:1027B0000A2E06945795479537952795BA95C9F7E8
:1027C000620F731F841F951FA01D0895F894FFCFFB
:1027D0004F76657272756E006261720025640057F3
:1027E00041524E494E47002020202020202020200A
:1027F00020202000000001000200FFFF112B424DAD
:102800006172758984020000000000000000000170
:10281000020203030303040404040404040405057E
:102820000505050505050505050505050505060656
:102830000606060606060606060606060606060638
:102840000606060606060606060606060606070726
:102850000707070707070707070707070707070708
:1028600007070707070707070707070707070707F8
:1028700007070707070707070707070707070707E8
:1028800007070707070707070707070707070808D6
:1028900008080808080808080808080808080808B8
:1028A00008080808080808080808080808080808A8
:1028B0000808080808080808080808080808080898
:1028C0000808080808080808080808080808080888
:1028D0000808080808080808080808080808080878
:1028E0000808080808080808080808080808080868
:1028F0000808080808080808080808080808080858
:0E290000080808080808080808080808080859
:00000001FF
