:100000000C944A000C9469000C9469000C946900EB
:100010000C9469000C9469000C9469000C946900BC
:100020000C9469000C9469000C9469000C946900AC
:100030000C9469000C9469000C9469000C9469009C
:100040000C9469000C9469000C9469000C9469008C
:100050000C9469000C9469000C9469000C9469007C
:100060000C9469000C9477000C9469000C9469005E
:100070000C9469000C9469000C9469000C9469005C
:100080000C9469000C9469000C9469000C9469004C
:100090000C94690011241FBECFEFD0E1DEBFCDBFAD
:1000A00011E0A0E0B1E0E4E1FFE000E00BBF02C03E
:1000B00007900D92A238B107D9F711E0A2E8B1E09C
:1000C00001C01D92A53AB107E1F70E94EC040C941F
:1000D00088070C94000080E480937C0080EF80BB54
:1000E0008FE080937E0088EC80937A0008951F92C1
:1000F0000F920FB60F9211248F939F9380917800E7
:1001000090917900909399018093980188EC809365
:100110007A009F918F910F900FBE0F901F901895AE
:1001200080919C018823F1F42091980130919901EC
:10013000309397012093960142E350E0249FC00141
:10014000259F900D349F900D11246FEF73E00E9456
:1001500024077093A4016093A30181E080939C0124
:1001600080E41EC08130F9F420919801309199010A
:100170003093A2012093A10142E350E0249FC001EB
:10018000259F900D349F900D11246FEF73E00E9416
:10019000240770939E0160939D0110929C0181E45D
:1001A00080937C00089510929C0108958FEF87B989
:1001B00018B883BB10BA1AB81DB8089599B129B1FF
:1001C00081E021FD80E090FD03C0882331F408C068
:1001D000813049F080E191E008958BE091E008954D
:1001E00080E091E0089585E091E00895A29A84E688
:1001F00090E00E94C804A298089588E290E00E94CE
:10020000D70488E388B90E94F60088E290E00E9453
:10021000C8048CE088B988E290E00E94C8040E947B
:10022000F60081E088B982E090E00E94D7040E9445
:10023000F60086E088B90E94F6000895A098A1987B
:1002400088B90E94F6000895A09AA19888B90E94E2
:10025000F6000895A098A198662311F4805803C071
:10026000613011F4805488B90E94F60008950F930C
:100270001F93CF93DF9300D0CDB7DEB749835A8366
:100280000E942A014981042F5A81152F02C00E9421
:100290002401F80181918F018823C9F70F900F90F5
:1002A000DF91CF911F910F910895CF93DF930F921C
:1002B000CDB7DEB749830E942A014981842F0E946D
:1002C00024010F90DF91CF9108959091D800916013
:1002D0009093D800833089F0843028F4813051F035
:1002E0008230D1F411C0853061F0853040F0863025
:1002F00099F409C01092E20009C086E005C088E0C8
:1003000003C08EE001C082E18093E2008CE0809324
:10031000E30087E38093E40080E0982F9295907F3C
:100320009093ED001092EF001092EE001092F30007
:100330001092F2001092F1001092F0001092F7006B
:100340001092F6001092F5001092F4001092FA004C
:100350001092FA001092FA001092FA001092FA002D
:100360001092FA001092FA001092FA008F5F8F300C
:10037000A1F61092DB001092DF001092DE001092C6
:10038000E1001092E0008091D80082608093D80054
:100390008091D90082FFFCCF08959091D8009160A0
:1003A0009093D8008330C1F0843028F4813051F02C
:1003B000823039F50EC08530C9F0853078F086304E
:1003C00001F516C01092E20084E08093E30083E11F
:1003D00016C01092E2000FC082E00BC082E0809352
:1003E000E2008EE08093E3008BE409C086E001C068
:1003F00088E08093E2008CE08093E30087E38093C1
:10040000E40080E0982F9295907F9093ED001092F9
:10041000EF001092EE001092F3001092F200109292
:10042000F1001092F0001092F7001092F600109276
:10043000F5001092F4001092FA001092FA00109257
:10044000FA001092FA001092FA001092FA0010923C
:10045000FA001092FA008F5F8F30A1F61092DB0045
:100460001092DF001092DE001092E1001092E00086
:1004700080E28093D8008091D80082608093D80079
:100480008091D90082FFFCCF08950F931F93FB0149
:1004900000811181228133818295807F8093ED00DC
:1004A0001092EE001092EF0085818823A1F4D9010B
:1004B000C80153E0B695A795979587955A95D1F7BA
:1004C0008093F3000295000F007E0093F20080916C
:1004D000EF008F7E29C0D901C80155E1B695A795D7
:1004E000979587955A95D1F78093F300D901C80164
:1004F0006DE0B695A795979587956A95D1F7809306
:10050000F200D901C80175E0B695A7959795879532
:100510007A95D1F78093F100000F000F000F009340
:10052000F0008091EF0080618093EF008091EF00F8
:100530009681892B8093EF008091F0004470482BC6
:100540004093F0008091F0008D7F8093F0008091C7
:10055000F0008E7F8093F00080E009C0DF01A80FDB
:10056000B11D17969C9117979093FA008F5F968113
:100570008917A0F38091EF0080648093EF00809151
:10058000EE0086FFFCCF8091EE008F7B8093EE0023
:1005900081E01F910F910895CF92DF92EF92FF9229
:1005A0000F931F93FB018295807F8093ED008091D4
:1005B000EE0085FFFCCF8091EF0084FD1BC015820B
:1005C0008091F30090E0A0E0B0E0BA2FA92F982F1F
:1005D00088274091F20050E060E070E0842B952B7A
:1005E000A62BB72B35E0B695A795979587953A95A5
:1005F000D1F735C081E085838091F30090E0A0E0E1
:10060000B0E0B82FAA2799278827C090F200409120
:10061000F1000091F000DD24EE24FF247601DD24BA
:10062000CC248C299D29AE29BF2910E020E030E0A0
:10063000802B912BA22BB32B50E060E070E0762F43
:10064000652F542F4427842B952BA62BB72B68940A
:1006500012F8B695A795979587951694D1F780834C
:100660009183A283B3838091F0008470848380910E
:10067000EF008F70868340E009C08091FA002E0F52
:100680003F1FD90117968C9317974F5F242F30E0A7
:100690008091EF0090E08F709070281739076CF30D
:1006A0001092EE008091EF0080688093EF008091BF
:1006B000EE008F7D8093EE0081E01F910F91FF90FF
:1006C000EF90DF90CF900895AF92CF92DF92EF92AC
:1006D000FF920F938295807F8093ED001092EE0041
:1006E000DB01CA01222329F5F3E0B695A79597957A
:1006F0008795FA95D1F78093F3004295440F407E99
:100700004093F200D701C60123E0B695A7959795CF
:1007100087952A95D1F78093F700C294CC0C30EEE0
:10072000C322C092F6001092F4008091EF008F7EF9
:100730004DC0E5E1B695A79597958795EA95D1F7D0
:100740008093F300DB01CA01FDE0B695A79597956C
:100750008795FA95D1F78093F200DB01CA0125E075
:10076000B695A795979587952A95D1F78093F1002F
:10077000440F440F440F4093F000D701C60135E108
:10078000B695A795979587953A95D1F78093F700F9
:10079000D701C6014DE0B695A795979587954A95DF
:1007A000D1F78093F600D701C601E5E0B695A7958D
:1007B00097958795EA95D1F78093F500CC0CCC0CF2
:1007C000CC0CC092F4008091EF0080618093EF0028
:1007D0008091EF000F70082B0093EF009091F400D0
:1007E0008A2D8770892B8093F4008091EF008068B8
:1007F0008093EF000F91FF90EF90DF90CF90AF903C
:100800000895AF92CF92DF92EF92FF920F93382F1D
:100810008295807F8093ED001092EE008091EF0032
:1008200021FF02C0806201C08F7D8093EF00DB0159
:10083000CA0120FD25C023E0B695A7959795879519
:100840002A95D1F78093F3004295440F407E409360
:10085000F200D701C60143E0B695A7959795879515
:100860004A95D1F78093F700C294CC0C50EEC52284
:10087000C092F6001092F4008091EF008F7E4DC080
:10088000E5E1B695A79597958795EA95D1F7809379
:10089000F300DB01CA01FDE0B695A7959795879512
:1008A000FA95D1F78093F200DB01CA0125E0B695F5
:1008B000A795979587952A95D1F78093F100440FD6
:1008C000440F440F4093F000D701C60145E1B695AF
:1008D000A795979587954A95D1F78093F700D7010B
:1008E000C601EDE0B695A79597958795EA95D1F75E
:1008F0008093F600D701C601F5E0B695A7959795C8
:100900008795FA95D1F78093F500CC0CCC0CCC0CE4
:10091000C092F4008091EF0080618093EF0080919D
:10092000EF000F70082B0093EF009091F4008A2DD8
:100930008770892B8093F4008091DB00806A80931C
:10094000DB00383050F481E090E002C0880F991F3E
:100950003A95E2F78093DE000DC0232F30E0285057
:10096000304081E090E002C0880F991F2A95E2F79D
:100970008093DF008091EF0080688093EF0078948F
:100980000F91FF90EF90DF90CF90AF900895089572
:1009900020E030E008C00F920F900F920F900F925E
:1009A0000F902F5F3F4F28173907A9F708950F932E
:1009B0001F93CF93DF938C01C0E0D0E005C088EE99
:1009C00093E00E94C8042196C017D107C1F7DF91B8
:1009D000CF911F910F910895CF93DF93CDB7DEB7DD
:1009E00060970FB6F894DEBF0FBECDBF0E94D60051
:1009F0000E94FD0083E00E9465010E946B007894D4
:100A000010929B0110929A0181E090E09093A001D6
:100A100080939F01DE011596E7E2F1E088E0019006
:100A20000D928150E1F780E390E3DC0189839A83A2
:100A3000AB83BC8380E060E044E151E00E94370179
:100A400084EF91E00E94D70481E041E050E060E053
:100A500070E021E008E0CC24DD247601AA240E9485
:100A60006403222433241E861D860E94900081E0A8
:100A700063E671E00E94CC0280919A0190919B0103
:100A8000AC01E3E0440F551FEA95E1F7480F591F09
:100A9000405D5E4F009719F08230910579F480E057
:100AA00060E00E94370180E061E04BE151E00E948C
:100AB00037011092A00110929F0104C080E060E015
:100AC0000E9437018091A3019091A4018932910580
:100AD00008F042C02D853E8521303105A1F42091DA
:100AE0009A0130919B012F5F3F4F30939B012093E0
:100AF0009A012330310554F023E030E030939B011C
:100B000020939A0103C0188A1F8606C021E030E0B6
:100B1000388B2F871E861D868A30910520F18D85A2
:100B20009E852FEF8F3F920749F580919A01909112
:100B30009B01019790939B0180939A0182309105CC
:100B4000BCF481E090E090939B0180939A0121E0B6
:100B500030E0388B2F8710C0188A1F8681E090E024
:100B60009E878D870BC02FEF3FEF3E872D8706C0F6
:100B700081E090E0988B8F871E861D8680919A0178
:100B800090919B018330910521F08130910509F00E
:100B9000BDC020919F013091A001C9016AE070E0C1
:100BA0000E943807805D8C87C90164E670E00E946E
:100BB00038076AE070E00E943807605D6B87C90102
:100BC00068EE73E00E94380764E670E00E94380720
:100BD000605D6A87C90160E177E20E94380768EECC
:100BE00073E00E943807605D69876901EE24D7FCD5
:100BF000E094FE2CC701B60120EA36E841E050E05F
:100C00000E944B0720E137E240E050E00E944B0792
:100C1000205D288750E4852E52E4952E5FE0A52EB6
:100C2000B12CC701B601A50194010E944B0720EA2F
:100C300036E841E050E00E944B07205D2F8360E8DA
:100C4000462E66E9562E68E9662E712CC701B6015C
:100C5000A30192010E944B07A50194010E944B073A
:100C6000205D2E83C701B60120E031EE45EF55E04F
:100C70000E944B07A30192010E944B07205D2D8328
:100C800080E061E0AE014B5F5F4F0E9437018091D1
:100C90009D0190919E0189329105D8F521E022169F
:100CA0003104A1F420919F013091A0012F5F3F4FAB
:100CB0003093A00120939F012530310554F025E0A9
:100CC00030E03093A00120939F0103C000E010E0CA
:100CD00004C001E010E0222433248A309105F8F0AA
:100CE0003FEF23163FEF330611F580919F0190915E
:100CF000A00101979093A00180939F0118161906F7
:100D000094F01092A00110929F010DC000E010E03D
:100D10000EC000E010E041E0242E312C08C0222457
:100D20002A94322C04C001E010E0222433240E94D3
:100D3000DE0021E08030920761F031E085309307DA
:100D400061F021E08B30920779F433E0C32ED12C8F
:100D500007C021E0C22ED12C03C092E0C92ED12CB5
:100D600081E0882E912C04C0CC24DD248824992491
:100D700080919A0190919B018130910591F520918C
:100D80006A0130E0C9016AE070E00E943807805DC6
:100D90008C83C90164E670E00E9438076AE070E065
:100DA0000E943807605D6B83C90168EE73E00E94A2
:100DB000380764E670E00E943807605D6A83C90105
:100DC00060E177E20E94380768EE73E00E9438071E
:100DD000605D698388E061E0AE014F5F5F4F0E9414
:100DE000370180919A0190919B0180937901109233
:100DF0007A0120919F0120937B0110927C016AE08F
:100E000070E00E943807805D80937D0110927E0122
:100E1000C6016AE070E00E943807805D80937F0120
:100E2000109280018F859889009739F4011511057A
:100E300021F48114910409F418CE80E062E771E096
:100E400040E00E94450211CEAA1BBB1B51E107C026
:100E5000AA1FBB1FA617B70710F0A61BB70B881F4A
:100E6000991F5A95A9F780959095BC01CD010895D9
:100E700097FB092E07260AD077FD04D0E5DF06D0C0
:100E800000201AF4709561957F4F0895F6F79095BC
:100E900081959F4F089597FB092E05260ED057FD8B
:100EA00004D014D00AD0001C38F4509540953095E9
:100EB00021953F4F4F4F5F4F0895F6F790958095DE
:100EC000709561957F4F8F4F9F4F0895A1E21A2E25
:100ED000AA1BBB1BFD010DC0AA1FBB1FEE1FFF1FDE
:100EE000A217B307E407F50720F0A21BB30BE40B2E
:100EF000F50B661F771F881F991F1A9469F7609575
:100F00007095809590959B01AC01BD01CF0108952E
:040F1000F894FFCF83
:100F14004C45465400524947485400424F544800F7
:100F24004E5448006265666F7265002020202020C0
:100F3400202020202020003030303030303030006D
:100F440050524B00000000000052565300000000B5
:100F540000004E54520000000000004452560000AD
:100F64000000000001000000000108000000000073
:100F74000000000100000000010800000000000063
:100F84000000010000000001080000000000000053
:020F940000005B
:00000001FF
