:100000000C944A000C9469000C9469000C946900EB
:100010000C9469000C9469000C9469000C946900BC
:100020000C9469000C9469000C9469000C946900AC
:100030000C9469000C9469000C9469000C9469009C
:100040000C9469000C9469000C9469000C9469008C
:100050000C9469000C9469000C9469000C9469007C
:100060000C9469000C9469000C9469000C9469006C
:100070000C9469000C9469000C9469000C9469005C
:100080000C9469000C9469000C9469000C9469004C
:100090000C94690011241FBECFEFD0E1DEBFCDBFAD
:1000A00012E0A0E0B1E0EAE7FAE200E00BBF02C034
:1000B00007900D92A43AB107D9F713E0A4EAB2E091
:1000C00001C01D92A537B107E1F70E94FF100C9403
:1000D0003B150C9400009091D80091609093D8004B
:1000E000833089F0843028F4813051F08230D1F4AB
:1000F00011C0853061F0853040F0863099F409C038
:100100001092E20009C086E005C088E003C08EE0DE
:1001100001C082E18093E2008CE08093E30087E3FA
:100120008093E40080E0982F9295907F9093ED006B
:100130001092EF001092EE001092F3001092F20075
:100140001092F1001092F0001092F7001092F60059
:100150001092F5001092F4001092FA001092FA003A
:100160001092FA001092FA001092FA001092FA001F
:100170001092FA001092FA008F5F8F30A1F6109261
:10018000DB001092DF001092DE001092E10010926E
:10019000E0008091D80082608093D8008091D900DF
:1001A00082FFFCCF08959091D80091609093D80081
:1001B0008330C1F0843028F4813051F0823039F539
:1001C0000EC08530C9F0853078F0863001F516C054
:1001D0001092E20084E08093E30083E116C0109265
:1001E000E2000FC082E00BC082E08093E2008EE06C
:1001F0008093E3008BE409C086E001C088E080932F
:10020000E2008CE08093E30087E38093E40080E0E9
:10021000982F9295907F9093ED001092EF0010929E
:10022000EE001092F3001092F2001092F100109282
:10023000F0001092F7001092F6001092F500109264
:10024000F4001092FA001092FA001092FA00109244
:10025000FA001092FA001092FA001092FA0010922E
:10026000FA008F5F8F30A1F61092DB001092DF0052
:100270001092DE001092E1001092E00080E2809384
:10028000D8008091D80082608093D8008091D900F6
:1002900082FFFCCF08950F931F93FB010081118112
:1002A000228133818295807F8093ED001092EE0051
:1002B0001092EF0085818823A1F4D901C80153E091
:1002C000B695A795979587955A95D1F78093F300A2
:1002D0000295000F007E0093F2008091EF008F7E68
:1002E00029C0D901C80155E1B695A795979587957D
:1002F0005A95D1F78093F300D901C8016DE0B69506
:10030000A795979587956A95D1F78093F200D901C3
:10031000C80175E0B695A795979587957A95D1F719
:100320008093F100000F000F000F0093F000809108
:10033000EF0080618093EF008091EF009681892B20
:100340008093EF008091F0004470482B4093F000C0
:100350008091F0008D7F8093F0008091F0008E7F7F
:100360008093F00080E009C0DF01A80FB11D17964F
:100370009C9117979093FA008F5F96818917A0F34D
:100380008091EF0080648093EF008091EE0086FF03
:10039000FCCF8091EE008F7B8093EE0081E01F9177
:1003A0000F910895CF92DF92EF92FF920F931F93D8
:1003B000FB018295807F8093ED008091EE0085FFA8
:1003C000FCCF8091EF0084FD1BC015828091F3006B
:1003D00090E0A0E0B0E0BA2FA92F982F8827409195
:1003E000F20050E060E070E0842B952BA62BB72B39
:1003F00035E0B695A795979587953A95D1F735C08D
:1004000081E085838091F30090E0A0E0B0E0B82F18
:10041000AA2799278827C090F2004091F100009107
:10042000F000DD24EE24FF247601DD24CC248C2989
:100430009D29AE29BF2910E020E030E0802B912BD0
:10044000A22BB32B50E060E070E0762F652F542F85
:100450004427842B952BA62BB72B689412F8B695BE
:10046000A795979587951694D1F780839183A2835A
:10047000B3838091F000847084838091EF008F704B
:10048000868340E009C08091FA002E0F3F1FD901FA
:1004900017968C9317974F5F242F30E08091EF00D1
:1004A00090E08F709070281739076CF31092EE006F
:1004B0008091EF0080688093EF008091EE008F7D47
:1004C0008093EE0081E01F910F91FF90EF90DF90FD
:1004D000CF900895AF92CF92DF92EF92FF920F9359
:1004E0008295807F8093ED001092EE00DB01CA01BF
:1004F000222329F5F3E0B695A79597958795FA9568
:10050000D1F78093F3004295440F407E4093F20070
:10051000D701C60123E0B695A795979587952A95AB
:10052000D1F78093F700C294CC0C30EEC322C09276
:10053000F6001092F4008091EF008F7E4DC0E5E14F
:10054000B695A79597958795EA95D1F78093F3008F
:10055000DB01CA01FDE0B695A79597958795FA95B9
:10056000D1F78093F200DB01CA0125E0B695A7958B
:10057000979587952A95D1F78093F100440F440F02
:10058000440F4093F000D701C60135E1B695A79519
:10059000979587953A95D1F78093F700D701C601D3
:1005A0004DE0B695A795979587954A95D1F7809395
:1005B000F600D701C601E5E0B695A7959795879512
:1005C000EA95D1F78093F500CC0CCC0CCC0CC09202
:1005D000F4008091EF0080618093EF008091EF0044
:1005E0000F70082B0093EF009091F4008A2D877014
:1005F000892B8093F4008091F4008E7F8093F40027
:100600008091EF0080688093EF000F91FF90EF9052
:10061000DF90CF90AF900895AF92CF92DF92EF929C
:10062000FF920F93382F8295807F8093ED00109278
:10063000EE008091EF0021FF02C0806201C08F7D3B
:100640008093EF00DB01CA0120FD25C023E0B695B1
:10065000A795979587952A95D1F78093F3004295B2
:10066000440F407E4093F200D701C60143E0B695A7
:10067000A795979587954A95D1F78093F700C294EF
:10068000CC0C50EEC522C092F6001092F40080917E
:10069000EF008F7E4DC0E5E1B695A79597958795BC
:1006A000EA95D1F78093F300DB01CA01FDE0B6952E
:1006B000A79597958795FA95D1F78093F200DB017E
:1006C000CA0125E0B695A795979587952A95D1F704
:1006D0008093F100440F440F440F4093F000D70182
:1006E000C60145E1B695A795979587954A95D1F7A7
:1006F0008093F700D701C601EDE0B695A7959795D1
:100700008795EA95D1F78093F600D701C601F5E009
:10071000B695A79597958795FA95D1F78093F500AB
:10072000CC0CCC0CCC0CC092F4008091EF0080611A
:100730008093EF008091EF000F70082B0093EF0083
:100740009091F4008A2D8770892B8093F40080911A
:10075000DB00806A8093DB00383050F481E090E069
:1007600002C0880F991F3A95E2F78093DE000DC012
:10077000232F30E02850304081E090E002C0880F05
:10078000991F2A95E2F78093DF008091EF0080683F
:100790008093EF0078940F91FF90EF90DF90CF90CF
:1007A000AF900895CF92DF92EF92FF92CF93DF93B5
:1007B00080914E03882321F481E080934E0346C14B
:1007C000C0914F03C13021F0C23009F03FC126C1B2
:1007D000C0903C03D0903D03E0903E03F0903F0377
:1007E000C701B60120E030E0A9010E94060D882370
:1007F00039F410925003109252031092510326C103
:10080000D0915203D13021F0D23009F0F5C03BC075
:10081000C701B60120E030E040E050E40E94060D40
:10082000882331F41092500382E08093520354C025
:1008300080915003813021F0823009F0DFC012C076
:100840006091440370914503809146039091470362
:1008500020E030E040EF51E40E94370D18160CF014
:1008600089C0CCC0609144037091450380914603D8
:100870009091470320E030E040EF51EC0E94990D49
:1008800087FF2DC00EC0C701B60120E030E040E870
:100890005FE30E94060D882339F410925103C09340
:1008A0005203D0935003ADC080915103813021F0A9
:1008B000823009F09AC04EC06091440370914503A4
:1008C000809146039091470320E030E040EF51E4EF
:1008D0000E94370D18161CF4D093510388C0609104
:1008E000400370914103809142039091430320E0C3
:1008F00034E244E75BE40E945A0B20E030E040E041
:100900005FE30E945A0B20E030E040E85CE30E9485
:100910005A0B20E030E04AE754E40E945B0C20E0F0
:1009200030E048EC51E40E945A0B20E030E040EA0D
:1009300050E40E945B0CDC01CB018093F9029093A0
:10094000FA02A093FB02B093FC0280E090E0ADE7D6
:10095000B3E4A2C0609144037091450380914603C3
:100960009091470320E030E040EF51EC0E94990D58
:1009700087FD3BC060914003709141038091420329
:100980009091430320E034E244E75BE40E945A0B79
:1009900020E030E040E05FE30E945A0B20E030E0CE
:1009A00040E85CE30E945A0B20E030E04AE754E460
:1009B0000E945B0C20E030E048EC51E40E945A0BAE
:1009C00020E030E040EA50E40E945B0CDC01CB0107
:1009D0008093F9029093FA02A093FB02B093FC0279
:1009E00080E090E0AEE7B3E457C0C093510380E0ED
:1009F00090E0A0E0B0E409C0C093520382E080938D
:100A0000500380E090E0A0E8BFE38093F50290936C
:100A1000F602A093F702B093F80246C060913C033F
:100A200070913D0380913E0390913F0320E030E0C0
:100A300040E85FE30E94060D8823B1F581E08093D2
:100A40004F0380935203C0935003DBCF82E0809327
:100A50004F0380E090E0DC018093F5029093F60272
:100A6000A093F702B093F80280E090E0A8ECB2E423
:100A70008093F9029093FA02A093FB02B093FC02D8
:100A80008093FD029093FE02A093FF02B0930003B7
:100A900080E090E0ACE7B3E480930103909302031D
:100AA000A0930303B09304038091F5029091F602A2
:100AB000A091F702B091F8028093630390936403CE
:100AC000A0936503B09366038091F9029091FA02B6
:100AD000A091FB02B091FC0280936703909368039E
:100AE000A0936903B0936A038091FD029091FE0286
:100AF000A091FF02B091000380936B0390936C036D
:100B0000A0936D03B0936E03809101039091020353
:100B1000A0910303B091040380936F03909370033B
:100B2000A0937103B0937203DF91CF91FF90EF9088
:100B3000DF90CF900895E0919901F0919A01118290
:100B4000108280E1E5EFF2E0DF01982F1D929A9587
:100B5000E9F795E0EEE4F3E0DF011D929A95E9F7FD
:100B60009CE0ECE3F3E0DF011D929A95E9F7E3E600
:100B7000F3E0DF011D928A95E9F708950895CF9378
:100B8000DF9300D0CDB7DEB7FC01DB01808191811E
:100B90009A8389838D919C91119791838083898118
:100BA0009A8111969C938E930F900F90DF91CF9125
:100BB0000895CF92DF92EF92FF920F931F93CF93FE
:100BC000DF93C0E0D0E001C0E7017E010894E11CA2
:100BD000F11C8701CC0FDD1FCF51DD4FDC2ECD2E58
:100BE00088819981B801660F771F6F517D4FFB0196
:100BF000208131812817390720F48D2D9C2D0E94EA
:100C0000BF050F5F1F4F0B30110554F3FAE0EF16CD
:100C1000F104D1F6DF91CF911F910F91FF90EF90EA
:100C2000DF90CF900895CF92DF92EF92FF920F93D3
:100C30001F93CF93DF93C0E0D0E001C0E7017E01B6
:100C40000894E11CF11C8701CC0FDD1FC353DD4F5D
:100C5000DC2ECD2E88819981B801660F771F6353F2
:100C60007D4FFB01208131812817390720F48D2D1C
:100C70009C2D0E94BF050F5F1F4F0B30110554F3D1
:100C8000FAE0EF16F104D1F6DF91CF911F910F91A9
:100C9000FF90EF90DF90CF900895CF92DF92EF9288
:100CA000FF920F931F93CF93DF93C0E0D0E001C07A
:100CB000E7017E010894E11CF11C8701CC0FDD1FC8
:100CC000C85DDC4FDC2ECD2E88819981B801660F7E
:100CD000771F685D7C4FFB01208131812817390720
:100CE00020F48D2D9C2D0E94BF050F5F1F4F0B30F0
:100CF000110554F3FAE0EF16F104D1F6DF91CF912C
:100D00001F910F91FF90EF90DF90CF900895109278
:100D10005603109255031092060310920503109289
:100D20001B0310921A0380E090E0FC01E254FD4F97
:100D300010829C01220F331FF901E85DFC4F1182E4
:100D40001082F901E353FD4F118210822F513D4F64
:100D5000F9011182108201968A30910531F70895C8
:100D60000F931F93CF93DF9310921B0310921A03DC
:100D70001092060310920503109256031092550329
:100D800020E130E0A0E4F2E4E4E480917A008F779F
:100D900080937A00A0937C0080917A00806C80938D
:100DA0007A0080917A0084FFFCCF80917800809354
:100DB000C102809179008F738093C0028091C1023B
:100DC0009091C002D92F00E0C02F8E01080F111D95
:100DD000109356030093550380917A008F77809388
:100DE0007A00F0937C0080917A00806C80937A0086
:100DF00080917A0084FFFCCF809178008093C302B9
:100E0000809179008F738093C2028091C302909188
:100E1000C202792F60E08B01080F111D10930603A9
:100E20000093050380917A008F7780937A00E09396
:100E30007C0080917A00806C80937A0080917A00A7
:100E400084FFFCCF809178008093C5028091790067
:100E50008F738093C4028091C5029091C402592F70
:100E600040E08A01080F111D10931B0300931A0321
:100E70002150304009F089CFDF91CF911F910F9120
:100E8000089510921F0310921E0335C00E94B006F1
:100E9000E0911E03F0911F0380915503909156033A
:100EA000EE0FFF1FE85DFC4F91838083E0911E03EE
:100EB000F0911F038091050390910603EE0FFF1F31
:100EC000E353FD4F91838083E0911E03F0911F0354
:100ED00080911A0390911B03EE0FFF1FEF51FD4FFE
:100EE0009183808380911E0390911F0301969093BC
:100EF0001F0380931E0380911E0390911F038A306D
:100F0000910520F20E944D060E9413060E94D90509
:100F10001092190310921803109254031092530365
:100F2000109274031092730382E090E041C020910C
:100F3000730330917403E0911E03F0911F03EE0FD1
:100F4000FF1FE85DFC4F80819181820F931F90937A
:100F50007403809373032091530330915403E09101
:100F60001E03F0911F03EE0FFF1FE353FD4F80811F
:100F70009181820F931F9093540380935303209188
:100F8000180330911903E0911E03F0911F03EE0F37
:100F9000FF1FEF51FD4F80819181820F931F90932E
:100FA00019038093180380911E0390911F030196EB
:100FB00090931F0380931E0380911E0390911F0343
:100FC0008930910508F4B3CF609173037091740375
:100FD00053E0769567955A95E1F780E090E00E949E
:100FE000920E0E9418120E946D09DC01CB019093B1
:100FF0001D0380931C036091530370915403E3E03D
:1010000076956795EA95E1F780E090E00E94920E70
:101010000E9418120E946D09DC01CB019093CC0252
:101020008093CB026091180370911903F3E07695D9
:101030006795FA95E1F780E090E00E94920E0E9499
:1010400018120E946D09DC01CB0190932303809359
:10105000220380911C0390911D038E559140909323
:10106000CA028093C9028091C9029091CA02089570
:101070008FEF87B99FE093BB1AB890EF9DB98EB9F7
:1010800008958AE88093900083E18093910085E33E
:101090009CE0909397008093960086E490E0909374
:1010A0009D0080939C000895089520E030E008C0E2
:1010B0000F920F900F920F900F920F902F5F3F4F54
:1010C00028173907A9F708950F931F93CF93DF933C
:1010D0008C01C0E0D0E005C088EE93E00E94550886
:1010E0002196C017D107C1F7DF91CF911F910F91C2
:1010F00008958091C802882349F0E0919901F09108
:101100009A0180E091E091838083089581E080934B
:10111000C80260914A0370914B03882777FD809540
:10112000982F0E94CA0DDC01CB0180934403909359
:101130004503A0934603B09347036091100370E00A
:1011400080E090E00E94920EDC01CB0180933C0392
:1011500090933D03A0933E03B0933F0360915703E8
:1011600070915803882777FD8095982F0E94CA0DAB
:10117000DC01CB018093400390934103A093420391
:10118000B09343030E94D2036091630370916403A0
:1011900080916503909166030E946D09609326011A
:1011A00060916703709168038091690390916A036D
:1011B0000E946D09DC01CB01909399008093980007
:1011C00060916B0370916C0380916D0390916E033D
:1011D0000E946D09DC01CB0190939B0080939A00E3
:1011E00060916F037091700380917103909172030D
:1011F0000E946D096EB91092C8020895A29A84E601
:1012000090E00E945508A298089588E290E00E941C
:10121000640888E388B90E94FE0888E290E00E9492
:1012200055088CE088B988E290E00E9455080E9439
:10123000FE0881E088B982E090E00E9464080E9484
:10124000FE0886E088B90E94FE080895A098A1983B
:1012500088B90E94FE080895A09AA19888B90E94B2
:10126000FE080895A098A198662311F4805803C041
:10127000613011F4805488B90E94FE0808950F93DC
:101280001F93CF93DF9300D0CDB7DEB749835A8346
:101290000E9432094981042F5A81152F02C00E94F1
:1012A0002C09F80181918F018823C9F70F900F90C5
:1012B000DF91CF911F910F910895CF93DF930F92FC
:1012C000CDB7DEB749830E9432094981842F0E943D
:1012D0002C090F90DF91CF910895CF92DF92EF927A
:1012E000FF920F931F936B017C0120E030E040E000
:1012F0005FE40E94680D87FD11C0C701B60120E0C0
:1013000030E040E05FE40E94220B0E94410E8B011E
:101310009C01005010402040304806C0C701B60173
:101320000E94410E8B019C01B801C9011F910F91D0
:10133000FF90EF90DF90CF900895A0E0B0E0E3EA57
:10134000F9E00C94B411EC014B01FA018881823070
:1013500008F43EC1DB019C91923008F436C1843020
:1013600059F4943009F034C1998111968C911197F8
:10137000981709F027C12CC1943009F426C1923086
:10138000A9F4823009F024C1CE0128E0DC010D90DF
:10139000CD01DA010D92AD012150C1F7D4011196B2
:1013A0008C91119799818923818311C1823009F42D
:1013B0000CC1AA80BB80DB0112964D915C91139702
:1013C000CC80DD80EE80FF8014960D911D912D91D3
:1013D0003C911797C501841B950BDC0197FF04C056
:1013E000AA27BB27A81BB90BA032B1050CF067C018
:1013F0001816190684F5280139010A2E04C07694BE
:101400006794579447940A94D2F741E050E060E023
:1014100070E004C0440F551F661F771FAA95D2F7CE
:101420004150504060407040402351236223732359
:1014300081E090E0A0E0B0E0411551056105710543
:1014400019F480E090E0DC018C019D01042915294C
:10145000262937293FC00097E9F1AA0EBB1E2601B5
:1014600037010A2E04C076946794579447940A94DF
:10147000D2F741E050E060E070E004C0440F551F37
:10148000661F771FAA95D2F74150504060407040C8
:101490004C215D216E217F2181E090E0A0E0B0E051
:1014A000411551056105710519F480E090E0DC01FA
:1014B0006C017D01C428D528E628F7280BC04A1501
:1014C0005B0524F400E010E0980104C05A01CC242C
:1014D000DD2476018981D40111969C911197891799
:1014E00009F445C0882329F00C191D092E093F096C
:1014F00008C0D701C601801B910BA20BB30B8C0156
:101500009D0137FD04C01182B382A2820BC081E02D
:101510008183B382A28230952095109501951F4F4B
:101520002F4F3F4F04831583268337830DC0880FC9
:10153000991FAA1FBB1F84839583A683B7838281CB
:10154000938101979383828384819581A681B7815A
:10155000AC01BD0141505040604070404F3F2FEF03
:1015600052072FEF62072FE3720708F30BC0818346
:10157000B382A2820C0D1D1D2E1D3F1D04831583F9
:101580002683378383E08083448155816681778118
:1015900077FF1DC0DB01CA0181709070A070B07030
:1015A0007695679557954795842B952BA62BB72B4A
:1015B00084839583A683B7838281938101969383E5
:1015C000828305C0CBE9D1E003C0E40101C0EF0193
:1015D000CE01CDB7DEB7E0E10C94D011A0E2B0E0CF
:1015E000E4EFFAE00C94C211DC01CB018D839E8301
:1015F000AF83B88729833A834B835C83CE010596FA
:10160000BE01675E7F4F0E943910CE010196BE0178
:101610006F5E7F4F0E943910CE014996BE016F5E0A
:101620007F4FAE01475F5F4F0E949D090E94620F8E
:10163000462F572F682F792FCB01BA01A096E2E0F1
:101640000C94DE11A0E2B0E0E8E2FBE00C94C211E1
:10165000DC01CB018D839E83AF83B88729833A83D6
:101660004B835C83CE010596BE01675E7F4F0E946F
:101670003910CE010196BE016F5E7F4F0E94391076
:101680008A8991E089278A8BCE014996BE016F5ED7
:101690007F4FAE01475F5F4F0E949D090E94620F1E
:1016A000462F572F682F792FCB01BA01A096E2E081
:1016B0000C94DE11A0E2B0E0E0E6FBE00C94B41183
:1016C000DC01CB018D839E83AF83B88729833A8366
:1016D0004B835C83CE010596BE01675E7F4F0E94FF
:1016E0003910CE010196BE016F5E7F4F0E94391006
:1016F000998D923078F089898230C0F0943019F455
:10170000823041F4CAC0843019F4923079F4C5C0F3
:10171000923051F481E02A8D9A89291709F480E0EA
:101720008A8FCE014996BBC0823051F481E02A8D68
:101730009A89291709F480E08A8BCE014196AFC0BF
:101740004D8C5E8C6F8C78A00D891E892F89388D09
:10175000E0E2F0E040E050E0BA018824992454012E
:10176000CC24DD247601C201817090700097D1F005
:10177000C00ED11EE21EF31EDB01CA01880D991DA9
:10178000AA1DBB1D41E050E060E070E0C016D1062C
:10179000E206F30618F040E050E0BA01480F591F86
:1017A0006A1F7B1F880C991CAA1CBB1C37FF08C032
:1017B00081E090E0A0E0B0E0882A992AAA2ABB2A1A
:1017C000000F111F221F331F76946794579447947C
:1017D000319749F68B8D9C8D2B893C89820F931F05
:1017E00002969C878B8781E02A8D9A89291709F4B4
:1017F00080E08A872B853C8517C0CA018170907074
:10180000009761F0F694E794D794C79480E090E055
:10181000A0E0B0E8C82AD92AEA2AFB2A769567957B
:10182000579547952F5F3F4F77FDE7CFC9010BC015
:10183000440F551F661F771FF7FC4160CC0CDD1C61
:10184000EE1CFF1C01974030A0E05A07A0E06A0799
:10185000A0E47A0768F38B879C87DB01CA018F7746
:101860009070A070B07080349105A105B10561F44D
:1018700047FD0AC0C114D104E104F10429F0405C21
:101880005F4F6F4F7F4F40784D875E876F87788BB4
:1018900083E08987CE01099602C08BE991E00E941E
:1018A000620F462F572F682F792FCB01BA01A096D0
:1018B000E0E10C94D011A8E1B0E0E1E6FCE00C948A
:1018C000BC11DC01CB018D839E83AF83B887298354
:1018D0003A834B835C83CE010596BE016F5E7F4FDA
:1018E0000E943910CE010196BE01675F7F4F0E94B2
:1018F00039109989923008F475C08985823008F4CE
:1019000074C02A893A8523272A8B943011F09230AB
:1019100021F4981709F066C06BC0843039F41D8A31
:101920001E8A1F8A188E1C8A1B8A5CC0823019F49A
:1019300084E0898B57C02B893C898B859C85281B2B
:10194000390B3C8B2B8B8D899E89AF89B88DCD84CB
:10195000DE84EF84F8888C159D05AE05BF0540F444
:10196000880F991FAA1FBB1F215030403C8B2B8B27
:10197000EFE1F0E000E010E020E030E440E050E093
:10198000BA018C159D05AE05BF0540F0402B512BCB
:10199000622B732B8C199D09AE09BF0936952795CB
:1019A00017950795880F991FAA1FBB1F319749F7F5
:1019B0008A019B010F771070207030700034110580
:1019C0002105310559F447FD09C00097A105B1056E
:1019D00029F0405C5F4F6F4F7F4F40784D8B5E8B9F
:1019E0006F8B788FCE01419605C0CE01099602C05B
:1019F0008BE991E00E94620F462F572F682F792FB5
:101A0000CB01BA016896E8E00C94D811A8E1B0E0E7
:101A1000ECE0FDE00C94C211DC01CB018D839E83D0
:101A2000AF83B88729833A834B835C83CE010596C5
:101A3000BE016F5E7F4F0E943910CE010196BE013C
:101A4000675F7F4F0E9439108989823058F08985FD
:101A5000823040F0CE014196BE01675F7F4F0E9409
:101A6000A21001C081E06896E2E00C94DE11A8E1CA
:101A7000B0E0EDE3FDE00C94C211DC01CB018D83FD
:101A80009E83AF83B88729833A834B835C83CE01DF
:101A90000596BE016F5E7F4F0E943910CE01019600
:101AA000BE01675F7F4F0E9439108989823058F0EC
:101AB0008985823040F0CE014196BE01675F7F4F3D
:101AC0000E94A21001C08FEF6896E2E00C94DE1134
:101AD000A8E1B0E0EEE6FDE00C94C211DC01CB0120
:101AE0008D839E83AF83B88729833A834B835C833E
:101AF000CE010596BE016F5E7F4F0E943910CE0168
:101B00000196BE01675F7F4F0E943910898982303C
:101B100058F08985823040F0CE014196BE01675F62
:101B20007F4F0E94A21001C08FEF6896E2E00C94F4
:101B3000DE11A8E1B0E0EFE9FDE00C94C211DC0198
:101B4000CB018D839E83AF83B88729833A834B83F0
:101B50005C83CE010596BE016F5E7F4F0E943910F7
:101B6000CE010196BE01675F7F4F0E9439108989BF
:101B7000823058F08985823040F0CE014196BE0116
:101B8000675F7F4F0E94A21001C081E06896E2E08B
:101B90000C94DE11CF92DF92EF92FF92CF93DF93FE
:101BA000CDB7DEB728970FB6F894DEBF0FBECDBF16
:101BB0006B017C0183E08983D701C6018827B7FDCB
:101BC00083959927AA27BB27282F8A83C114D1047C
:101BD000E104F10419F482E0898335C08EE190E0DC
:101BE0009C838B83222389F080E0C81680E0D8068E
:101BF00080E0E80680E8F80659F1F094E094D0948B
:101C0000C094C11CD11CE11CF11CCD82DE82EF828C
:101C1000F886C701B6010E940F0F01971816190622
:101C200094F4082E04C0CC0CDD1CEE1CFF1C0A949E
:101C3000D2F7CD82DE82EF82F8862EE130E0281BDB
:101C4000390B3C832B83CE0101960E94620F04C0A6
:101C500060E070E080E09FEC382F292F862F972FCF
:101C6000A32FB22FBC01CD0128960FB6F894DEBF8A
:101C70000FBECDBFDF91CF91FF90EF90DF90CF905F
:101C80000895ACE0B0E0E7E4FEE00C94C011DC01A4
:101C9000CB0189839A83AB83BC83CE010196BE01BD
:101CA0006B5F7F4F0E9439108D81823069F18230E5
:101CB00058F1843039F02F81388537FD25C02F3118
:101CC000310544F08E81882319F100E010E020E016
:101CD00030E822C08EE190E0821B930B09851A85C3
:101CE0002B853C8504C036952795179507958A95D1
:101CF000D2F78E81882381F030952095109501953B
:101D00001F4F2F4F3F4F08C000E010E0980104C064
:101D10000FEF1FEF2FEF3FE7B801C9012C96E4E06A
:101D20000C94DC11A8E0B0E0E8E9FEE00C94BC11F2
:101D30006B017C011A82611571058105910519F409
:101D400082E089835EC083E089830EE110E01C831A
:101D50000B83CD82DE82EF82F886C701B6010E9436
:101D60000F0F9C012150304037FF38C0EE27FF276E
:101D7000E21BF30B81E090E0A0E0B0E00E2E04C087
:101D8000880F991FAA1FBB1F0A94D2F70197A109B8
:101D9000B1098C219D21AE21BF2141E050E060E0DE
:101DA00070E00097A105B10519F440E050E0BA01D8
:101DB00004C0F694E794D794C794EA95D2F7C42A5E
:101DC000D52AE62AF72ACD82DE82EF82F8868EE1D6
:101DD00090E0821B930B9C838B8313C021153105EC
:101DE00081F0022E04C0CC0CDD1CEE1CFF1C0A94FA
:101DF000D2F7CD82DE82EF82F886021B130B1C83A2
:101E00000B83CE0101960E94620F462F572F682F39
:101E1000792FCB01BA012896E8E00C94D811CF9223
:101E2000DF92EF92FF920F931F938B019C01003082
:101E300080E0180781E0280780E0380750F40F3F62
:101E400011052105310509F088F480E090E0DC01FE
:101E500016C00030E0E01E07E0E02E07E1E03E079C
:101E600050F480E190E0A0E0B0E009C088E090E0AC
:101E7000A0E0B0E004C088E190E0A0E0B0E040E283
:101E800050E060E070E0481B590B6A0B7B0B680167
:101E9000790104C0F694E794D794C7948A95D2F751
:101EA000D701C6018D559E4FFC018081481B510909
:101EB00061097109CA011F910F91FF90EF90DF90A6
:101EC000CF900895CF92DF92EF92FF920F931F93DE
:101ED000DC0114964D915D916D917C91179711964F
:101EE000EC9111978C91823020F460618FEF90E03B
:101EF000A5C0843009F49DC0823009F494C0411516
:101F000051056105710509F491C012968D919C915E
:101F100013972FEF823892070CF059C022E83FEF59
:101F2000281B390B2A31310564F56A017B01022E29
:101F300004C0F694E794D794C7940A94D2F781E04A
:101F400090E0A0E0B0E004C0880F991FAA1FBB1F5B
:101F50002A95D2F70197A109B10984239523A623D5
:101F6000B72341E050E060E070E00097A105B105C3
:101F700019F440E050E0BA014C295D296E297F290F
:101F800003C040E050E0BA01DB01CA018F779070D6
:101F9000A070B07080349105A105B10539F447FFF8
:101FA00009C0405C5F4F6F4F7F4F04C0415C5F4F83
:101FB0006F4F7F4F81E090E0403020E0520720E0FB
:101FC000620720E4720738F580E090E024C0803892
:101FD00091057CF58A019B010F771070207030709D
:101FE000003411052105310539F447FF09C0405C73
:101FF0005F4F6F4F7F4F04C0415C5F4F6F4F7F4F0C
:1020000077FD03C081589F4F06C076956795579519
:10201000479580589F4F97E07695679557954795D8
:102020009A95D1F70BC080E090E005C080E090E089
:1020300005C08FEF90E040E050E0BA01982F9795EF
:1020400099279795A62FAF77E795EE27E795869581
:102050003A2F392B282F2E2B842F952FA32FB22FD9
:10206000BC01CD011F910F91FF90EF90DF90CF90B9
:102070000895DC01FB014C9111965C911197129629
:102080008C911297682F6F7770E0982F991F99277E
:10209000991F13962C911397822F880F892B90E00C
:1020A000221F2227221F2183009739F54115510550
:1020B0006105710511F482E029C082E89FEF9383E6
:1020C000828327E0440F551F661F771F2A95D1F79B
:1020D00083E0808309C0440F551F661F771F8281EC
:1020E0009381019793838283403080E0580780E09A
:1020F000680780E4780778F320C08F3F910579F472
:10210000411551056105710519F484E08083089536
:1021100064FF03C081E0808310C010820EC08F571F
:1021200090409383828383E0808387E0440F551F30
:10213000661F771F8A95D1F7706444835583668341
:1021400077830895CF93FC01DB019081923008F4EE
:102150004CC08C91823008F448C0943069F42181DD
:10216000843039F411968C91119790E0821B91097B
:1021700044C02223D1F13FC0843021F0923041F499
:102180008230B1F111968C9111978823A1F12DC065
:10219000C181823001F111968C911197C817D9F441
:1021A0008281938112962D913C91139728173907BC
:1021B00094F082179307BCF0448155816681778142
:1021C00014968D919D910D90BC91A02D841795072B
:1021D000A607B70718F4CC2341F00DC048175907DC
:1021E0006A077B0728F4CC2331F081E090E005C03A
:1021F00080E090E002C08FEF9FEFCF910895CF93E2
:10220000DF9300D000D000D0CDB7DEB783E00E94CE
:102210006B0085E00E946B0085E00E94D30081E0A6
:1022200041E050E060E070E021E008E0CC24DD24F3
:102230007601E5E0AE2E0E946A0210927C0086E8EC
:1022400080937A000E9438080E9405090E94410884
:10225000789481E00E94260910924D0310924C035D
:102260008E010F5F1F4FFCE1EF2EF1E0FF2E0E9469
:10227000410790934B0380934A0381E069E073E048
:102280000E94D2010E94790880912601882329F4B6
:1022900060E048E051E00E943F09809126018130D2
:1022A00031F480E060E04DE051E00E943F09809110
:1022B0002601823031F480E060E042E151E00E948A
:1022C0003F0980912601843031F480E060E047E1ED
:1022D00051E00E943F0900D000D000D0EDB7FEB71A
:1022E0003196ADB7BEB712961C930E931197F38239
:1022F000E28280914A0390914B03958384830E94EC
:10230000E9118DB79EB706960FB6F8949EBF0FBE23
:102310008DBF8AE061E0A8010E943F0900D000D093
:1023200000D0EDB7FEB73196ADB7BEB712961C938D
:102330000E931197F382E28280914C0390914D03AA
:10234000958384830E94E9118DB79EB706960FB6D8
:10235000F8949EBF0FBE8DBF80E061E0A8010E948F
:102360003F0985CF2F923F924F925F926F927F925B
:102370008F929F92AF92BF92CF92DF92EF92FF9295
:102380000F931F93CF93DF93CDB7DEB7CA1BDB0B41
:102390000FB6F894DEBF0FBECDBF09942A883988E6
:1023A00048885F846E847D848C849B84AA84B984ED
:1023B000C884DF80EE80FD800C811B81AA81B981F9
:1023C000CE0FD11D0FB6F894DEBF0FBECDBFED010D
:1023D00008950F931F93CF93DF93CDB7DEB72E975A
:1023E0000FB6F894DEBF0FBECDBF0D891E8986E003
:1023F0008C831A8309838FEF9FE79E838D83AE01C1
:10240000475E5F4FCE0101966F89788D0E947212F0
:10241000EF81F885E00FF11F10822E960FB6F89429
:10242000DEBF0FBECDBFDF91CF911F910F910895F9
:102430003BD080F09F3740F491110EF04DC060E02A
:1024400070E080E89FEB089526F41B16611D711D56
:10245000811D01C01BC0882371F4772321F098509F
:10246000872B762F07C0662311F499270DC0905152
:10247000862B70E060E02AF09A95660F771F881F20
:10248000DAF7880F9695879597F908959F3F31F071
:10249000915020F4879577956795B795880F911D92
:1024A0009695879597F90895CCD2A0F0BEE7B91715
:1024B00088F4BB279F3860F41616B11D672F782F5C
:1024C0008827985FF7CF869577956795B11D939587
:1024D0009639C8F30895E894BB2766277727CB0180
:1024E00097F908952F923F924F925F926F927F9249
:1024F0008F929F92AF92BF92CF92DF92EF92FF9214
:102500000F931F93CF93DF93CDB7DEB72D970FB601
:10251000F894DEBF0FBECDBF3C017D876C875A01AA
:10252000FC0117821682838181FFC8C12E010894A5
:10253000411C511CF3019381EC85FD8593FD859130
:1025400093FF8191FD87EC87882309F4B3C185321D
:1025500041F493FD859193FF8191FD87EC8785324E
:1025600029F490E0B3010E948F14E4CFFF24EE24FD
:1025700010E01032B0F48B3269F08C3228F48032E3
:1025800051F0833271F40BC08D3239F0803349F44D
:1025900011602CC01260146029C0186027C010613F
:1025A00025C017FD2EC0282F20532A3098F416FF7F
:1025B00008C08F2D880FF82EFF0CFF0CF80EF20EBE
:1025C00015C08E2D880FE82EEE0CEE0CE80EE20EF4
:1025D00010620CC08E3221F416FD6CC1106406C06E
:1025E0008C3611F4106802C0883659F4EC85FD85EC
:1025F00093FD859193FF8191FD87EC87882309F0F6
:10260000B8CF982F9554933018F09052933038F4F7
:1026100024E030E0A20EB31E3FE339830FC08336BF
:1026200031F0833781F0833509F05AC022C0F501BB
:102630008081898322E030E0A20EB31E21E0C22E09
:10264000D12C420114C092E0292E312C2A0C3B1CC3
:10265000F5018080918016FF03C06F2D70E002C0ED
:102660006FEF7FEFC4010E9484146C0151011F774A
:1026700015C082E0282E312C2A0C3B1CF5018080ED
:10268000918016FF03C06F2D70E002C06FEF7FEFE7
:10269000C4010E9479146C011068510113FD1CC023
:1026A00006C080E290E0B3010E948F14EA948E2D60
:1026B00090E0C816D906A8F30FC0F40117FD859164
:1026C00017FF81914F0190E0B3010E948F14E11038
:1026D000EA940894C108D108C114D10471F7E7C085
:1026E000843611F0893651F5F50117FF07C0808156
:1026F0009181A281B38124E030E008C08081918182
:10270000AA2797FDA095BA2F22E030E0A20EB31EB3
:10271000012F0F76B7FF08C0B095A09590958195D1
:102720009F4FAF4FBF4F0068BC01CD01A2012AE00F
:1027300030E00E94BB14D82ED4183FC0853721F456
:102740001F7E2AE030E020C0197F8F36A9F0803745
:1027500020F4883509F0AEC00BC0803721F08837EF
:1027600009F0A8C001C0106114FF09C0146007C0BF
:1027700014FF08C0166006C028E030E005C020E164
:1027800030E002C020E132E0F50117FF07C06081B0
:1027900071818281938144E050E006C06081718143
:1027A00080E090E042E050E0A40EB51EA2010E943D
:1027B000BB14D82ED418012F0F7706FF09C00E7F47
:1027C000DF1430F404FF06C002FD04C00F7E02C017
:1027D0001D2D01C01F2D802F90E004FF0CC0FE01B5
:1027E000ED0DF11D2081203311F4097E09C002FF97
:1027F00006C01E5F05C086789070009709F01F5FC5
:10280000802E992403FD12C000FF0DC0FD2C1E1563
:1028100050F4FE0CF11A1E2D06C080E290E0B301C8
:102820000E948F141F5F1E15C0F304C01E1510F404
:10283000E11A01C0EE2484FE0FC080E390E0B301F2
:102840000E948F1482FE1FC081FE03C088E590E0C5
:1028500010C088E790E00DC0C401867890700097A2
:1028600091F081FC02C080E201C08BE207FD8DE2A5
:1028700090E0B3010E948F1406C080E390E0B301A2
:102880000E948F14FA94DF14C0F3DA94F201ED0D74
:10289000F11D808190E0B3010E948F14DD20A9F723
:1028A00006C080E290E0B3010E948F14EA94EE200B
:1028B000C1F740CEF3018681978102C08FEF9FEF71
:1028C0002D960FB6F894DEBF0FBECDBFDF91CF912E
:1028D0001F910F91FF90EF90DF90CF90BF90AF903E
:1028E0009F908F907F906F905F904F903F902F9030
:1028F0000895FC010590615070400110D8F7809553
:1029000090958E0F9F1F0895FC01615070400190BB
:102910000110D8F7809590958E0F9F1F08950F9303
:102920001F93CF93DF938C01EB018B8181FF1BC041
:1029300082FF0DC02E813F818C819D812817390730
:1029400064F4E881F9810193F983E88306C0E8859E
:10295000F985802F0995009731F48E819F8101962A
:102960009F838E8302C00FEF1FEFC801DF91CF91CD
:102970001F910F910895FA01AA27283051F12031B3
:1029800081F1E8946F936E7F6E5F7F4F8F4F9F4F03
:10299000AF4FB1E03ED0B4E03CD0670F781F891F45
:1029A0009A1FA11D680F791F8A1F911DA11D6A0F13
:1029B000711D811D911DA11D20D009F468943F91C6
:1029C0002AE0269F11243019305D3193DEF6CF01C5
:1029D0000895462F4770405D4193B3E00FD0C9F78B
:1029E000F6CF462F4F70405D4A3318F0495D31FDF8
:1029F0004052419302D0A9F7EACFB4E0A69597954B
:102A0000879577956795BA95C9F700976105710520
:102A100008959B01AC010A2E06945795479537956A
:102A20002795BA95C9F7620F731F841F951FA01DC4
:102A3000089557FD9058440F551F59F05F3F71F0AE
:102A40004795880F97FB991F61F09F3F79F0879515
:102A50000895121613061406551FF2CF4695F1DF9E
:102A600008C0161617061806991FF1CF869571052E
:0A2A7000610508940895F894FFCF63
:102A7A004F76657272756E0057414954005350552E
:102A8A0050005350444E00494E49540025640003F7
:102A9A0000000003010800000000000000000141DE
:102AAA0043435200534C4F570008012F013401177A
:102ABA00010000000000000000000000000000000B
:102ACA0000000000000000000000000000000000FC
:102ADA0000000000000000000000000000000000EC
:102AEA0000000000000000000000000000000000DC
:102AFA0000000000000000000000000000000000CC
:102B0A000000000000000000004803000000000070
:102B1A000000000001020203030303040404040486
:102B2A00040404050505050505050505050505054E
:102B3A00050505060606060606060606060606062E
:102B4A00060606060606060606060606060606061B
:102B5A0006060607070707070707070707070707FE
:102B6A0007070707070707070707070707070707EB
:102B7A0007070707070707070707070707070707DB
:102B8A0007070707070707070707070707070707CB
:102B9A0007070708080808080808080808080808AE
:102BAA00080808080808080808080808080808089B
:102BBA00080808080808080808080808080808088B
:102BCA00080808080808080808080808080808087B
:102BDA00080808080808080808080808080808086B
:102BEA00080808080808080808080808080808085B
:102BFA00080808080808080808080808080808084B
:102C0A00080808080808080808080808080808083A
:042C1A00080808009E
:00000001FF
