:100000000C944A000C9469000C9469000C946900EB
:100010000C9469000C9444010C9469000C946900E0
:100020000C9469000C9469000C9469000C946900AC
:100030000C9469000C9469000C9469000C9469009C
:100040000C942D010C9469000C9469000C946900C7
:100050000C9469000C9469000C9469000C9469007C
:100060000C9469000C9469000C9469000C9469006C
:100070000C9469000C9469000C9469000C9469005C
:100080000C9469000C9469000C9469000C9469004C
:100090000C94690011241FBECFEFD0E1DEBFCDBFAD
:1000A00012E0A0E0B1E0ECE7F3E100E00BBF02C03A
:1000B00007900D92A232B107D9F712E0A2E2B2E0A6
:1000C00001C01D92A832B107E1F70E947B080C9491
:1000D000BC090C94000020E030E008C00F920F90A3
:1000E0000F920F900F920F902F5F3F4F28173907F5
:1000F000A9F708950F931F93CF93DF938C01C0E06E
:10010000D0E005C088EE93E00E946B002196C017F6
:10011000D107C1F7DF91CF911F910F910895A29A56
:1001200084E690E00E946B00A298089588E290E037
:100130000E947A0088E388B90E948F0088E290E0EC
:100140000E946B008CE088B988E290E00E946B000E
:100150000E948F0081E088B982E090E00E947A00DE
:100160000E948F0086E088B90E948F000895A09AAF
:10017000A19888B90E948F000895A098A19888B985
:100180000E948F000895A098A198662311F48058CA
:1001900003C0613011F4805488B90E948F00089523
:1001A0000F931F93CF93DF9300D0CDB7DEB7498372
:1001B0005A830E94C3004981042F5A81152F02C01F
:1001C0000E94B700F80181918F018823C9F70F9031
:1001D0000F90DF91CF911F910F9108951092C80059
:1001E00088E98093C90086E08093CA001092CD0010
:1001F00087E68093CC0008958091C80087FFFCCFEC
:100200008091CE0008959091C80095FFFCCF809317
:10021000CE000895CF93DF93EC0102C00E9403014A
:1002200089918823D9F7DF91CF910895EC9AEAE676
:10023000F0E080818360808380E18CBB089584B589
:10024000886084BD84B5826084BD16BC83E187BDAF
:1002500082E080936E0015BA08951F920F920FB638
:100260000F9211248F939F938091260290912702E1
:10027000019690932702809326029F918F910F9071
:100280000FBE0F901F9018951F920F920FB60F92EE
:1002900011242F933F938F939F93209126023091A7
:1002A000270280916A0090E083709070009749F077
:1002B00080916A0010926A00109227021092260222
:1002C00009C080916A00836080936A0030932302A2
:1002D000209322029F918F913F912F910F900FBEFB
:1002E0000F901F9018958FEF87B918B89FE093BBB8
:1002F00090EF9DB98EB90895CF92DF92EF92FF9261
:100300000F931F936B017C0120E030E040E05FE43D
:100310000E94150587FD11C0C701B60120E030E03D
:1003200040E05FE40E9431030E94BD058B019C0107
:10033000005010402040304806C0C701B6010E945E
:10034000BD058B019C01B801C9011F910F91FF9060
:10035000EF90DF90CF900895A0E0B0E0E2EBF1E005
:100360000C948709EC014B01FA018881823008F472
:100370003EC1DB019C91923008F436C1843059F4BF
:10038000943009F034C1998111968C911197981786
:1003900009F027C12CC1943009F426C19230A9F488
:1003A000823009F024C1CE0128E0DC010D90CD019E
:1003B000DA010D92AD012150C1F7D40111968C9153
:1003C000119799818923818311C1823009F40CC16D
:1003D000AA80BB80DB0112964D915C911397CC8073
:1003E000DD80EE80FF8014960D911D912D913C9142
:1003F0001797C501841B950BDC0197FF04C0AA2742
:10040000BB27A81BB90BA032B1050CF067C01816AA
:10041000190684F5280139010A2E04C076946794E0
:10042000579447940A94D2F741E050E060E070E0BE
:1004300004C0440F551F661F771FAA95D2F741507D
:10044000504060407040402351236223732381E079
:1004500090E0A0E0B0E0411551056105710519F487
:1004600080E090E0DC018C019D01042915292629FA
:1004700037293FC00097E9F1AA0EBB1E26013701BC
:100480000A2E04C076946794579447940A94D2F73E
:1004900041E050E060E070E004C0440F551F661F6B
:1004A000771FAA95D2F741505040604070404C21D0
:1004B0005D216E217F2181E090E0A0E0B0E0411558
:1004C00051056105710519F480E090E0DC016C01D3
:1004D0007D01C428D528E628F7280BC04A155B05FE
:1004E00024F400E010E0980104C05A01CC24DD247B
:1004F00076018981D40111969C911197891709F48D
:1005000045C0882329F00C191D092E093F0908C090
:10051000D701C601801B910BA20BB30B8C019D016F
:1005200037FD04C01182B382A2820BC081E08183B7
:10053000B382A28230952095109501951F4F2F4FC1
:100540003F4F04831583268337830DC0880F991F7F
:10055000AA1FBB1F84839583A683B783828193815F
:1005600001979383828384819581A681B781AC01B1
:10057000BD0141505040604070404F3F2FEF520747
:100580002FEF62072FE3720708F30BC08183B3825A
:10059000A2820C0D1D1D2E1D3F1D04831583268375
:1005A000378383E08083448155816681778177FF3B
:1005B0001DC0DB01CA0181709070A070B07076958B
:1005C000679557954795842B952BA62BB72B84833E
:1005D0009583A683B78382819381019693838283D7
:1005E00005C0CAE1D1E003C0E40101C0EF01CE01C2
:1005F000CDB7DEB7E0E10C94A309A0E2B0E0E3E000
:10060000F3E00C949509DC01CB018D839E83AF83CD
:10061000B88729833A834B835C83CE010596BE015C
:10062000675E7F4F0E94B507CE010196BE016F5EE7
:100630007F4F0E94B507CE014996BE016F5E7F4F86
:10064000AE01475F5F4F0E94AC010E94DE06462F5D
:10065000572F682F792FCB01BA01A096E2E00C94B6
:10066000B109A0E2B0E0E7E3F3E00C949509DC0106
:10067000CB018D839E83AF83B88729833A834B83D5
:100680005C83CE010596BE01675E7F4F0E94B50771
:10069000CE010196BE016F5E7F4F0E94B5078A8929
:1006A00091E089278A8BCE014996BE016F5E7F4F0C
:1006B000AE01475F5F4F0E94AC010E94DE06462FED
:1006C000572F682F792FCB01BA01A096E2E00C9446
:1006D000B109A0E2B0E0EFE6F3E00C948709DC0199
:1006E000CB018D839E83AF83B88729833A834B8365
:1006F0005C83CE010596BE01675E7F4F0E94B50701
:10070000CE010196BE016F5E7F4F0E94B507998DA5
:10071000923078F089898230C0F0943019F48230B8
:1007200041F4CAC0843019F4923079F4C5C09230D3
:1007300051F481E02A8D9A89291709F480E08A8F83
:10074000CE014996BBC0823051F481E02A8D9A894E
:10075000291709F480E08A8BCE014196AFC04D8CF9
:100760005E8C6F8C78A00D891E892F89388DE0E210
:10077000F0E040E050E0BA01882499245401CC24F0
:10078000DD247601C201817090700097D1F0C00E17
:10079000D11EE21EF31EDB01CA01880D991DAA1DA0
:1007A000BB1D41E050E060E070E0C016D106E206FB
:1007B000F30618F040E050E0BA01480F591F6A1FD5
:1007C0007B1F880C991CAA1CBB1C37FF08C081E04A
:1007D00090E0A0E0B0E0882A992AAA2ABB2A000F5C
:1007E000111F221F331F76946794579447943197B3
:1007F00049F68B8D9C8D2B893C89820F931F029625
:100800009C878B8781E02A8D9A89291709F480E0DB
:100810008A872B853C8517C0CA018170907000972C
:1008200061F0F694E794D794C79480E090E0A0E05C
:10083000B0E8C82AD92AEA2AFB2A769567955795FF
:1008400047952F5F3F4F77FDE7CFC9010BC0440F9E
:10085000551F661F771FF7FC4160CC0CDD1CEE1C9A
:10086000FF1C01974030A0E05A07A0E06A07A0E40F
:100870007A0768F38B879C87DB01CA018F779070BA
:10088000A070B07080349105A105B10561F447FDF9
:100890000AC0C114D104E104F10429F0405C5F4FA7
:1008A0006F4F7F4F40784D875E876F87788B83E0EF
:1008B0008987CE01099602C08AE191E00E94DE0696
:1008C000462F572F682F792FCB01BA01A096E0E170
:1008D0000C94A309A8E1B0E0E0E7F4E00C948F09E0
:1008E000DC01CB018D839E83AF83B88729833A8354
:1008F0004B835C83CE010596BE016F5E7F4F0E94E5
:10090000B507CE010196BE01675F7F4F0E94B50714
:100910009989923008F475C08985823008F474C0D2
:100920002A893A8523272A8B943011F0923021F4BA
:10093000981709F066C06BC0843039F41D8A1E8A8E
:100940001F8A188E1C8A1B8A5CC0823019F484E0CE
:10095000898B57C02B893C898B859C85281B390B3B
:100960003C8B2B8B8D899E89AF89B88DCD84DE849D
:10097000EF84F8888C159D05AE05BF0540F4880FFF
:10098000991FAA1FBB1F215030403C8B2B8BEFE1DE
:10099000F0E000E010E020E030E440E050E0BA0198
:1009A0008C159D05AE05BF0540F0402B512B622BE9
:1009B000732B8C199D09AE09BF093695279517959C
:1009C0000795880F991FAA1FBB1F319749F78A0106
:1009D0009B010F77107020703070003411052105D5
:1009E000310559F447FD09C00097A105B10529F06B
:1009F000405C5F4F6F4F7F4F40784D8B5E8B6F8BAE
:100A0000788FCE01419605C0CE01099602C08AE1D9
:100A100091E00E94DE06462F572F682F792FCB01D9
:100A2000BA016896E8E00C94AB09A8E1B0E0EBE10C
:100A3000F5E00C949509DC01CB018D839E83AF8397
:100A4000B88729833A834B835C83CE010596BE0128
:100A50006F5E7F4F0E94B507CE010196BE01675FB2
:100A60007F4F0E94B5078989823058F0898582308E
:100A700040F0CE014196BE01675F7F4F0E941E0885
:100A800001C08FEF6896E2E00C94B109CF92DF923B
:100A9000EF92FF92CF93DF93CDB7DEB728970FB6D3
:100AA000F894DEBF0FBECDBF6B017C0183E089836C
:100AB000D701C6018827B7FD83959927AA27BB27A9
:100AC000282F8A83C114D104E104F10419F482E0CF
:100AD000898335C08EE190E09C838B83222389F04B
:100AE00080E0C81680E0D80680E0E80680E8F806D6
:100AF00059F1F094E094D094C094C11CD11CE11C35
:100B0000F11CCD82DE82EF82F886C701B6010E9419
:100B10008B0601971816190694F4082E04C0CC0C05
:100B2000DD1CEE1CFF1C0A94D2F7CD82DE82EF8220
:100B3000F8862EE130E0281B390B3C832B83CE0155
:100B400001960E94DE0604C060E070E080E09FEC49
:100B5000382F292F862F972FA32FB22FBC01CD011D
:100B600028960FB6F894DEBF0FBECDBFDF91CF91B0
:100B7000FF90EF90DF90CF900895ACE0B0E0E3EC11
:100B8000F5E00C949309DC01CB0189839A83AB8354
:100B9000BC83CE010196BE016B5F7F4F0E94B507FB
:100BA0008D81823069F1823058F1843039F02F81A3
:100BB000388537FD25C02F31310544F08E818823DB
:100BC00019F100E010E020E030E822C08EE190E072
:100BD000821B930B09851A852B853C8504C03695AD
:100BE0002795179507958A95D2F78E81882381F0EE
:100BF00030952095109501951F4F2F4F3F4F08C0FE
:100C000000E010E0980104C00FEF1FEF2FEF3FE767
:100C1000B801C9012C96E4E00C94AF09A8E0B0E05B
:100C2000E4E1F6E00C948F096B017C011A826115F6
:100C300071058105910519F482E089835EC083E026
:100C400089830EE110E01C830B83CD82DE82EF826C
:100C5000F886C701B6010E948B069C0121503040E6
:100C600037FF38C0EE27FF27E21BF30B81E090E04F
:100C7000A0E0B0E00E2E04C0880F991FAA1FBB1F72
:100C80000A94D2F70197A109B1098C219D21AE21C7
:100C9000BF2141E050E060E070E00097A105B105A0
:100CA00019F440E050E0BA0104C0F694E794D794F8
:100CB000C794EA95D2F7C42AD52AE62AF72ACD8224
:100CC000DE82EF82F8868EE190E0821B930B9C839C
:100CD0008B8313C02115310581F0022E04C0CC0C8A
:100CE000DD1CEE1CFF1C0A94D2F7CD82DE82EF825F
:100CF000F886021B130B1C830B83CE0101960E9406
:100D0000DE06462F572F682F792FCB01BA01289680
:100D1000E8E00C94AB09CF92DF92EF92FF920F9331
:100D20001F938B019C01003080E0180781E02807A9
:100D300080E0380750F40F3F11052105310509F017
:100D400088F480E090E0DC0116C00030E0E01E078F
:100D5000E0E02E07E1E03E0750F480E190E0A0E003
:100D6000B0E009C088E090E0A0E0B0E004C088E115
:100D700090E0A0E0B0E040E250E060E070E0481BAE
:100D8000590B6A0B7B0B6801790104C0F694E79458
:100D9000D794C7948A95D2F7D701C6018E5D9E4F2E
:100DA000FC018081481B510961097109CA011F9129
:100DB0000F91FF90EF90DF90CF900895CF92DF9248
:100DC000EF92FF920F931F93DC0114964D915D916A
:100DD0006D917C9117971196EC9111978C918230BF
:100DE00020F460618FEF90E0A5C0843009F49DC0CD
:100DF000823009F494C0411551056105710509F46B
:100E000091C012968D919C9113972FEF8238920783
:100E10000CF059C022E83FEF281B390B2A3131056D
:100E200064F56A017B01022E04C0F694E794D7941E
:100E3000C7940A94D2F781E090E0A0E0B0E004C04B
:100E4000880F991FAA1FBB1F2A95D2F70197A109E6
:100E5000B10984239523A623B72341E050E060E045
:100E600070E00097A105B10519F440E050E0BA0127
:100E70004C295D296E297F2903C040E050E0BA016A
:100E8000DB01CA018F779070A070B070803491053B
:100E9000A105B10539F447FF09C0405C5F4F6F4FB2
:100EA0007F4F04C0415C5F4F6F4F7F4F81E090E008
:100EB000403020E0520720E0620720E4720738F556
:100EC00080E090E024C0803891057CF58A019B0188
:100ED0000F77107020703070003411052105310536
:100EE00039F447FF09C0405C5F4F6F4F7F4F04C02C
:100EF000415C5F4F6F4F7F4F77FD03C081589F4F1D
:100F000006C0769567955795479580589F4F97E00F
:100F100076956795579547959A95D1F70BC080E0E0
:100F200090E005C080E090E005C08FEF90E040E0E9
:100F300050E0BA01982F979599279795A62FAF77EC
:100F4000E795EE27E79586953A2F392B282F2E2BFC
:100F5000842F952FA32FB22FBC01CD011F910F918C
:100F6000FF90EF90DF90CF900895DC01FB014C9152
:100F700011965C91119712968C911297682F6F774A
:100F800070E0982F991F9927991F13962C9113970A
:100F9000822F880F892B90E0221F2227221F218376
:100FA000009739F5411551056105710511F482E08D
:100FB00029C082E89FEF9383828327E0440F551F67
:100FC000661F771F2A95D1F783E0808309C0440FFD
:100FD000551F661F771F82819381019793838283B8
:100FE000403080E0580780E0680780E4780778F3B5
:100FF00020C08F3F910579F44115510561057105B8
:1010000019F484E08083089564FF03C081E0808345
:1010100010C010820EC08F5790409383828383E06C
:10102000808387E0440F551F661F771F8A95D1F78D
:10103000706444835583668377830895CF93FC015E
:10104000DB019081923008F44CC08C91823008F41E
:1010500048C0943069F42181843039F411968C9120
:10106000119790E0821B910944C02223D1F13FC027
:10107000843021F0923041F48230B1F111968C919C
:1010800011978823A1F12DC0C181823001F1119601
:101090008C911197C817D9F48281938112962D9162
:1010A0003C9113972817390794F082179307BCF0E7
:1010B000448155816681778114968D919D910D9023
:1010C000BC91A02D84179507A607B70718F4CC2369
:1010D00041F00DC0481759076A077B0728F4CC2355
:1010E00031F081E090E005C080E090E002C08FEF39
:1010F0009FEFCF910895CF93DF9300D000D00F9250
:10110000CDB7DEB70E9473010E9416010E941F0135
:101110000E94EE000E94960081E00E94BD0082E3E2
:1011200090E00E947A0080E060E040E051E00E94A0
:10113000D00080E061E040E151E00E94D00088EC06
:1011400090E00E947A00A8EEAA2EA3E0BA2EF894AE
:1011500074986C9A84EF91E00E946B00749A85E019
:1011600090E00E946B00749884E690E00E946B000F
:101170006C9884E690E00E946B0078946091220263
:101180007091230280E090E00E940E062CEA35EC7C
:1011900047E257E30E94690320E030E040E05FE36C
:1011A0000E94690320E030E44DEA53E40E946903A1
:1011B00020E030E04AE754E40E946903162F072F2D
:1011C000F82EE92EA8019701852F942FA32FB22F77
:1011D000BC01CD0120E030E04AE754E40E946A04FB
:1011E0000E947C01C62E862F90E08A9DB0018B9DC7
:1011F000700D9A9D700D1124882777FD8095982F8A
:101200000E9446059B01AC01F801B7018F2F9E2F6C
:10121000A72FB62FBC01CD010E943103162F072F37
:10122000F82EE92EA8019701852F942FA32FB22F16
:10123000BC01CD0120E030E048EC52E40E946A0499
:101240000E947C01D62E84E6689FB0011124882775
:1012500077FD8095982F0E9446059B01AC01F8010F
:10126000B7018F2F9E2FA72FB62FBC01CD010E9453
:101270003103162F072FF82EE92EA8019701852F8D
:10128000942FA32FB22FBC01CD0120E030E040E22B
:1012900051E40E946A040E947C018C2D805D898348
:1012A0008D2D805D8A83862F805D8B83862F90E0D5
:1012B000BC01660F771FF3E0880F991FFA95E1F7DD
:1012C000680F791F882777FD8095982F0E94460523
:1012D0009B01AC01F801B7018F2F9E2FA72FB62FCE
:1012E000BC01CD010E9431030E947C01605D6C83D2
:1012F0001D828AE061E0AE014F5F5F4F0E94D00027
:1013000084E690E00E947A0022CF2F923F924F9283
:101310005F926F927F928F929F92AF92BF92CF9285
:10132000DF92EF92FF920F931F93CF93DF93CDB78E
:10133000DEB7CA1BDB0B0FB6F894DEBF0FBECDBF06
:1013400009942A88398848885F846E847D848C84D7
:101350009B84AA84B984C884DF80EE80FD800C81E0
:101360001B81AA81B981CE0FD11D0FB6F894DEBFC3
:0C1370000FBECDBFED010895F894FFCF33
:10137C00414A4F55554E49562053657269616C0070
:10138C0044697374616E63653A00000000000000EC
:10139C000000000102020303030304040404040418
:1013AC0004040505050505050505050505050505E3
:1013BC0005050606060606060606060606060606C3
:1013CC0006060606060606060606060606060606B1
:1013DC000606070707070707070707070707070793
:1013EC000707070707070707070707070707070781
:1013FC000707070707070707070707070707070771
:10140C000707070707070707070707070707070760
:10141C000707080808080808080808080808080842
:10142C000808080808080808080808080808080830
:10143C000808080808080808080808080808080820
:10144C000808080808080808080808080808080810
:10145C000808080808080808080808080808080800
:10146C0008080808080808080808080808080808F0
:10147C0008080808080808080808080808080808E0
:10148C0008080808080808080808080808080808D0
:02149C0008083E
:00000001FF
