:100000000C944A000C9469000C9469000C946900EB
:100010000C9469000C9469000C9469000C946900BC
:100020000C9469000C9469000C9469000C946900AC
:100030000C9469000C9469000C9469000C9469009C
:100040000C9469000C9469000C9469000C9469008C
:100050000C9469000C9469000C9469000C9469007C
:100060000C9469000C949C000C9469000C94690039
:100070000C9469000C9469000C9469000C9469005C
:100080000C9469000C9469000C9469000C9469004C
:100090000C94690011241FBECFEFD0E1DEBFCDBFAD
:1000A00011E0A0E0B1E0EAEEF3E000E00BBF02C037
:1000B00007900D92AA38B107D9F711E0AAE8B1E08C
:1000C00001C01D92A23AB107E1F70E9478010C9499
:1000D000F3010C940000089520E030E008C00F9276
:1000E0000F900F920F900F920F902F5F3F4F281796
:1000F0003907A9F708950F931F93CF93DF938C01CE
:10010000C0E0D0E005C088EE93E00E946C0021962C
:10011000C017D107C1F7DF91CF911F910F910895BB
:1001200080E480937C0080EF80BB8FE080937E0032
:1001300088EC80937A0008951F920F920FB60F9269
:1001400011248F939F9380917800909179009093E0
:10015000A1018093A00188EC80937A009F918F91F8
:100160000F900FBE0F901F9018958FEF87B918B89A
:100170008FE083BB10BA1DB808958091A0019091C3
:10018000A10123E0893E920718F523E0873B9207FF
:1001900010F523E08538920708F523E083359207B0
:1001A00000F523E081329207F8F422E08F3E9207B7
:1001B000F0F422E08D3B9207E8F422E08B389207BE
:1001C000E0F422E089359207D8F086E591E00895C1
:1001D00086E091E0089580E191E008958AE191E060
:1001E000089584E291E008958EE291E0089588E315
:1001F00091E0089582E491E008958CE491E00895FF
:1002000080E691E0089564E170E00E94CC01CB01AA
:100210000895A29A84E690E00E946C00A298089546
:1002200088E290E00E947B0088E388B90E9409017F
:1002300088E290E00E946C008CE088B988E290E04F
:100240000E946C000E94090181E088B982E090E080
:100250000E947B000E94090186E088B90E94090182
:100260000895A098A19888B90E9409010895A09ABC
:10027000A19888B90E9409010895A098A1986623C1
:1002800011F4805803C0613011F4805488B90E9481
:10029000090108950F931F93CF93DF9300D0CDB73B
:1002A000DEB749835A830E943D014981042F5A8158
:1002B000152F02C00E943701F80181918F01882318
:1002C000C9F70F900F90DF91CF911F910F91089573
:1002D000CF93DF930F92CDB7DEB749830E943D01E4
:1002E0004981842F0E9437010F90DF91CF910895AB
:1002F000CF93DF9300D000D000D0CDB7DEB7DE01C2
:100300001196E0E0F1E086E001900D928150E1F776
:100310000E94B5000E94100181E00E94310182E339
:1003200090E00E947B0080E060E04AE751E00E949C
:100330004A0180E061E04AE651E00E944A0188EC0F
:1003400090E00E947B0000E010E020E3F22E802F7E
:10035000805D8D830A30110589F48C818F5F8C83D9
:10036000863351F48A818F5F8A838A3321F48981AD
:100370008F5F8983FA82FC8200E010E085E061E013
:10038000AE014F5F5F4F0E944A010F5F1F4F85E034
:1003900090E00E947B00DBCF97FB092E07260AD056
:1003A00077FD04D00CD006D000201AF4709561952A
:1003B0007F4F0895F6F7909581959F4F0895AA1B5A
:1003C000BB1B51E107C0AA1FBB1FA617B70710F040
:1003D000A61BB70B881F991F5A95A9F78095909572
:0A03E000BC01CD010895F894FFCF91
:1003EA0030303A3030004F4F4F4F4F4F4F4F4F0042
:1003FA004F4F4F4F4F4F4F4F20004F4F4F4F4F4F81
:10040A004F2020004F4F4F4F4F4F202020004F4F7B
:10041A004F4F4F20202020004F4F4F4F20202020A9
:10042A0020004F4F4F202020202020004F4F202017
:10043A0020202020200020202020202020202000F2
:10044A000000000000000000000054696D653A20B9
:10045A00000000000000000000004C434420444912
:0A046A0053504C41590000000000FF
:00000001FF
