:100000000C944A000C9469000C9469000C946900EB
:100010000C9469000C9469000C9469000C946900BC
:100020000C9469000C9469000C9469000C946900AC
:100030000C9469000C9469000C9469000C9469009C
:100040000C9469000C9469000C9469000C9469008C
:100050000C9469000C9469000C9469000C9469007C
:100060000C9469000C9477000C9469000C9469005E
:100070000C9469000C9469000C9469000C9469005C
:100080000C9469000C9469000C9469000C9469004C
:100090000C94690011241FBECFEFD0E1DEBFCDBFAD
:1000A00011E0A0E0B1E0E8E7FEE000E00BBF02C035
:1000B00007900D92AC36B107D9F711E0ACE6B1E08C
:1000C00001C01D92AE39B107E1F70E94F1040C9412
:1000D0003A070C94000080E480937C0080EF80BBA2
:1000E0008FE080937E0088EC80937A0008951F92C1
:1000F0000F920FB60F9211248F939F9380917800E7
:1001000090917900909392018093910188EC809373
:100110007A009F918F910F900FBE0F901F901895AE
:10012000809195018823F1F4209191013091920101
:100130003093900120938F0142E350E0249FC0014F
:10014000259F900D349F900D11246FEF73E00E9456
:10015000D60670939D0160939C0181E08093950188
:1001600080E41EC08130F9F4209191013091920118
:1001700030939B0120939A0142E350E0249FC001F9
:10018000259F900D349F900D11246FEF73E00E9416
:10019000D60670939701609396011092950181E4C1
:1001A00080937C0008951092950108958FEF87B990
:1001B00018B883BB10BA1AB81DB8089599B129B1FF
:1001C00081E021FD80E090FD03C0882331F408C068
:1001D000813049F080E191E008958BE091E008954D
:1001E00080E091E0089585E091E00895A29A84E688
:1001F00090E00E94CD04A298089588E290E00E94C9
:10020000DC0488E388B90E94F60088E290E00E944E
:10021000CD048CE088B988E290E00E94CD040E9471
:10022000F60081E088B982E090E00E94DC040E9440
:10023000F60086E088B90E94F6000895A098A1987B
:1002400088B90E94F6000895A09AA19888B90E94E2
:10025000F6000895A098A198662311F4805803C071
:10026000613011F4805488B90E94F60008950F930C
:100270001F93CF93DF9300D0CDB7DEB749835A8366
:100280000E942A014981042F5A81152F02C00E9421
:100290002401F80181918F018823C9F70F900F90F5
:1002A000DF91CF911F910F910895CF93DF930F921C
:1002B000CDB7DEB749830E942A014981842F0E946D
:1002C00024010F90DF91CF9108959091D800916013
:1002D0009093D800833089F0843028F4813051F035
:1002E0008230D1F411C0853061F0853040F0863025
:1002F00099F409C01092E20009C086E005C088E0C8
:1003000003C08EE001C082E18093E2008CE0809324
:10031000E30087E38093E40080E0982F9295907F3C
:100320009093ED001092EF001092EE001092F30007
:100330001092F2001092F1001092F0001092F7006B
:100340001092F6001092F5001092F4001092FA004C
:100350001092FA001092FA001092FA001092FA002D
:100360001092FA001092FA001092FA008F5F8F300C
:10037000A1F61092DB001092DF001092DE001092C6
:10038000E1001092E0008091D80082608093D80054
:100390008091D90082FFFCCF08959091D8009160A0
:1003A0009093D8008330C1F0843028F4813051F02C
:1003B000823039F50EC08530C9F0853078F086304E
:1003C00001F516C01092E20084E08093E30083E11F
:1003D00016C01092E2000FC082E00BC082E0809352
:1003E000E2008EE08093E3008BE409C086E001C068
:1003F00088E08093E2008CE08093E30087E38093C1
:10040000E40080E0982F9295907F9093ED001092F9
:10041000EF001092EE001092F3001092F200109292
:10042000F1001092F0001092F7001092F600109276
:10043000F5001092F4001092FA001092FA00109257
:10044000FA001092FA001092FA001092FA0010923C
:10045000FA001092FA008F5F8F30A1F61092DB0045
:100460001092DF001092DE001092E1001092E00086
:1004700080E28093D8008091D80082608093D80079
:100480008091D90082FFFCCF08950F931F93FB0149
:1004900000811181228133818295807F8093ED00DC
:1004A0001092EE001092EF0085818823A1F4D9010B
:1004B000C80153E0B695A795979587955A95D1F7BA
:1004C0008093F3000295000F007E0093F20080916C
:1004D000EF008F7E29C0D901C80155E1B695A795D7
:1004E000979587955A95D1F78093F300D901C80164
:1004F0006DE0B695A795979587956A95D1F7809306
:10050000F200D901C80175E0B695A7959795879532
:100510007A95D1F78093F100000F000F000F009340
:10052000F0008091EF0080618093EF008091EF00F8
:100530009681892B8093EF008091F0004470482BC6
:100540004093F0008091F0008D7F8093F0008091C7
:10055000F0008E7F8093F00080E009C0DF01A80FDB
:10056000B11D17969C9117979093FA008F5F968113
:100570008917A0F38091EF0080648093EF00809151
:10058000EE0086FFFCCF8091EE008F7B8093EE0023
:1005900081E01F910F910895CF92DF92EF92FF9229
:1005A0000F931F93FB018295807F8093ED008091D4
:1005B000EE0085FFFCCF8091EF0084FD1BC015820B
:1005C0008091F30090E0A0E0B0E0BA2FA92F982F1F
:1005D00088274091F20050E060E070E0842B952B7A
:1005E000A62BB72B35E0B695A795979587953A95A5
:1005F000D1F735C081E085838091F30090E0A0E0E1
:10060000B0E0B82FAA2799278827C090F200409120
:10061000F1000091F000DD24EE24FF247601DD24BA
:10062000CC248C299D29AE29BF2910E020E030E0A0
:10063000802B912BA22BB32B50E060E070E0762F43
:10064000652F542F4427842B952BA62BB72B68940A
:1006500012F8B695A795979587951694D1F780834C
:100660009183A283B3838091F0008470848380910E
:10067000EF008F70868340E009C08091FA002E0F52
:100680003F1FD90117968C9317974F5F242F30E0A7
:100690008091EF0090E08F709070281739076CF30D
:1006A0001092EE008091EF0080688093EF008091BF
:1006B000EE008F7D8093EE0081E01F910F91FF90FF
:1006C000EF90DF90CF900895AF92CF92DF92EF92AC
:1006D000FF920F938295807F8093ED001092EE0041
:1006E000DB01CA01222329F5F3E0B695A79597957A
:1006F0008795FA95D1F78093F3004295440F407E99
:100700004093F200D701C60123E0B695A7959795CF
:1007100087952A95D1F78093F700C294CC0C30EEE0
:10072000C322C092F6001092F4008091EF008F7EF9
:100730004DC0E5E1B695A79597958795EA95D1F7D0
:100740008093F300DB01CA01FDE0B695A79597956C
:100750008795FA95D1F78093F200DB01CA0125E075
:10076000B695A795979587952A95D1F78093F1002F
:10077000440F440F440F4093F000D701C60135E108
:10078000B695A795979587953A95D1F78093F700F9
:10079000D701C6014DE0B695A795979587954A95DF
:1007A000D1F78093F600D701C601E5E0B695A7958D
:1007B00097958795EA95D1F78093F500CC0CCC0CF2
:1007C000CC0CC092F4008091EF0080618093EF0028
:1007D0008091EF000F70082B0093EF009091F400D0
:1007E0008A2D8770892B8093F4008091F4008E7F8E
:1007F0008093F4008091EF0080688093EF000F9168
:10080000FF90EF90DF90CF90AF900895AF92CF928E
:10081000DF92EF92FF920F93382F8295807F809323
:10082000ED001092EE008091EF0021FF02C0806287
:1008300001C08F7D8093EF00DB01CA0120FD25C040
:1008400023E0B695A795979587952A95D1F780933C
:10085000F3004295440F407E4093F200D701C60159
:1008600043E0B695A795979587954A95D1F78093DC
:10087000F700C294CC0C50EEC522C092F600109244
:10088000F4008091EF008F7E4DC0E5E1B695A7950D
:1008900097958795EA95D1F78093F300DB01CA011C
:1008A000FDE0B695A79597958795FA95D1F7809332
:1008B000F200DB01CA0125E0B695A79597958795CB
:1008C0002A95D1F78093F100440F440F440F4093D1
:1008D000F000D701C60145E1B695A7959795879594
:1008E0004A95D1F78093F700D701C601EDE0B695A0
:1008F000A79597958795EA95D1F78093F600D7014C
:10090000C601F5E0B695A79597958795FA95D1F725
:100910008093F500CC0CCC0CCC0CC092F4008091F0
:10092000EF0080618093EF008091EF000F70082B43
:100930000093EF009091F4008A2D8770892B8093AB
:10094000F4008091DB00806A8093DB00383050F443
:1009500081E090E002C0880F991F3A95E2F78093FA
:10096000DE000DC0232F30E02850304081E090E0C1
:1009700002C0880F991F2A95E2F78093DF008091CB
:10098000EF0080688093EF0078940F91FF90EF90D4
:10099000DF90CF90AF900895089520E030E008C038
:1009A0000F920F900F920F900F920F902F5F3F4F6B
:1009B00028173907A9F708950F931F93CF93DF9353
:1009C0008C01C0E0D0E005C088EE93E00E94CD0429
:1009D0002196C017D107C1F7DF91CF911F910F91D9
:1009E0000895CF93DF93CDB7DEB72A970FB6F8946B
:1009F000DEBF0FBECDBF0E94D6000E94FD0083E087
:100A00000E9465010E946B007894109294011092EC
:100A1000930181E090E09093990180939801DE0129
:100A20001196E0E2F1E088E001900D928150E1F74B
:100A300083E043E050E060E070E021E008E0CC2497
:100A4000DD247601E5E0AE2E0E94640322243324E7
:100A50003A8629860E94900080919301909194019A
:100A6000AC0133E0440F551F3A95E1F7480F591F89
:100A7000475D5E4F009719F08230910579F480E070
:100A800060E00E94370180E061E044E151E00E94B3
:100A90003701109299011092980104C080E060E043
:100AA0000E94370180919C0190919D0189329105AE
:100AB000A0F529853A8521303105A9F420919301CB
:100AC000309194012F5F3F4F309394012093930115
:100AD0002330310534F023E030E03093940120934B
:100AE00093011A8619868A309105E0F089859A85E6
:100AF0002FEF8F3F9207E9F4809193019091940139
:100B000001979093940180939301181619067CF035
:100B100010929401109293010AC081E090E09A87AC
:100B2000898707C02FEF3FEF3A87298702C01A86CF
:100B3000198680919301909194018330910521F061
:100B40008130910509F0C0C0C0909801D090990102
:100B5000C6016AE070E00E94EA06805D8887C601EF
:100B600064E670E00E94EA066AE070E00E94EA062D
:100B7000605D6F83C60168EE73E00E94EA0664E67A
:100B800070E00E94EA06605D6E83C60160E177E274
:100B90000E94EA0668EE73E00E94EA06605D6D83DB
:100BA000EE24D7FCE094FE2CC701B60120EA36E81B
:100BB00041E050E00E94FD0620E137E240E050E0D5
:100BC0000E94FD06205D2C8390E4892E92E4992EEC
:100BD0009FE0A92EB12CC701B601A50194010E9486
:100BE000FD0620EA36E841E050E00E94FD06205D67
:100BF0002B8320E8422E26E9522E28E9622E712C02
:100C0000C701B601A30192010E94FD06A50194014E
:100C10000E94FD06205D2A83C701B60120E031EE67
:100C200045EF55E00E94FD06A30192010E94FD06DA
:100C3000205D298380E061E0AE014F5F5F4F0E943D
:100C4000370180919601909197018932910590F535
:100C500031E023163104A9F42091980130919901D3
:100C60002F5F3F4F30939901209398012530310534
:100C700034F025E030E0309399012093980122244C
:100C800033248A309105D0F08FEF28168FEF380685
:100C9000D9F48091980190919901019790939901CD
:100CA00080939801181619066CF010929901109211
:100CB000980108C081E0282E312C06C022242A94F5
:100CC000322C02C0222433240E94DE0021E0803036
:100CD000920759F031E08530930751F021E08B30D5
:100CE000920749F423E030E008C021E030E005C07D
:100CF00022E030E002C020E030E04091930190918A
:100D000094014093630110926401F0919801F09373
:100D1000650110926601842F6AE070E00E94EA0685
:100D2000E82FE05DE093670110926801C9016AE075
:100D300070E00E94EA06805D8093690110926A016A
:100D40004093540110925501F093560110925701AF
:100D5000E09358011092590180935A0110925B015F
:100D600082E06DE471E040E00E94450281E06CE5C4
:100D700071E040E00E9445020091930110919401BE
:100D80000130110509F066CE83E060E871E00E9451
:100D9000CC028091870190E001978530910508F0A1
:100DA00059CE109399010093980154CEAA1BBB1BF6
:100DB00051E107C0AA1FBB1FA617B70710F0A61B5B
:100DC000B70B881F991F5A95A9F780959095BC017C
:100DD000CD01089597FB092E07260AD077FD04D090
:100DE000E5DF06D000201AF4709561957F4F0895D5
:100DF000F6F7909581959F4F089597FB092E05264C
:100E00000ED057FD04D014D00AD0001C38F45095F1
:100E10004095309521953F4F4F4F5F4F0895F6F71E
:100E200090958095709561957F4F8F4F9F4F089556
:100E3000A1E21A2EAA1BBB1BFD010DC0AA1FBB1FDE
:100E4000EE1FFF1FA217B307E407F50720F0A21B50
:100E5000B30BE40BF50B661F771F881F991F1A94BD
:100E600069F760957095809590959B01AC01BD01E7
:080E7000CF010895F894FFCFB3
:100E78004C45465400524947485400424F54480094
:100E88004E54480020202020202020202020200010
:100E980030303030303030300050524B00000000DD
:100EA80000005256530000000000004E545200004B
:100EB800000000004452560000000000000200003C
:100EC800000201080000000000000000010000000E
:0C0ED80001010800000000000000000004
:00000001FF
