:100000000C944A000C9469000C9469000C946900EB
:100010000C9469000C9469000C9469000C946900BC
:100020000C9469000C9469000C9469000C946900AC
:100030000C9469000C9469000C9469000C9469009C
:100040000C9469000C9469000C9469000C9469008C
:100050000C9469000C9469000C9469000C9469007C
:100060000C9469000C9469000C9469000C9469006C
:100070000C9469000C9469000C9469000C9469005C
:100080000C9469000C9469000C9469000C9469004C
:100090000C94690011241FBECFEFD0E1DEBFCDBFAD
:1000A00012E0A0E0B1E0E2E0F8E100E00BBF02C046
:1000B00007900D92AE31B107D9F712E0AEE1B2E090
:1000C00001C01D92A634B107E1F70E94040B0C9405
:1000D000FF0B0C9400009091D80091609093D80091
:1000E000833089F0843028F4813051F08230D1F4AB
:1000F00011C0853061F0853040F0863099F409C038
:100100001092E20009C086E005C088E003C08EE0DE
:1001100001C082E18093E2008CE08093E30087E3FA
:100120008093E40080E0982F9295907F9093ED006B
:100130001092EF001092EE001092F3001092F20075
:100140001092F1001092F0001092F7001092F60059
:100150001092F5001092F4001092FA001092FA003A
:100160001092FA001092FA001092FA001092FA001F
:100170001092FA001092FA008F5F8F30A1F6109261
:10018000DB001092DF001092DE001092E10010926E
:10019000E0008091D80082608093D8008091D900DF
:1001A00082FFFCCF08959091D80091609093D80081
:1001B0008330C1F0843028F4813051F0823039F539
:1001C0000EC08530C9F0853078F0863001F516C054
:1001D0001092E20084E08093E30083E116C0109265
:1001E000E2000FC082E00BC082E08093E2008EE06C
:1001F0008093E3008BE409C086E001C088E080932F
:10020000E2008CE08093E30087E38093E40080E0E9
:10021000982F9295907F9093ED001092EF0010929E
:10022000EE001092F3001092F2001092F100109282
:10023000F0001092F7001092F6001092F500109264
:10024000F4001092FA001092FA001092FA00109244
:10025000FA001092FA001092FA001092FA0010922E
:10026000FA008F5F8F30A1F61092DB001092DF0052
:100270001092DE001092E1001092E00080E2809384
:10028000D8008091D80082608093D8008091D900F6
:1002900082FFFCCF08950F931F93FB010081118112
:1002A000228133818295807F8093ED001092EE0051
:1002B0001092EF0085818823A1F4D901C80153E091
:1002C000B695A795979587955A95D1F78093F300A2
:1002D0000295000F007E0093F2008091EF008F7E68
:1002E00029C0D901C80155E1B695A795979587957D
:1002F0005A95D1F78093F300D901C8016DE0B69506
:10030000A795979587956A95D1F78093F200D901C3
:10031000C80175E0B695A795979587957A95D1F719
:100320008093F100000F000F000F0093F000809108
:10033000EF0080618093EF008091EF009681892B20
:100340008093EF008091F0004470482B4093F000C0
:100350008091F0008D7F8093F0008091F0008E7F7F
:100360008093F00080E009C0DF01A80FB11D17964F
:100370009C9117979093FA008F5F96818917A0F34D
:100380008091EF0080648093EF008091EE0086FF03
:10039000FCCF8091EE008F7B8093EE0081E01F9177
:1003A0000F910895CF92DF92EF92FF920F931F93D8
:1003B000FB018295807F8093ED008091EE0085FFA8
:1003C000FCCF8091EF0084FD1BC015828091F3006B
:1003D00090E0A0E0B0E0BA2FA92F982F8827409195
:1003E000F20050E060E070E0842B952BA62BB72B39
:1003F00035E0B695A795979587953A95D1F735C08D
:1004000081E085838091F30090E0A0E0B0E0B82F18
:10041000AA2799278827C090F2004091F100009107
:10042000F000DD24EE24FF247601DD24CC248C2989
:100430009D29AE29BF2910E020E030E0802B912BD0
:10044000A22BB32B50E060E070E0762F652F542F85
:100450004427842B952BA62BB72B689412F8B695BE
:10046000A795979587951694D1F780839183A2835A
:10047000B3838091F000847084838091EF008F704B
:10048000868340E009C08091FA002E0F3F1FD901FA
:1004900017968C9317974F5F242F30E08091EF00D1
:1004A00090E08F709070281739076CF31092EE006F
:1004B0008091EF0080688093EF008091EE008F7D47
:1004C0008093EE0081E01F910F91FF90EF90DF90FD
:1004D000CF900895AF92CF92DF92EF92FF920F9359
:1004E0008295807F8093ED001092EE00DB01CA01BF
:1004F000222329F5F3E0B695A79597958795FA9568
:10050000D1F78093F3004295440F407E4093F20070
:10051000D701C60123E0B695A795979587952A95AB
:10052000D1F78093F700C294CC0C30EEC322C09276
:10053000F6001092F4008091EF008F7E4DC0E5E14F
:10054000B695A79597958795EA95D1F78093F3008F
:10055000DB01CA01FDE0B695A79597958795FA95B9
:10056000D1F78093F200DB01CA0125E0B695A7958B
:10057000979587952A95D1F78093F100440F440F02
:10058000440F4093F000D701C60135E1B695A79519
:10059000979587953A95D1F78093F700D701C601D3
:1005A0004DE0B695A795979587954A95D1F7809395
:1005B000F600D701C601E5E0B695A7959795879512
:1005C000EA95D1F78093F500CC0CCC0CCC0CC09202
:1005D000F4008091EF0080618093EF008091EF0044
:1005E0000F70082B0093EF009091F4008A2D877014
:1005F000892B8093F4008091F4008E7F8093F40027
:100600008091EF0080688093EF000F91FF90EF9052
:10061000DF90CF90AF900895AF92CF92DF92EF929C
:10062000FF920F93382F8295807F8093ED00109278
:10063000EE008091EF0021FF02C0806201C08F7D3B
:100640008093EF00DB01CA0120FD25C023E0B695B1
:10065000A795979587952A95D1F78093F3004295B2
:10066000440F407E4093F200D701C60143E0B695A7
:10067000A795979587954A95D1F78093F700C294EF
:10068000CC0C50EEC522C092F6001092F40080917E
:10069000EF008F7E4DC0E5E1B695A79597958795BC
:1006A000EA95D1F78093F300DB01CA01FDE0B6952E
:1006B000A79597958795FA95D1F78093F200DB017E
:1006C000CA0125E0B695A795979587952A95D1F704
:1006D0008093F100440F440F440F4093F000D70182
:1006E000C60145E1B695A795979587954A95D1F7A7
:1006F0008093F700D701C601EDE0B695A7959795D1
:100700008795EA95D1F78093F600D701C601F5E009
:10071000B695A79597958795FA95D1F78093F500AB
:10072000CC0CCC0CCC0CC092F4008091EF0080611A
:100730008093EF008091EF000F70082B0093EF0083
:100740009091F4008A2D8770892B8093F40080911A
:10075000DB00806A8093DB00383050F481E090E069
:1007600002C0880F991F3A95E2F78093DE000DC012
:10077000232F30E02850304081E090E002C0880F05
:10078000991F2A95E2F78093DF008091EF0080683F
:100790008093EF0078940F91FF90EF90DF90CF90CF
:1007A000AF9008958FEF87B918B89FE093BB10BA48
:1007B0008DB984B908958AE88093900083ED809381
:1007C000910085E39CE0909397008093960086E4E7
:1007D00090E090939D0080939C0008952EB12C7F13
:1007E0002EB961157105A9F4BC0180E090E025E304
:1007F0003CE040E050E00E94580B25E030E040E053
:1008000050E00E948B0B3093990020939800709ACF
:10081000089561307105A9F4BC0180E090E025E302
:100820003CE040E050E00E94580B25E030E040E022
:1008300050E00E948B0B3093990020939800719A9E
:10084000089584E690E090939900809398009093A7
:100850009B0080939A0008958F929F92AF92BF92CF
:10086000CF92DF92EF92FF92BC0180E090E00E9475
:1008700097086B017C0124EB32EA41E15CE30E94C2
:1008800014074B015C01C701B6012EE034E74AE5CD
:100890005AE30E9414072AE939E949E15FE30E941B
:1008A000A8069B01AC01C501B4010E94A80620E086
:1008B00030E04AEF52E40E9414070E942705DC0151
:1008C000CB0190939D0080939C00FF90EF90DF9070
:1008D000CF90BF90AF909F908F90089583309105F7
:1008E00031F08130910531F481E090E0089580E0AD
:1008F00090E0089582E090E008959C014A9783304B
:10090000910578F044EB50E0249FC001259F900DA5
:10091000349F900D112462E370E00E94770BCB01AD
:1009200008958AE590E0089520E030E008C00F9235
:100930000F900F920F900F920F902F5F3F4F28173D
:100940003907A9F708950F931F93CF93DF938C0175
:10095000C0E0D0E005C088EE93E00E9494042196A8
:10096000C017D107C1F7DF91CF911F910F91089563
:10097000A29A84E690E00E949404A298089588E2E6
:1009800090E00E94A30488E388B90E94B80488E23A
:1009900090E00E9494048CE088B988E290E00E9484
:1009A00094040E94B80481E088B982E090E00E943B
:1009B000A3040E94B80486E088B90E94B804089590
:1009C000A098A19888B90E94B8040895A09AA19807
:1009D00088B90E94B8040895A098A198662311F4DC
:1009E000805803C0613011F4805488B90E94B80463
:1009F00008950F931F93CF93DF9300D0CDB7DEB749
:100A000049835A830E94EC044981042F5A81152F8F
:100A100002C00E94E604F80181918F018823C9F782
:100A20000F900F90DF91CF911F910F910895CF9369
:100A3000DF930F92CDB7DEB749830E94EC04498162
:100A4000842F0E94E6040F90DF91CF910895CF92FA
:100A5000DF92EF92FF920F931F936B017C0120E0D6
:100A600030E040E05FE40E94150887FD11C0C70137
:100A7000B60120E030E040E05FE40E94DC060E9426
:100A800046088B019C01005010402040304806C0B1
:100A9000C701B6010E9446088B019C01B801C9013B
:100AA0001F910F91FF90EF90DF90CF900895A0E0FD
:100AB000B0E0EDE5F5E00C94CA0BEC014B01FA0156
:100AC0008881823008F43EC1DB019C91923008F4A9
:100AD00036C1843059F4943009F034C199811196AB
:100AE0008C911197981709F027C12CC1943009F403
:100AF00026C19230A9F4823009F024C1CE0128E049
:100B0000DC010D90CD01DA010D92AD012150C1F74C
:100B1000D40111968C91119799818923818311C1F8
:100B2000823009F40CC1AA80BB80DB0112964D9182
:100B30005C911397CC80DD80EE80FF8014960D9140
:100B40001D912D913C911797C501841B950BDC01DC
:100B500097FF04C0AA27BB27A81BB90BA032B10579
:100B60000CF067C01816190684F5280139010A2E01
:100B700004C076946794579447940A94D2F741E05E
:100B800050E060E070E004C0440F551F661F771FFF
:100B9000AA95D2F741505040604070404023512305
:100BA0006223732381E090E0A0E0B0E0411551059D
:100BB0006105710519F480E090E0DC018C019D0174
:100BC00004291529262937293FC00097E9F1AA0EE3
:100BD000BB1E260137010A2E04C0769467945794F1
:100BE00047940A94D2F741E050E060E070E004C01E
:100BF000440F551F661F771FAA95D2F741505040EA
:100C0000604070404C215D216E217F2181E090E0A9
:100C1000A0E0B0E0411551056105710519F480E0CF
:100C200090E0DC016C017D01C428D528E628F72876
:100C30000BC04A155B0524F400E010E0980104C0E5
:100C40005A01CC24DD2476018981D40111969C912E
:100C50001197891709F445C0882329F00C191D093B
:100C60002E093F0908C0D701C601801B910BA20BBA
:100C7000B30B8C019D0137FD04C01182B382A282A7
:100C80000BC081E08183B382A282309520951095BC
:100C900001951F4F2F4F3F4F0483158326833783C2
:100CA0000DC0880F991FAA1FBB1F84839583A6833D
:100CB000B783828193810197938382838481958115
:100CC000A681B781AC01BD014150504060407040E9
:100CD0004F3F2FEF52072FEF62072FE3720708F302
:100CE0000BC08183B382A2820C0D1D1D2E1D3F1DE2
:100CF000048315832683378383E080834481558171
:100D00006681778177FF1DC0DB01CA018170907019
:100D1000A070B0707695679557954795842B952B65
:100D2000A62BB72B84839583A683B7838281938177
:100D300001969383828305C0C6E1D1E003C0E4013C
:100D400001C0EF01CE01CDB7DEB7E0E10C94E60BB8
:100D5000A0E2B0E0EEEAF6E00C94D80BDC01CB01A7
:100D60008D839E83AF83B88729833A834B835C83CB
:100D7000CE010596BE01675E7F4F0E943E0ACE01FE
:100D80000196BE016F5E7F4F0E943E0ACE014996DA
:100D9000BE016F5E7F4FAE01475F5F4F0E945705F8
:100DA0000E946709462F572F682F792FCB01BA0170
:100DB000A096E2E00C94F40BA0E2B0E0E2EEF6E0E4
:100DC0000C94D80BDC01CB018D839E83AF83B88755
:100DD00029833A834B835C83CE010596BE01675E0F
:100DE0007F4F0E943E0ACE010196BE016F5E7F4F8B
:100DF0000E943E0A8A8991E089278A8BCE01499612
:100E0000BE016F5E7F4FAE01475F5F4F0E94570587
:100E10000E946709462F572F682F792FCB01BA01FF
:100E2000A096E2E00C94F40BA0E2B0E0EAE1F7E077
:100E30000C94CA0BDC01CB018D839E83AF83B887F2
:100E400029833A834B835C83CE010596BE01675E9E
:100E50007F4F0E943E0ACE010196BE016F5E7F4F1A
:100E60000E943E0A998D923078F089898230C0F0D4
:100E7000943019F4823041F4CAC0843019F49230AD
:100E800079F4C5C0923051F481E02A8D9A892917EE
:100E900009F480E08A8FCE014996BBC0823051F4BC
:100EA00081E02A8D9A89291709F480E08A8BCE0186
:100EB0004196AFC04D8C5E8C6F8C78A00D891E89D9
:100EC0002F89388DE0E2F0E040E050E0BA0188245C
:100ED00099245401CC24DD247601C20181709070E4
:100EE0000097D1F0C00ED11EE21EF31EDB01CA0135
:100EF000880D991DAA1DBB1D41E050E060E070E027
:100F0000C016D106E206F30618F040E050E0BA0140
:100F1000480F591F6A1F7B1F880C991CAA1CBB1CF9
:100F200037FF08C081E090E0A0E0B0E0882A992A6D
:100F3000AA2ABB2A000F111F221F331F7694679421
:100F400057944794319749F68B8D9C8D2B893C891A
:100F5000820F931F02969C878B8781E02A8D9A8946
:100F6000291709F480E08A872B853C8517C0CA01C0
:100F700081709070009761F0F694E794D794C794CD
:100F800080E090E0A0E0B0E8C82AD92AEA2AFB2A4B
:100F900076956795579547952F5F3F4F77FDE7CF3C
:100FA000C9010BC0440F551F661F771FF7FC416036
:100FB000CC0CDD1CEE1CFF1C01974030A0E05A0752
:100FC000A0E06A07A0E47A0768F38B879C87DB01BF
:100FD000CA018F779070A070B07080349105A10520
:100FE000B10561F447FD0AC0C114D104E104F10464
:100FF00029F0405C5F4F6F4F7F4F40784D875E8791
:101000006F87788B83E08987CE01099602C086E1DD
:1010100091E00E946709462F572F682F792FCB0147
:10102000BA01A096E0E10C94E60BA8E1B0E0EBE198
:10103000F8E00C94D80BDC01CB018D839E83AF8349
:10104000B88729833A834B835C83CE010596BE0122
:101050006F5E7F4F0E943E0ACE010196BE01675F20
:101060007F4F0E943E0A8989823058F089858230FC
:1010700040F0CE014196BE01675F7F4F0E94A70AF4
:1010800001C08FEF6896E2E00C94F40BACE0B0E0A6
:10109000ECE4F8E00C94D60BDC01CB0189839A8355
:1010A000AB83BC83CE010196BE016B5F7F4F0E9474
:1010B0003E0A8D81823069F1823058F1843039F0F6
:1010C0002F81388537FD25C02F31310544F08E81C1
:1010D000882319F100E010E020E030E822C08EE122
:1010E00090E0821B930B09851A852B853C8504C0F3
:1010F00036952795179507958A95D2F78E8188237F
:1011000081F030952095109501951F4F2F4F3F4F3F
:1011100008C000E010E0980104C00FEF1FEF2FEFB0
:101120003FE7B801C9012C96E4E00C94F20BA8E06B
:10113000B0E0EDE9F8E00C94D20B6B017C011A826F
:10114000611571058105910519F482E089835EC0FE
:1011500083E089830EE110E01C830B83CD82DE8265
:10116000EF82F886C701B6010E9414099C01215044
:10117000304037FF38C0EE27FF27E21BF30B81E03A
:1011800090E0A0E0B0E00E2E04C0880F991FAA1FC7
:10119000BB1F0A94D2F70197A109B1098C219D21A7
:1011A000AE21BF2141E050E060E070E00097A10572
:1011B000B10519F440E050E0BA0104C0F694E79498
:1011C000D794C794EA95D2F7C42AD52AE62AF72AF3
:1011D000CD82DE82EF82F8868EE190E0821B930B57
:1011E0009C838B8313C02115310581F0022E04C02E
:1011F000CC0CDD1CEE1CFF1C0A94D2F7CD82DE82E3
:10120000EF82F886021B130B1C830B83CE01019621
:101210000E946709462F572F682F792FCB01BA01FB
:101220002896E8E00C94EE0BCF92DF92EF92FF92BB
:101230000F931F938B019C01003080E0180781E021
:10124000280780E0380750F40F3F110521053105CC
:1012500009F088F480E090E0DC0116C00030E0E0A6
:101260001E07E0E02E07E1E03E0750F480E190E049
:10127000A0E0B0E009C088E090E0A0E0B0E004C0E9
:1012800088E190E0A0E0B0E040E250E060E070E093
:10129000481B590B6A0B7B0B6801790104C0F6945B
:1012A000E794D794C7948A95D2F7D701C601825E96
:1012B0009E4FFC018081481B510961097109CA01D7
:1012C0001F910F91FF90EF90DF90CF900895CF92F4
:1012D000DF92EF92FF920F931F93DC0114964D91D2
:1012E0005D916D917C9117971196EC9111978C916E
:1012F000823020F460618FEF90E0A5C0843009F463
:101300009DC0823009F494C04115510561057105F5
:1013100009F491C012968D919C9113972FEF82380A
:1013200092070CF059C022E83FEF281B390B2A31F5
:10133000310564F56A017B01022E04C0F694E7943E
:10134000D794C7940A94D2F781E090E0A0E0B0E08F
:1013500004C0880F991FAA1FBB1F2A95D2F70197B7
:10136000A109B10984239523A623B72341E050E0C6
:1013700060E070E00097A105B10519F440E050E08D
:10138000BA014C295D296E297F2903C040E050E055
:10139000BA01DB01CA018F779070A070B070803401
:1013A0009105A105B10539F447FF09C0405C5F4FC5
:1013B0006F4F7F4F04C0415C5F4F6F4F7F4F81E0A5
:1013C00090E0403020E0520720E0620720E47207FE
:1013D00038F580E090E024C0803891057CF58A01E2
:1013E0009B010F77107020703070003411052105BB
:1013F000310539F447FF09C0405C5F4F6F4F7F4FA5
:1014000004C0415C5F4F6F4F7F4F77FD03C0815831
:101410009F4F06C0769567955795479580589F4F83
:1014200097E076956795579547959A95D1F70BC0B4
:1014300080E090E005C080E090E005C08FEF90E094
:1014400040E050E0BA01982F979599279795A62FDD
:10145000AF77E795EE27E79586953A2F392B282F1A
:101460002E2B842F952FA32FB22FBC01CD011F91BE
:101470000F91FF90EF90DF90CF900895DC01FB017A
:101480004C9111965C91119712968C911297682F3E
:101490006F7770E0982F991F9927991F13962C91B9
:1014A0001397822F880F892B90E0221F2227221F5B
:1014B0002183009739F5411551056105710511F436
:1014C00082E029C082E89FEF9383828327E0440F64
:1014D000551F661F771F2A95D1F783E0808309C0C7
:1014E000440F551F661F771F828193810197938355
:1014F0008283403080E0580780E0680780E4780706
:1015000078F320C08F3F910579F4411551056105AD
:10151000710519F484E08083089564FF03C081E0BD
:10152000808310C010820EC08F57904093838283B7
:1015300083E0808387E0440F551F661F771F8A95DD
:10154000D1F7706444835583668377830895CF937E
:10155000FC01DB019081923008F44CC08C91823008
:1015600008F448C0943069F42181843039F411962C
:101570008C91119790E0821B910944C02223D1F1F4
:101580003FC0843021F0923041F48230B1F11196A5
:101590008C9111978823A1F12DC0C181823001F176
:1015A00011968C911197C817D9F482819381129664
:1015B0002D913C9113972817390794F082179307C0
:1015C000BCF0448155816681778114968D919D91FF
:1015D0000D90BC91A02D84179507A607B70718F4A6
:1015E000CC2341F00DC0481759076A077B0728F440
:1015F000CC2331F081E090E005C080E090E002C0B3
:101600008FEF9FEFCF9108958FEF85B90E94D2039E
:101610000E94BF040E94DB0385E00E946B0085E00E
:101620000E94D30080E041E050E060E070E021E003
:1016300008E0CC24DD247601E5E0AE2E0E946A02AB
:10164000789480E060E040E051E00E94F90484EF8B
:1016500091E00E94A304CFEF80E060E047E051E01A
:101660000E94F90480E063E372E00E94D20180E00E
:1016700061E04EE352E00E94F90483E061E040E45F
:1016800052E00E94F90480913A0290E00E946E04B8
:10169000BC0180913C0290E00E94EE0380914002E8
:1016A000813311F0833311F415B8D6CFC5B9D4CF37
:1016B000629FD001739FF001829FE00DF11D649F36
:1016C000E00DF11D929FF00D839FF00D749FF00DC2
:1016D000659FF00D9927729FB00DE11DF91F639F63
:1016E000B00DE11DF91FBD01CF0111240895AA1B02
:1016F000BB1B51E107C0AA1FBB1FA617B70710F0FD
:10170000A61BB70B881F991F5A95A9F7809590952E
:10171000BC01CD01089597FB092E05260ED057FD7B
:1017200004D014D00AD0001C38F450954095309560
:1017300021953F4F4F4F5F4F0895F6F79095809555
:10174000709561957F4F8F4F9F4F0895A1E21A2E9C
:10175000AA1BBB1BFD010DC0AA1FBB1FEE1FFF1F55
:10176000A217B307E407F50720F0A21BB30BE40BA5
:10177000F50B661F771F881F991F1A9469F76095EC
:101780007095809590959B01AC01BD01CF010895A6
:101790002F923F924F925F926F927F928F929F9281
:1017A000AF92BF92CF92DF92EF92FF920F931F936F
:1017B000CF93DF93CDB7DEB7CA1BDB0B0FB6F89420
:1017C000DEBF0FBECDBF09942A88398848885F8460
:1017D0006E847D848C849B84AA84B984C884DF80D1
:1017E000EE80FD800C811B81AA81B981CE0FD11DB5
:1017F0000FB6F894DEBF0FBECDBFED010895F8948B
:02180000FFCF18
:101802006265666F72650043555252454E54204DD3
:101812004F4445203A200000000000000000000173
:10182200020203030303040404040404040405057C
:101832000505050505050505050505050505060654
:101842000606060606060606060606060606060636
:101852000606060606060606060606060606070724
:101862000707070707070707070707070707070706
:1018720007070707070707070707070707070707F6
:1018820007070707070707070707070707070707E6
:1018920007070707070707070707070707070808D4
:1018A20008080808080808080808080808080808B6
:1018B20008080808080808080808080808080808A6
:1018C2000808080808080808080808080808080896
:1018D2000808080808080808080808080808080886
:1018E2000808080808080808080808080808080876
:1018F2000808080808080808080808080808080866
:101902000808080808080808080808080808080855
:0E191200080808080808080808080808080857
:00000001FF
