:100000000C944A000C9469000C9469000C946900EB
:100010000C9469000C9469000C9469000C946900BC
:100020000C9469000C9469000C9469000C946900AC
:100030000C9469000C9469000C9469000C9469009C
:100040000C9469000C9469000C9469000C9469008C
:100050000C9469000C9469000C9469000C9469007C
:100060000C9469000C9469000C9469000C9469006C
:100070000C9469000C9469000C9469000C9469005C
:100080000C9469000C9469000C9469000C9469004C
:100090000C94690011241FBECFEFD0E1DEBFCDBFAD
:1000A00012E0A0E0B1E0EEE7F7E100E00BBF02C034
:1000B00007900D92AE33B107D9F712E0AEE3B2E08C
:1000C00001C01D92A738B107E1F70E945D080C94AA
:1000D000BD0B0C9400008FEF87B988B983BB9CEFF0
:1000E00090BB8DB91AB80895089520E030E008C09B
:1000F0000F920F900F920F900F920F902F5F3F4F24
:1001000028173907A9F708950F931F93CF93DF930B
:100110008C01C0E0D0E005C088EE93E00E9475003D
:100120002196C017D107C1F7DF91CF911F910F9191
:10013000089580915202882349F0E0913401F091B2
:10014000350180E091E091838083089581E0809380
:1001500052026091550270915602882777FD809572
:10016000982F0E94A505DC01CB0180938302909318
:100170008402A0938502B09386020E94BD01609123
:10018000690270916A0280916B0290916C020E94E8
:100190001C06DC01CB0190935402809353026091C2
:1001A0006D0270916E0280916F02909170020E94B8
:1001B00056036EB910925202089599B129B181E0A7
:1001C00021FD80E090FD03C0882319F404C0813034
:1001D00021F08FEF089580E0089581E00895A29ABC
:1001E00084E690E00E947500A298089588E290E06D
:1001F0000E94840088E388B90E94EF0088E290E0C2
:100200000E9475008CE088B988E290E00E94750039
:100210000E94EF0081E088B982E090E00E948400B3
:100220000E94EF0086E088B90E94EF000895A09830
:10023000A19888B90E94EF000895A09AA19888B962
:100240000E94EF000895A098A198662311F48058A9
:1002500003C0613011F4805488B90E94EF00089502
:100260000F931F93CF93DF9300D0CDB7DEB74983B1
:100270005A830E9423014981042F5A81152F02C0FD
:100280000E941D01F80181918F018823C9F70F9009
:100290000F90DF91CF911F910F910895CF93DF932E
:1002A0000F92CDB7DEB749830E9423014981842F85
:1002B0000E941D010F90DF91CF91089580918202DD
:1002C000823039F08330F1F08130A9F580938102DA
:1002D00037C0809381028093820210927E02109236
:1002E0007D0280E090E0A0E4B0E48093610290930E
:1002F0006202A0936302B093640280E090E0AFE5F5
:10030000B3E432C0809381028093820210927E0215
:1003100010927D0280E090E0A0E0B0E48093610262
:1003200090936202A0936302B093640280E090E035
:10033000AFE3B3E419C081E080938102809382022D
:1003400010927E0210927D0280E090E0A0E8BFE370
:100350008093610290936202A0936302B09364025F
:1003600080E090E0AEEFB2E4809365029093660285
:10037000A0936702B093680208950F931F93CF93E1
:10038000E0913401F091350142815381648175819E
:1003900040937102509372026093730270937402DF
:1003A0008091790290917A02A0917B02B0917C02B7
:1003B0008A019B01081B190B2A0B3B0BD901C801B1
:1003C000009375021093760220937702309378029F
:1003D0004093790250937A0260937B0270937C027F
:1003E00020917D0230917E02A90160E070E0480F0B
:1003F000591F6A1F7B1F403014E0510710E061074E
:1004000010E0710718F4820F931F02C08FEF93E082
:1004100090937E0280937D0280917F02882321F455
:1004200081E080937F02B8C0C0918002C13021F08A
:10043000C23009F0B1C011C0609183027091840292
:10044000809185029091860220E030E0A9010E940F
:100450004305882309F0A5C09FC060918302709175
:100460008402809185029091860220E030E040E88D
:100470005FE30E9443058823B1F41092810281E07A
:100480008093800280E090E0A0E8B0E48093610275
:1004900090936202A0936302B093640280E090E0C4
:1004A000AFE7B3E470C080918102823049F18330BC
:1004B00009F449C0813009F072C080917D029091A9
:1004C0007E0223E0883E920708F46BC083E08093AD
:1004D00081028093820210927E0210927D0280E05F
:1004E00090E0A0E0B0E48093610290936202A09358
:1004F0006302B093640280E090E0AFE3B3E443C0F2
:1005000080917D0290917E0233E0883E930708F44B
:1005100048C081E0809381028093820210927E0223
:1005200010927D0280E090E0A0E8BFE3809361023A
:1005300090936202A0936302B093640280E090E023
:10054000AEEFB2E420C080917D0290917E02E3E0A4
:10055000883E9E0730F1C0938102C09382021092C0
:100560007E0210927D0280E090E0A0E4B0E48093EF
:10057000610290936202A0936302B093640280E0F0
:1005800090E0AFE5B3E48093650290936602A09398
:100590006702B093680205C082E0809380020E94E7
:1005A0005E018091610290916202A0916302B0911C
:1005B00064028093690290936A02A0936B02B093E5
:1005C0006C028091650290916602A0916702B091E1
:1005D000680280936D0290936E02A0936F02B093B5
:1005E0007002E0913401F091350182819381A48100
:1005F000B5810196A11DB11D82839383A483B58328
:100600000097A105B10559F486819781A085B18530
:100610000196A11DB11D86839783A087B187CF91D5
:100620001F910F910895E0913401F09135018AE016
:10063000DF011D928A95E9F728E0E1E6F2E0DF01AB
:10064000822F1D928A95E9F782E1E1E7F2E0DF016E
:100650001D928A95E9F780E090E0DC0180938302A7
:1006600090938402A0938502B0938602E9E6F2E0BB
:10067000DF011D922A95E9F7E0913401F0913501EF
:1006800082819381A481B5818093710290937202DB
:10069000A0937302B09374028093790290937A02CC
:1006A000A0937B02B0937C0208950895CF92DF92CD
:1006B000EF92FF920F931F936B017C0120E030E0DB
:1006C00040E05FE40E94740587FD11C0C701B601D8
:1006D00020E030E040E05FE40E940B050E941C0631
:1006E0008B019C01005010402040304806C0C701DB
:1006F000B6010E941C068B019C01B801C9011F9123
:100700000F91FF90EF90DF90CF900895A0E0B0E0C0
:10071000ECE8F3E00C94B208EC014B01FA0188819B
:10072000823008F43EC1DB019C91923008F436C15E
:10073000843059F4943009F034C1998111968C9128
:100740001197981709F027C12CC1943009F426C1DC
:100750009230A9F4823009F024C1CE0128E0DC01F6
:100760000D90CD01DA010D92AD012150C1F7D401F8
:1007700011968C91119799818923818311C18230BF
:1007800009F40CC1AA80BB80DB0112964D915C91EB
:100790001397CC80DD80EE80FF8014960D911D9123
:1007A0002D913C911797C501841B950BDC0197FF98
:1007B00004C0AA27BB27A81BB90BA032B1050CF0B7
:1007C00067C01816190684F5280139010A2E04C0DD
:1007D00076946794579447940A94D2F741E050E096
:1007E00060E070E004C0440F551F661F771FAA9594
:1007F000D2F7415050406040704040235123622363
:10080000732381E090E0A0E0B0E04115510561055F
:10081000710519F480E090E0DC018C019D01042950
:100820001529262937293FC00097E9F1AA0EBB1EDA
:10083000260137010A2E04C0769467945794479492
:100840000A94D2F741E050E060E070E004C0440F49
:10085000551F661F771FAA95D2F741505040604040
:1008600070404C215D216E217F2181E090E0A0E06D
:10087000B0E0411551056105710519F480E090E083
:10088000DC016C017D01C428D528E628F7280BC0BF
:100890004A155B0524F400E010E0980104C05A01F9
:1008A000CC24DD2476018981D40111969C91119785
:1008B000891709F445C0882329F00C191D092E0950
:1008C0003F0908C0D701C601801B910BA20BB30BD7
:1008D0008C019D0137FD04C01182B382A2820BC03E
:1008E00081E08183B382A282309520951095019595
:1008F0001F4F2F4F3F4F04831583268337830DC02F
:10090000880F991FAA1FBB1F84839583A683B78373
:100910008281938101979383828384819581A681CB
:10092000B781AC01BD0141505040604070404F3F25
:100930002FEF52072FEF62072FE3720708F30BC068
:100940008183B382A2820C0D1D1D2E1D3F1D0483C9
:1009500015832683378383E08083448155816681B4
:10096000778177FF1DC0DB01CA0181709070A07094
:10097000B0707695679557954795842B952BA62B48
:10098000B72B84839583A683B78382819381019655
:100990009383828305C0C6E3D1E003C0E40101C0B4
:1009A000EF01CE01CDB7DEB7E0E10C94CE08A0E2B6
:1009B000B0E0EDEDF4E00C94C008DC01CB018D83D8
:1009C0009E83AF83B88729833A834B835C83CE01B0
:1009D0000596BE01675E7F4F0E949707CE01019684
:1009E000BE016F5E7F4F0E949707CE014996BE0100
:1009F0006F5E7F4FAE01475F5F4F0E9486030E948C
:100A0000C006462F572F682F792FCB01BA01A09629
:100A1000E2E00C94DC08A0E2B0E0E1E1F5E00C9447
:100A2000C008DC01CB018D839E83AF83B887298307
:100A30003A834B835C83CE010596BE01675E7F4F90
:100A40000E949707CE010196BE016F5E7F4F0E9404
:100A500097078A8991E089278A8BCE014996BE0142
:100A60006F5E7F4FAE01475F5F4F0E9486030E941B
:100A7000C006462F572F682F792FCB01BA01A096B9
:100A8000E2E00C94DC08A8E1B0E0E9E4F5E00C94C5
:100A9000C008DC01CB018D839E83AF83B887298397
:100AA0003A834B835C83CE010596BE016F5E7F4F18
:100AB0000E949707CE010196BE01675F7F4F0E949B
:100AC00097078989823058F08985823040F0CE01BD
:100AD0004196BE01675F7F4F0E94000801C081E020
:100AE0006896E2E00C94DC08A8E1B0E0EAE7F5E003
:100AF0000C94C008DC01CB018D839E83AF83B88743
:100B000029833A834B835C83CE010596BE016F5ED9
:100B10007F4F0E949707CE010196BE01675F7F4F0E
:100B20000E9497078989823058F08985823040F089
:100B3000CE014196BE01675F7F4F0E94000801C051
:100B40008FEF6896E2E00C94DC08CF92DF92EF9290
:100B5000FF92CF93DF93CDB7DEB728970FB6F89407
:100B6000DEBF0FBECDBF6B017C0183E08983D7015F
:100B7000C6018827B7FD83959927AA27BB27282F69
:100B80008A83C114D104E104F10419F482E0898359
:100B900035C08EE190E09C838B83222389F080E036
:100BA000C81680E0D80680E0E80680E8F80659F12B
:100BB000F094E094D094C094C11CD11CE11CF11CB1
:100BC000CD82DE82EF82F886C701B6010E946D06F3
:100BD00001971816190694F4082E04C0CC0CDD1CDD
:100BE000EE1CFF1C0A94D2F7CD82DE82EF82F886DB
:100BF0002EE130E0281B390B3C832B83CE0101967C
:100C00000E94C00604C060E070E080E09FEC382FD6
:100C1000292F862F972FA32FB22FBC01CD01289605
:100C20000FB6F894DEBF0FBECDBFDF91CF91FF901E
:100C3000EF90DF90CF900895ACE0B0E0E2E2F6E014
:100C40000C94BE08DC01CB0189839A83AB83BC83FF
:100C5000CE010196BE016B5F7F4F0E9497078D8189
:100C6000823069F1823058F1843039F02F81388533
:100C700037FD25C02F31310544F08E81882319F1CD
:100C800000E010E020E030E822C08EE190E0821B1E
:100C9000930B09851A852B853C8504C036952795CD
:100CA000179507958A95D2F78E81882381F0309524
:100CB0002095109501951F4F2F4F3F4F08C000E022
:100CC00010E0980104C00FEF1FEF2FEF3FE7B801CE
:100CD000C9012C96E4E00C94DA08CF92DF92EF92EF
:100CE000FF920F931F938B019C01003080E0180747
:100CF00081E0280780E0380750F40F3F11052105F7
:100D0000310509F088F480E090E0DC0116C0003085
:100D1000E0E01E07E0E02E07E1E03E0750F480E14E
:100D200090E0A0E0B0E009C088E090E0A0E0B0E092
:100D300004C088E190E0A0E0B0E040E250E060E074
:100D400070E0481B590B6A0B7B0B6801790104C0EA
:100D5000F694E794D794C7948A95D2F7D701C60141
:100D6000825C9E4FFC018081481B51096109710919
:100D7000CA011F910F91FF90EF90DF90CF900895DF
:100D8000CF92DF92EF92FF920F931F93DC011496A4
:100D90004D915D916D917C9117971196EC91119702
:100DA0008C91823020F460618FEF90E0A5C0843098
:100DB00009F49DC0823009F494C0411551056105C4
:100DC000710509F491C012968D919C9113972FEFA4
:100DD000823892070CF059C022E83FEF281B390BEC
:100DE0002A31310564F56A017B01022E04C0F694B4
:100DF000E794D794C7940A94D2F781E090E0A0E0FA
:100E0000B0E004C0880F991FAA1FBB1F2A95D2F714
:100E10000197A109B10984239523A623B72341E0B3
:100E200050E060E070E00097A105B10519F440E0E2
:100E300050E0BA014C295D296E297F2903C040E0AA
:100E400050E0BA01DB01CA018F779070A070B070DA
:100E500080349105A105B10539F447FF09C0405C14
:100E60005F4F6F4F7F4F04C0415C5F4F6F4F7F4FAD
:100E700081E090E0403020E0520720E0620720E46B
:100E8000720738F580E090E024C0803891057CF549
:100E90008A019B010F7710702070307000341105AB
:100EA0002105310539F447FF09C0405C5F4F6F4FA2
:100EB0007F4F04C0415C5F4F6F4F7F4F77FD03C092
:100EC00081589F4F06C076956795579547958058EE
:100ED0009F4F97E076956795579547959A95D1F7E7
:100EE0000BC080E090E005C080E090E005C08FEF8F
:100EF00090E040E050E0BA01982F97959927979598
:100F0000A62FAF77E795EE27E79586953A2F392BF1
:100F1000282F2E2B842F952FA32FB22FBC01CD016C
:100F20001F910F91FF90EF90DF90CF900895DC011B
:100F3000FB014C9111965C91119712968C9112972E
:100F4000682F6F7770E0982F991F9927991F139634
:100F50002C911397822F880F892B90E0221F222734
:100F6000221F2183009739F541155105610571054F
:100F700011F482E029C082E89FEF9383828327E007
:100F8000440F551F661F771F2A95D1F783E0808392
:100F900009C0440F551F661F771F828193810197F7
:100FA00093838283403080E0580780E0680780E4C4
:100FB000780778F320C08F3F910579F441155105EA
:100FC0006105710519F484E08083089564FF03C00E
:100FD00081E0808310C010820EC08F5790409383B1
:100FE000828383E0808387E0440F551F661F771F4D
:100FF0008A95D1F770644483558366837783089517
:10100000CF93FC01DB019081923008F44CC08C91AD
:10101000823008F448C0943069F42181843039F476
:1010200011968C91119790E0821B910944C0222364
:10103000D1F13FC0843021F0923041F48230B1F1DF
:1010400011968C9111978823A1F12DC0C181823016
:1010500001F111968C911197C817D9F4828193816F
:1010600012962D913C9113972817390794F0821707
:101070009307BCF0448155816681778114968D91E8
:101080009D910D90BC91A02D84179507A607B707D9
:1010900018F4CC2341F00DC0481759076A077B07A5
:1010A00028F4CC2331F081E090E005C080E090E0AE
:1010B00002C08FEF9FEFCF9108950E946B000E94B6
:1010C000F60081E00E94170182E390E00E94840014
:1010D00080E060E044E251E00E94300180E061E0A5
:1010E00044E151E00E94300188EC90E00E948400CD
:1010F0007894CEE3D2E008E011E00E94DD00809316
:101100005502109256020E94990080E060E044E28D
:1011100051E00E94300100D000D000D0EDB7FEB702
:101120003196ADB7BEB71296DC93CE931197138369
:1011300002838091530290915402958384830E948C
:10114000E7088DB79EB706960FB6F8949EBF0FBE00
:101150008DBF80E061E04EE352E00E943001CDCFD0
:101160002F923F924F925F926F927F928F929F92B7
:10117000AF92BF92CF92DF92EF92FF920F931F93A5
:10118000CF93DF93CDB7DEB7CA1BDB0B0FB6F89456
:10119000DEBF0FBECDBF09942A88398848885F8496
:1011A0006E847D848C849B84AA84B984C884DF8007
:1011B000EE80FD800C811B81AA81B981CE0FD11DEB
:1011C0000FB6F894DEBF0FBECDBFED0108950F93AB
:1011D0001F93CF93DF93CDB7DEB72E970FB6F8945A
:1011E000DEBF0FBECDBF0D891E8986E08C831A83BA
:1011F00009838FEF9FE79E838D83AE01475E5F4F2C
:10120000CE0101966F89788D0E941609EF81F885CD
:10121000E00FF11F10822E960FB6F894DEBF0FBEBE
:10122000CDBFDF91CF911F910F9108952F923F92E3
:101230004F925F926F927F928F929F92AF92BF92E6
:10124000CF92DF92EF92FF920F931F93CF93DF9392
:10125000CDB7DEB72D970FB6F894DEBF0FBECDBF6A
:101260003C017D876C875A01FC01178216828381BD
:1012700081FFC8C12E010894411C511CF3019381C8
:10128000EC85FD8593FD859193FF8191FD87EC872A
:10129000882309F4B3C1853241F493FD859193FF0E
:1012A0008191FD87EC87853229F490E0B3010E949B
:1012B000330BE4CFFF24EE2410E01032B0F48B3275
:1012C00069F08C3228F4803251F0833271F40BC013
:1012D0008D3239F0803349F411602CC012601460F3
:1012E00029C0186027C0106125C017FD2EC0282F07
:1012F00020532A3098F416FF08C08F2D880FF82E3F
:10130000FF0CFF0CF80EF20E15C08E2D880FE82E84
:10131000EE0CEE0CE80EE20E10620CC08E3221F4E0
:1013200016FD6CC1106406C08C3611F4106802C042
:10133000883659F4EC85FD8593FD859193FF819165
:10134000FD87EC87882309F0B8CF982F9554933008
:1013500018F09052933038F424E030E0A20EB31E1F
:101360003FE339830FC0833631F0833781F0833513
:1013700009F05AC022C0F5018081898322E030E063
:10138000A20EB31E21E0C22ED12C420114C092E065
:10139000292E312C2A0C3B1CF5018080918016FFF0
:1013A00003C06F2D70E002C06FEF7FEFC4010E9499
:1013B000280B6C0151011F7715C082E0282E312CBB
:1013C0002A0C3B1CF5018080918016FF03C06F2D15
:1013D00070E002C06FEF7FEFC4010E941D0B6C0133
:1013E0001068510113FD1CC006C080E290E0B301FB
:1013F0000E94330BEA948E2D90E0C816D906A8F30C
:101400000FC0F40117FD859117FF81914F0190E006
:10141000B3010E94330BE110EA940894C108D1088B
:10142000C114D10471F7E7C0843611F0893651F543
:10143000F50117FF07C080819181A281B38124E06B
:1014400030E008C080819181AA2797FDA095BA2F2E
:1014500022E030E0A20EB31E012F0F76B7FF08C0C6
:10146000B095A095909581959F4FAF4FBF4F006865
:10147000BC01CD01A2012AE030E00E945F0BD82E12
:10148000D4183FC0853721F41F7E2AE030E020C009
:10149000197F8F36A9F0803720F4883509F0AEC067
:1014A0000BC0803721F0883709F0A8C001C0106157
:1014B00014FF09C0146007C014FF08C0166006C0FE
:1014C00028E030E005C020E130E002C020E132E059
:1014D000F50117FF07C0608171818281938144E02B
:1014E00050E006C06081718180E090E042E050E011
:1014F000A40EB51EA2010E945F0BD82ED418012F96
:101500000F7706FF09C00E7FDF1430F404FF06C01A
:1015100002FD04C00F7E02C01D2D01C01F2D802FB3
:1015200090E004FF0CC0FE01ED0DF11D2081203381
:1015300011F4097E09C002FF06C01E5F05C086784F
:101540009070009709F01F5F802E992403FD12C050
:1015500000FF0DC0FD2C1E1550F4FE0CF11A1E2DBF
:1015600006C080E290E0B3010E94330B1F5F1E159E
:10157000C0F304C01E1510F4E11A01C0EE2484FE6D
:101580000FC080E390E0B3010E94330B82FE1FC0C6
:1015900081FE03C088E590E010C088E790E00DC0B0
:1015A000C40186789070009791F081FC02C080E2BF
:1015B00001C08BE207FD8DE290E0B3010E94330B86
:1015C00006C080E390E0B3010E94330BFA94DF146D
:1015D000C0F3DA94F201ED0DF11D808190E0B301CA
:1015E0000E94330BDD20A9F706C080E290E0B30132
:1015F0000E94330BEA94EE20C1F740CEF3018681BE
:10160000978102C08FEF9FEF2D960FB6F894DEBF43
:101610000FBECDBFDF91CF911F910F91FF90EF9043
:10162000DF90CF90BF90AF909F908F907F906F9002
:101630005F904F903F902F900895FC01059061506E
:1016400070400110D8F7809590958E0F9F1F0895D8
:10165000FC016150704001900110D8F78095909581
:101660008E0F9F1F08950F931F93CF93DF938C01CD
:10167000EB018B8181FF1BC082FF0DC02E813F815A
:101680008C819D812817390764F4E881F9810193E1
:10169000F983E88306C0E885F985802F09950097CE
:1016A00031F48E819F8101969F838E8302C00FEF5C
:1016B0001FEFC801DF91CF911F910F910895FA019B
:1016C000AA27283051F1203181F1E8946F936E7F81
:1016D0006E5F7F4F8F4F9F4FAF4FB1E03ED0B4E072
:1016E0003CD0670F781F891F9A1FA11D680F791FB3
:1016F0008A1F911DA11D6A0F711D811D911DA11DC4
:1017000020D009F468943F912AE0269F11243019D3
:10171000305D3193DEF6CF010895462F4770405D6E
:101720004193B3E00FD0C9F7F6CF462F4F70405D1D
:101730004A3318F0495D31FD4052419302D0A9F778
:10174000EACFB4E0A6959795879577956795BA9572
:10175000C9F700976105710508959B01AC010A2E38
:1017600006945795479537952795BA95C9F7620F0F
:0E177000731F841F951FA01D0895F894FFCFCE
:10177E004F76657272756E006D6F6465203A202526
:10178E00303464004D4F4445203A200000000000E4
:10179E00000000004C43445F5445535400000000C9
:1017AE0000000000570200000000000000000001D1
:1017BE0002020303030304040404040404040505E1
:1017CE0005050505050505050505050505050606B9
:1017DE00060606060606060606060606060606069B
:1017EE000606060606060606060606060606070789
:1017FE00070707070707070707070707070707076B
:10180E00070707070707070707070707070707075A
:10181E00070707070707070707070707070707074A
:10182E000707070707070707070707070707080838
:10183E00080808080808080808080808080808081A
:10184E00080808080808080808080808080808080A
:10185E0008080808080808080808080808080808FA
:10186E0008080808080808080808080808080808EA
:10187E0008080808080808080808080808080808DA
:10188E0008080808080808080808080808080808CA
:10189E0008080808080808080808080808080808BA
:0E18AE000808080808080808080808080808BC
:00000001FF
