:100000000C944A000C9469000C9469000C946900EB
:100010000C9469000C9469000C9469000C946900BC
:100020000C9469000C9469000C9469000C946900AC
:100030000C9469000C9469000C9469000C9469009C
:100040000C9469000C9469000C9469000C9469008C
:100050000C9469000C9469000C9469000C9469007C
:100060000C9469000C946E040C9469000C94690063
:100070000C9469000C9469000C9469000C9469005C
:100080000C9469000C9469000C9469000C9469004C
:100090000C94690011241FBECFEFD0E1DEBFCDBFAD
:1000A00011E0A0E0B1E0ECEAF0E100E00BBF02C03B
:1000B00007900D92AC31B107D9F711E0ACE1B1E096
:1000C00001C01D92AA34B107E1F70E94D5040C9437
:1000D00054080C940000089520E030E008C00F920E
:1000E0000F900F920F900F920F902F5F3F4F281796
:1000F0003907A8F308950F931F93CF93DF938C01D3
:10010000C0E0D0E005C088EE93E00E946C0021962C
:10011000C017D107C0F3DF91CF911F910F910895C0
:10012000A29A84E690E00E946C00A298089588E26A
:1001300090E00E947B0088E388B90E94900088E2EA
:1001400090E00E946C008CE088B988E290E00E9408
:100150006C000E94900081E088B982E090E00E94EB
:100160007B000E94900086E088B90E94900008956C
:10017000A098A19888B90E9490000895A09AA1988B
:1001800088B90E9490000895A098A198662311F460
:10019000805803C0613011F4805488B90E949000E7
:1001A0000895EF92FF920F931F93DF93CF9300D0A8
:1001B000CDB7DEB749835A830E94C40049815A8172
:1001C0008A0102C00E94BE00F80181918F0188233C
:1001D000C9F70F900F90CF91DF911F910F91FF9072
:1001E000EF900895DF93CF930F92CDB7DEB7498399
:1001F0000E94C4004981842F0E94BE000F90CF91BD
:10020000DF9108959091D80091609093D800833049
:1002100089F0843028F4813051F08230D1F411C05B
:10022000853061F0853040F0863099F409C0109235
:10023000E20009C086E005C088E003C08EE001C08E
:1002400082E18093E2008CE08093E30087E3809377
:10025000E40080E0982F9295907F9093ED001092AB
:10026000EF001092EE001092F3001092F200109244
:10027000F1001092F0001092F7001092F600109228
:10028000F5001092F4001092FA001092FA00109209
:10029000FA001092FA001092FA001092FA001092EE
:1002A000FA001092FA008F5F8F30A1F61092DB00F7
:1002B0001092DF001092DE001092E1001092E00038
:1002C0008091D80082608093D8008091D90082FF0D
:1002D000FCCF08959091D80091609093D80083301E
:1002E000C1F0843028F4813051F0823039F50EC0ED
:1002F0008530C9F0853078F0863001F516C010924F
:10030000E20084E08093E30083E116C01092E200F3
:100310000FC082E00BC082E08093E2008EE0809309
:10032000E3008BE409C086E001C088E08093E2002E
:100330008CE08093E30087E38093E40080E0982FD3
:100340009295907F9093ED001092EF001092EE0046
:100350001092F3001092F2001092F1001092F0004F
:100360001092F7001092F6001092F5001092F4002F
:100370001092FA001092FA001092FA001092FA000D
:100380001092FA001092FA001092FA001092FA00FD
:100390008F5F8F30A1F61092DB001092DF00109279
:1003A000DE001092E1001092E00080E28093D8001D
:1003B0008091D80082608093D8008091D90082FF1C
:1003C000FCCF0895FB01642F20813181428153814C
:1003D0008295807F8093ED001092EE001092EF00E6
:1003E00085818823A1F4DA01C90133E0B695A79588
:1003F000979587953A95D1F78093F3002295220F30
:10040000207E2093F2008091EF008F7E29C0DA01D8
:10041000C90175E1B695A795979587957A95D1F716
:100420008093F300DA01C9017DE0B695A795979511
:1004300087957A95D1F78093F200DA01C90135E00A
:10044000B695A795979587953A95D1F78093F10042
:10045000220F220F220F2093F0008091EF00806185
:100460008093EF008091EF009681892B8093EF00BD
:100470008091F0006470682B6093F0008091F00030
:100480008D7F8093F0008091F0008E7F8093F0004C
:1004900080E009C0DF01A80FB11D17969C91179746
:1004A0009093FA008F5F96818917A0F38091EF00F7
:1004B00080648093EF008091EE0086FFFCCF8091F6
:1004C000EE008F7B8093EE0081E00895FF920F9302
:1004D0001F93FB018295807F8093ED008091EE0059
:1004E00085FFFCCF8091EF0084FD1BC015828091B9
:1004F000F30090E0A0E0B0E0BA2FA92F982F882752
:100500002091F20030E040E050E0822B932BA42BAE
:10051000B52B05E0B695A795979587950A95D1F7E0
:1005200035C081E085838091F30090E0A0E0B0E0E9
:10053000B82FAA27992788270091F200F090F100A0
:100540004091F00010E020E030E0980111270027F2
:10055000802B912BA22BB32B50E060E070E0842B1A
:10056000952BA62BB72B2F2D30E040E050E0542FD9
:10057000432F322F2227822B932BA42BB52B43E022
:10058000B695A795979587954A95D1F780839183DE
:10059000A283B3838091F000847084838091EF0004
:1005A0008F70868340E009C08091FA002E0F3F1FB4
:1005B000D90117968C9317974F5F242F30E08091C5
:1005C000EF0090E08F709070281739076CF310924D
:1005D000EE008091EF0080688093EF008091EE0044
:1005E0008F7D8093EE0081E01F910F91FF90089521
:1005F000AF92CF92DF92EF92FF920F938295807F1E
:100600008093ED001092EE00222339F5DB01CA0140
:1006100033E0B695A795979587953A95D1F780934E
:10062000F3004295440F407E4093F200D701C6018B
:1006300023E0B695A795979587952A95D1F780934E
:10064000F700C294CC0CA0EECA22C092F600109221
:10065000F4008091EF008F7E4FC0DB01CA01F5E10D
:10066000B695A79597958795FA95D1F78093F3005E
:10067000DB01CA01EDE0B695A79597958795EA95B8
:10068000D1F78093F200DB01CA0165E0B695A7952A
:10069000979587956A95D1F78093F100440F440FA1
:1006A000440F4093F000D701C60155E1B695A795D8
:1006B000979587955A95D1F78093F700D701C60192
:1006C0004DE0B695A795979587954A95D1F7809374
:1006D000F600D701C60135E0B695A79597958795A1
:1006E0003A95D1F78093F500CC0CCC0CCC0CC09291
:1006F000F4008091EF0080618093EF008091EF0023
:100700000F70082B0093EF009091F4008A2D8770F2
:10071000892B8093F4008091EF0080688093EF0034
:100720000F91FF90EF90DF90CF90AF900895AF9230
:10073000CF92DF92EF92FF920F931F93902F382F5B
:100740003295307F3093ED001092EE0021FF04C00F
:100750003091EF00306203C03091EF003F7D309365
:10076000EF0020FD27C08A019B0153E036952795B5
:10077000179507955A95D1F70093F3004295440FCA
:10078000407E4093F200A701960103E056954795FD
:10079000379527950A95D1F72093F700C294CC0C92
:1007A00010EEC122C092F6001092F4002091EF00EA
:1007B0002F7E4FC08A019B01B5E13695279517958D
:1007C0000795BA95D1F70093F3008A019B01ADE03C
:1007D0003695279517950795AA95D1F70093F200BE
:1007E0008A019B01F5E03695279517950795FA95AF
:1007F000D1F70093F100440F440F440F4093F000F1
:10080000A7019601E5E15695479537952795EA9515
:10081000D1F72093F700A70196017DE05695479503
:10082000379527957A95D1F72093F600A701960181
:1008300065E056954795379527956A95D1F72093AA
:10084000F500CC0CCC0CCC0CC092F4002091EF0045
:1008500020612093EF002091EF009F70922B9093E6
:10086000EF002091F4009A2D9770922B9093F40052
:100870009091DB00906A9093DB00883050F421E087
:1008800030E002C0220F331F8A95E2F72093DE008A
:100890000BC090E0089721E030E002C0220F331F28
:1008A0008A95E2F72093DF008091EF0080688093C3
:1008B000EF0078941F910F91FF90EF90DF90CF9011
:1008C000AF90089580E480937C0080EF80BB8FE040
:1008D00080937E0088EC80937A0008951F920F9297
:1008E0000FB60F9211248F939F938091780090916F
:1008F0007900909333018093320188EC80937A00E1
:100900009F918F910F900FBE0F901F90189580911F
:1009100043018823F1F42091320130913301309367
:1009200031012093300142E350E0249FC001259F14
:10093000900D349F900D11246FEF73E00E946005BD
:10094000709349016093480181E08093430180E402
:100950001EC08130F9F4209132013091330130937F
:1009600047012093460142E350E0249FC001259FA8
:10097000900D349F900D11246FEF73E00E9460057D
:1009800070934501609344011092430181E4809388
:100990007C0008951092430108958FEF87B918B82D
:1009A0008FE083BB10BA1DB80895CF92DF92EF920B
:1009B000FF920F931F93DF93CF93CDB7DEB72A97A4
:1009C0000FB6F894DEBF0FBECDBF0E94CD040E94CB
:1009D000970083E00E9402010E94620478948E01D5
:1009E0000F5F1F4F70E0E72E71E0F72E66E0C62E16
:1009F000D12CCC0EDD1E0E94870400D000D000D088
:100A0000EDB7FEB73196ADB7BEB712961C930E93F5
:100A10001197F382E2828091480190914901958378
:100A200084830E9474058DB79EB706960FB6F8941E
:100A30009EBF0FBE8DBF0E948704809148018093A6
:100A4000140100D000D000D0EDB7FEB73196ADB79D
:100A5000BEB71296DC92CE921197F382E282809119
:100A6000440190914501958384830E94740580918F
:100A70004401809315018DB79EB706960FB6F89482
:100A80009EBF0FBE8DBF80E060E043E051E00E945A
:100A9000D10084E060E0A8010E94D10080E061E024
:100AA00048E051E00E94D10084E061E0A6010E948C
:100AB000D10081E06DE071E040E00E94E2019BCF57
:100AC000AA1BBB1B51E107C0AA1FBB1FA617B70774
:100AD00010F0A61BB70B881F991F5A95A9F7809590
:100AE0009095BC01CD0108950F931F93DF93CF9391
:100AF000CDB7DEB72E970FB6F894DEBF0FBECDBFD1
:100B00000D891E8986E08C831A8309838FEF9FE706
:100B10009E838D839E01275E3F4FCE0101966F8994
:100B2000788DA9010E94A405EF81F885E00FF11FDF
:100B300010822E960FB6F894DEBF0FBECDBFCF91B8
:100B4000DF911F910F9108952F923F924F925F92E4
:100B50006F927F928F929F92AF92BF92CF92DF92CD
:100B6000EF92FF920F931F93DF93CF93CDB7DEB732
:100B70002C970FB6F894DEBF0FBECDBF6C011B01E2
:100B80008A01FC0117821682838181FFD1C12E0167
:100B90000894411C511CF6019381F10193FD85914C
:100BA00093FF81911F01882309F4BEC1853239F476
:100BB00093FD859193FF81911F01853229F490E087
:100BC000B6010E94CA07E7CFEE24FF2420E02032BE
:100BD000B0F48B3269F08C3228F4803251F08332D9
:100BE00071F40BC08D3239F0803349F421602CC090
:100BF0002260246029C0286027C0206125C027FD0D
:100C00002CC0382F30533A3098F426FF08C08E2D70
:100C1000880FE82EEE0CEE0CE80EE30E15C08F2DBB
:100C2000880FF82EFF0CFF0CF80EF30E20620CC09C
:100C30008E3221F426FD78C1206406C08C3611F472
:100C4000206802C0883649F4F10193FD859193FF35
:100C500081911F01882309F0BACF982F95549330C2
:100C600018F09052933028F40C5F1F4FFFE3F98384
:100C70000DC0833631F0833771F0833509F060C0E1
:100C800022C0F801808189830E5F1F4F420171E00D
:100C9000A72EB12C16C062E0662E712C600E711E5C
:100CA000F8018080918026FF03C06E2D70E002C0A5
:100CB0006FEF7FEFC4012C870E94BF075C018301A7
:100CC0002C852F7717C052E0652E712C600E711E97
:100CD000F8018080918026FF03C06E2D70E002C075
:100CE0006FEF7FEFC4012C870E94B4075C012C8555
:100CF0002068830123FD20C008C080E290E0B60197
:100D00002C870E94CA07FA942C858F2D90E0A81694
:100D1000B90698F311C0F40127FD859127FF819151
:100D20004F0190E0B6012C870E94CA072C85F11074
:100D3000FA940894A108B108A114B10461F7F1C0B4
:100D4000843611F0893649F527FF08C0F801608123
:100D50007181828193810C5F1F4F09C0F80160810E
:100D60007181882777FD8095982F0E5F1F4F4FE682
:100D7000B42EB22297FF09C0909580957095619529
:100D80007F4F8F4F9F4FF0E8BF2AA2012AE030E04B
:100D90000E94F607782E741845C0853731F43FEE6F
:100DA000B32EB2222AE030E025C099EFB92EB2224C
:100DB0008F36C1F0803720F4883509F0B5C00DC0FA
:100DC000803721F0883709F0AFC002C020E1B22A95
:100DD000B4FE0BC084E0B82A08C0B4FE09C0E6E047
:100DE000BE2A06C028E030E005C020E130E002C0A5
:100DF00020E132E0B7FE08C0F80160817181828194
:100E000093810C5F1F4F07C0F8016081718180E002
:100E100090E00E5F1F4FA2010E94F607782E741813
:100E2000FFE7BF22B6FE0BC02EEFB2227E1438F4CD
:100E3000B4FE07C0B2FC05C08FEEB82202C0A72CDA
:100E400001C0AE2C8B2D90E0B4FE0DC0FE01E70D6D
:100E5000F11D2081203319F4E9EEBE2209C0A394CC
:100E6000B2FE06C004C086789070009709F0A39483
:100E70008B2C9924B3FC14C0B0FE0FC0AF1428F41F
:100E8000E72CEF0CEA18AF2C08C0E72C06C080E274
:100E900090E0B6010E94CA07A394AF14C0F304C047
:100EA000AF1410F4FA1801C0FF2484FE0FC080E3D1
:100EB00090E0B6010E94CA0782FE1FC081FE03C0F7
:100EC00088E590E010C088E790E00DC0C401867806
:100ED0009070009791F081FC02C080E201C08BE22B
:100EE000B7FC8DE290E0B6010E94CA0706C080E31D
:100EF00090E0B6010E94CA07EA947E14C0F37A9487
:100F0000F201E70DF11D808190E0B6010E94CA0751
:100F10007720A9F706C080E290E0B6010E94CA07D8
:100F2000FA94FF20C1F737CEF6012681378102C03F
:100F30002FEF3FEFC9012C960FB6F894DEBF0FBE1E
:100F4000CDBFCF91DF911F910F91FF90EF90DF9078
:100F5000CF90BF90AF909F908F907F906F905F9059
:100F60004F903F902F900895FC0105906150704084
:100F70000110D8F7809590958E0F9F1F0895FC0162
:100F80006150704001900110D8F7809590958E0FB8
:100F90009F1F08950F931F93CF93DF938C01EB0155
:100FA0008B8181FF1BC082FF0DC02E813F818C8110
:100FB0009D812817390764F4E881F9810193F98349
:100FC000E88306C0E885F985802F0995009731F4FC
:100FD0008E819F8101969F838E8302C00FEF1FEF4A
:100FE000C801DF91CF911F910F910895FA01AA27AF
:100FF000283051F1203181F1E8946F936E7F6E5F5C
:101000007F4F8F4F9F4FAF4FB1E03ED0B4E03CD009
:10101000670F781F891F9A1FA11D680F791F8A1FEC
:10102000911DA11D6A0F711D811D911DA11D20D053
:1010300009F468943F912AE0269F11243019305D0D
:101040003193DEF6CF010895462F4770405D4193FE
:10105000B3E00FD0C9F7F6CF462F4F70405D4A334B
:1010600018F0495D31FD4052419302D0A9F7EACF13
:10107000B4E0A6959795879577956795BA95C9F742
:1010800000976105710508959B01AC010A2E069435
:101090005795479537952795BA95C9F7620F731FEE
:0C10A000841F951FA01D0895F894FFCF39
:1010AC0025640059203A200058203A200001000005
:0C10BC000000010800000000000000001F
:00000001FF
