:100000000C944A000C9469000C9469000C946900EB
:100010000C9469000C9469000C9469000C946900BC
:100020000C9469000C9469000C9469000C946900AC
:100030000C9469000C9469000C9469000C9469009C
:100040000C9469000C9469000C9469000C9469008C
:100050000C9469000C9469000C9469000C9469007C
:100060000C9469000C949F000C9469000C94690036
:100070000C9469000C9469000C9469000C9469005C
:100080000C9469000C9469000C9469000C9469004C
:100090000C94690011241FBECFEFD0E1DEBFCDBFAD
:1000A00011E0A0E0B1E0E4ECF1E100E00BBF02C040
:1000B00007900D92A436B107D9F711E0A4E6B1E09C
:1000C00001C01D92A33AB107E1F70E94EF040C941E
:1000D000E0080C94000080E480937C0080EF80BBFB
:1000E0008FE080937E0088EC80937A0008951092D0
:1000F000C80088E98093C90086E08093CA00109206
:10010000CD0087E68093CC0008958091C80087FFDA
:10011000FCCF8091CE0008959091C80095FFFCCF50
:100120008093CE000895CF93DF93EC0102C00E942C
:100130008C0089918823D9F7DF91CF9108951F9280
:100140000F920FB60F9211248F939F938091780096
:100150009091790090938A018093890188EC809333
:100160007A009F918F910F900FBE0F901F9018955E
:100170002091890130918A0130938C0120938B0169
:1001800042E350E0249FC001259F900D349F900DC5
:1001900011246FEF73E00E94F60570939001609355
:1001A0008F0108958FEF87B918B883BB10BA1AB8BA
:1001B0001DB884B985B908959CB12CB181E021FDA9
:1001C00080E090FD03C0882331F408C0813049F0FD
:1001D00089E091E0089586E091E0089580E091E063
:1001E000089583E091E00895A29A84E690E00E9449
:1001F000CB04A298089588E290E00E94DA0488E394
:1002000088B90E94F40088E290E00E94CB048CE060
:1002100088B988E290E00E94CB040E94F40081E05B
:1002200088B982E090E00E94DA040E94F40086E03F
:1002300088B90E94F4000895A098A19888B90E94F6
:10024000F4000895A09AA19888B90E94F400089536
:10025000A098A198662311F4805803C0613011F46E
:10026000805488B90E94F40008950F931F93CF9390
:10027000DF9300D0CDB7DEB749835A830E942801AF
:100280004981042F5A81152F02C00E942201F801D2
:1002900081918F018823C9F70F900F90DF91CF9143
:1002A0001F910F910895CF93DF930F92CDB7DEB7D3
:1002B00049830E9428014981842F0E9422010F90C6
:1002C000DF91CF9108959091D80091609093D800DC
:1002D000833089F0843028F4813051F08230D1F4B9
:1002E00011C0853061F0853040F0863099F409C046
:1002F0001092E20009C086E005C088E003C08EE0ED
:1003000001C082E18093E2008CE08093E30087E308
:100310008093E40080E0982F9295907F9093ED0079
:100320001092EF001092EE001092F3001092F20083
:100330001092F1001092F0001092F7001092F60067
:100340001092F5001092F4001092FA001092FA0048
:100350001092FA001092FA001092FA001092FA002D
:100360001092FA001092FA008F5F8F30A1F610926F
:10037000DB001092DF001092DE001092E10010927C
:10038000E0008091D80082608093D8008091D900ED
:1003900082FFFCCF08959091D80091609093D8008F
:1003A0008330C1F0843028F4813051F0823039F547
:1003B0000EC08530C9F0853078F0863001F516C062
:1003C0001092E20084E08093E30083E116C0109273
:1003D000E2000FC082E00BC082E08093E2008EE07A
:1003E0008093E3008BE409C086E001C088E080933D
:1003F000E2008CE08093E30087E38093E40080E0F8
:10040000982F9295907F9093ED001092EF001092AC
:10041000EE001092F3001092F2001092F100109290
:10042000F0001092F7001092F6001092F500109272
:10043000F4001092FA001092FA001092FA00109252
:10044000FA001092FA001092FA001092FA0010923C
:10045000FA008F5F8F30A1F61092DB001092DF0060
:100460001092DE001092E1001092E00080E2809392
:10047000D8008091D80082608093D8008091D90004
:1004800082FFFCCF08950F931F93FB010081118120
:10049000228133818295807F8093ED001092EE005F
:1004A0001092EF0085818823A1F4D901C80153E09F
:1004B000B695A795979587955A95D1F78093F300B0
:1004C0000295000F007E0093F2008091EF008F7E76
:1004D00029C0D901C80155E1B695A795979587958B
:1004E0005A95D1F78093F300D901C8016DE0B69514
:1004F000A795979587956A95D1F78093F200D901D2
:10050000C80175E0B695A795979587957A95D1F727
:100510008093F100000F000F000F0093F000809116
:10052000EF0080618093EF008091EF009681892B2E
:100530008093EF008091F0004470482B4093F000CE
:100540008091F0008D7F8093F0008091F0008E7F8D
:100550008093F00080E009C0DF01A80FB11D17965D
:100560009C9117979093FA008F5F96818917A0F35B
:100570008091EF0080648093EF008091EE0086FF11
:10058000FCCF8091EE008F7B8093EE0081E01F9185
:100590000F910895CF92DF92EF92FF920F931F93E6
:1005A000FB018295807F8093ED008091EE0085FFB6
:1005B000FCCF8091EF0084FD1BC015828091F30079
:1005C00090E0A0E0B0E0BA2FA92F982F88274091A3
:1005D000F20050E060E070E0842B952BA62BB72B47
:1005E00035E0B695A795979587953A95D1F735C09B
:1005F00081E085838091F30090E0A0E0B0E0B82F27
:10060000AA2799278827C090F2004091F100009115
:10061000F000DD24EE24FF247601DD24CC248C2997
:100620009D29AE29BF2910E020E030E0802B912BDE
:10063000A22BB32B50E060E070E0762F652F542F93
:100640004427842B952BA62BB72B689412F8B695CC
:10065000A795979587951694D1F780839183A28368
:10066000B3838091F000847084838091EF008F7059
:10067000868340E009C08091FA002E0F3F1FD90108
:1006800017968C9317974F5F242F30E08091EF00DF
:1006900090E08F709070281739076CF31092EE007D
:1006A0008091EF0080688093EF008091EE008F7D55
:1006B0008093EE0081E01F910F91FF90EF90DF900B
:1006C000CF900895AF92CF92DF92EF92FF920F9367
:1006D0008295807F8093ED001092EE00DB01CA01CD
:1006E000222329F5F3E0B695A79597958795FA9576
:1006F000D1F78093F3004295440F407E4093F2007F
:10070000D701C60123E0B695A795979587952A95B9
:10071000D1F78093F700C294CC0C30EEC322C09284
:10072000F6001092F4008091EF008F7E4DC0E5E15D
:10073000B695A79597958795EA95D1F78093F3009D
:10074000DB01CA01FDE0B695A79597958795FA95C7
:10075000D1F78093F200DB01CA0125E0B695A79599
:10076000979587952A95D1F78093F100440F440F10
:10077000440F4093F000D701C60135E1B695A79527
:10078000979587953A95D1F78093F700D701C601E1
:100790004DE0B695A795979587954A95D1F78093A3
:1007A000F600D701C601E5E0B695A7959795879520
:1007B000EA95D1F78093F500CC0CCC0CCC0CC09210
:1007C000F4008091EF0080618093EF008091EF0052
:1007D0000F70082B0093EF009091F4008A2D877022
:1007E000892B8093F4008091F4008E7F8093F40035
:1007F0008091EF0080688093EF000F91FF90EF9061
:10080000DF90CF90AF900895AF92CF92DF92EF92AA
:10081000FF920F93382F8295807F8093ED00109286
:10082000EE008091EF0021FF02C0806201C08F7D49
:100830008093EF00DB01CA0120FD25C023E0B695BF
:10084000A795979587952A95D1F78093F3004295C0
:10085000440F407E4093F200D701C60143E0B695B5
:10086000A795979587954A95D1F78093F700C294FD
:10087000CC0C50EEC522C092F6001092F40080918C
:10088000EF008F7E4DC0E5E1B695A79597958795CA
:10089000EA95D1F78093F300DB01CA01FDE0B6953C
:1008A000A79597958795FA95D1F78093F200DB018C
:1008B000CA0125E0B695A795979587952A95D1F712
:1008C0008093F100440F440F440F4093F000D70190
:1008D000C60145E1B695A795979587954A95D1F7B5
:1008E0008093F700D701C601EDE0B695A7959795DF
:1008F0008795EA95D1F78093F600D701C601F5E018
:10090000B695A79597958795FA95D1F78093F500B9
:10091000CC0CCC0CCC0CC092F4008091EF00806128
:100920008093EF008091EF000F70082B0093EF0091
:100930009091F4008A2D8770892B8093F400809128
:10094000DB00806A8093DB00383050F481E090E077
:1009500002C0880F991F3A95E2F78093DE000DC020
:10096000232F30E02850304081E090E002C0880F13
:10097000991F2A95E2F78093DF008091EF0080684D
:100980008093EF0078940F91FF90EF90DF90CF90DD
:10099000AF900895089520E030E008C00F920F90C6
:1009A0000F920F900F920F902F5F3F4F281739072C
:1009B000A9F708950F931F93CF93DF938C01C0E0A5
:1009C000D0E005C088EE93E00E94CB042196C017CA
:1009D000D107C1F7DF91CF911F910F910895CF9368
:1009E000DF9300D000D00F92CDB7DEB70E94D200C7
:1009F0000E94FB0083E00E9463010E946B007894D8
:100A000081E060E04CE051E00E94350180E061E06F
:100A100046E151E00E94350110928E0110928D0145
:100A2000109293011092920183E043E050E060E065
:100A300070E021E008E0CC24DD247601E5E0AE2E74
:100A40000E94620384E044E050E060E070E021E056
:100A50000E946203F1E0AF2EB12CA2E08A2E912C0D
:100A60006E010894C11CD11CBEE16B2EB1E07B2E3F
:100A7000EE24EA940E94B8000E94DC008C0181E020
:100A80000030180729F4B0928E01A0928D0111C098
:100A900091E00330190729F490928E0180928D0124
:100AA00008C0A1E006301A0721F410928E011092BE
:100AB0008D01F0908F0100D000D000D0EDB7FEB7CF
:100AC0003196ADB7BEB71296DC92CE921197738273
:100AD0006282F48215820E940A068DB79EB706963E
:100AE0000FB6F8949EBF0FBE8DBF89E060E0A801ED
:100AF0000E9435018DE060E0A6010E9435018091E1
:100B00008D0190918E01AC01440F551F480F591F64
:100B1000440F551F440F551F4F5D5E4F89E061E044
:100B20000E94350190918D0190935B0110925C01C0
:100B30008091920180935D0110925E0110925F019D
:100B400010926001109261011092620190934C0129
:100B500010924D0180934E0110924F01F09250017E
:100B600010925101109252011092530182E065E4FB
:100B700071E040E00E94430281E064E571E040E002
:100B80000E94430280918D0190918E010097A9F4FB
:100B900084E064E971E00E94CA0240919D01413005
:100BA00011F415B803C0442309F4E5B850E0405DE2
:100BB0005F4F8DE061E00E94350180918D01909141
:100BC0008E01009709F456CF83E06AE771E00E9436
:100BD000CA028091830180939201109293018091C7
:100BE000810180938D0110928E0144CFAA1BBB1B03
:100BF00051E107C0AA1FBB1FA617B70710F0A61B1D
:100C0000B70B881F991F5A95A9F780959095BC013D
:100C1000CD0108950F931F93CF93DF93CDB7DEB728
:100C20002E970FB6F894DEBF0FBECDBF0D891E897B
:100C300086E08C831A8309838FEF9FE79E838D83E1
:100C4000AE01475E5F4FCE0101966F89788D0E949D
:100C50003906EF81F885E00FF11F10822E960FB64E
:100C6000F894DEBF0FBECDBFDF91CF911F910F91E2
:100C700008952F923F924F925F926F927F928F9240
:100C80009F92AF92BF92CF92DF92EF92FF920F931B
:100C90001F93CF93DF93CDB7DEB72D970FB6F894A0
:100CA000DEBF0FBECDBF3C017D876C875A01FC01C2
:100CB00017821682838181FFC8C12E010894411CCE
:100CC000511CF3019381EC85FD8593FD859193FF84
:100CD0008191FD87EC87882309F4B3C1853241F403
:100CE00093FD859193FF8191FD87EC87853229F4EF
:100CF00090E0B3010E945608E4CFFF24EE2410E0F8
:100D00001032B0F48B3269F08C3228F4803251F01A
:100D1000833271F40BC08D3239F0803349F41160A5
:100D20002CC01260146029C0186027C0106125C053
:100D300017FD2EC0282F20532A3098F416FF08C024
:100D40008F2D880FF82EFF0CFF0CF80EF20E15C039
:100D50008E2D880FE82EEE0CEE0CE80EE20E1062DF
:100D60000CC08E3221F416FD6CC1106406C08C36A6
:100D700011F4106802C0883659F4EC85FD8593FDA6
:100D8000859193FF8191FD87EC87882309F0B8CF87
:100D9000982F9554933018F09052933038F424E003
:100DA00030E0A20EB31E3FE339830FC0833631F02B
:100DB000833781F0833509F05AC022C0F501808164
:100DC000898322E030E0A20EB31E21E0C22ED12C96
:100DD000420114C092E0292E312C2A0C3B1CF50153
:100DE0008080918016FF03C06F2D70E002C06FEF0E
:100DF0007FEFC4010E944B086C0151011F7715C0A1
:100E000082E0282E312C2A0C3B1CF5018080918039
:100E100016FF03C06F2D70E002C06FEF7FEFC401BB
:100E20000E9440086C011068510113FD1CC006C0EF
:100E300080E290E0B3010E945608EA948E2D90E083
:100E4000C816D906A8F30FC0F40117FD859117FF46
:100E500081914F0190E0B3010E945608E110EA949D
:100E60000894C108D108C114D10471F7E7C08436D1
:100E700011F0893651F5F50117FF07C08081918186
:100E8000A281B38124E030E008C080819181AA274B
:100E900097FDA095BA2F22E030E0A20EB31E012FDD
:100EA0000F76B7FF08C0B095A095909581959F4F9C
:100EB000AF4FBF4F0068BC01CD01A2012AE030E076
:100EC0000E948208D82ED4183FC0853721F41F7E97
:100ED0002AE030E020C0197F8F36A9F0803720F457
:100EE000883509F0AEC00BC0803721F0883709F093
:100EF000A8C001C0106114FF09C0146007C014FF2E
:100F000008C0166006C028E030E005C020E130E0EF
:100F100002C020E132E0F50117FF07C06081718156
:100F20008281938144E050E006C06081718180E05D
:100F300090E042E050E0A40EB51EA2010E9482089B
:100F4000D82ED418012F0F7706FF09C00E7FDF14AB
:100F500030F404FF06C002FD04C00F7E02C01D2D48
:100F600001C01F2D802F90E004FF0CC0FE01ED0D8D
:100F7000F11D2081203311F4097E09C002FF06C053
:100F80001E5F05C086789070009709F01F5F802E65
:100F9000992403FD12C000FF0DC0FD2C1E1550F456
:100FA000FE0CF11A1E2D06C080E290E0B3010E94F3
:100FB00056081F5F1E15C0F304C01E1510F4E11A79
:100FC00001C0EE2484FE0FC080E390E0B3010E94D4
:100FD000560882FE1FC081FE03C088E590E010C065
:100FE00088E790E00DC0C40186789070009791F07A
:100FF00081FC02C080E201C08BE207FD8DE290E03F
:10100000B3010E94560806C080E390E0B3010E943D
:101010005608FA94DF14C0F3DA94F201ED0DF11DD5
:10102000808190E0B3010E945608DD20A9F706C038
:1010300080E290E0B3010E945608EA94EE20C1F7E6
:1010400040CEF3018681978102C08FEF9FEF2D96EE
:101050000FB6F894DEBF0FBECDBFDF91CF911F91C9
:101060000F91FF90EF90DF90CF90BF90AF909F9047
:101070008F907F906F905F904F903F902F9008954A
:10108000FC010590615070400110D8F78095909553
:101090008E0F9F1F0895FC01615070400190011058
:1010A000D8F7809590958E0F9F1F08950F931F93EB
:1010B000CF93DF938C01EB018B8181FF1BC082FFFB
:1010C0000DC02E813F818C819D812817390764F4E2
:1010D000E881F9810193F983E88306C0E885F98501
:1010E000802F0995009731F48E819F8101969F830F
:1010F0008E8302C00FEF1FEFC801DF91CF911F91C8
:101100000F910895FA01AA27283051F1203181F179
:10111000E8946F936E7F6E5F7F4F8F4F9F4FAF4FFF
:10112000B1E03ED0B4E03CD0670F781F891F9A1F12
:10113000A11D680F791F8A1F911DA11D6A0F711DC6
:10114000811D911DA11D20D009F468943F912AE0D2
:10115000269F11243019305D3193DEF6CF010895BA
:10116000462F4770405D4193B3E00FD0C9F7F6CFEB
:10117000462F4F70405D4A3318F0495D31FD4052B3
:10118000419302D0A9F7EACFB4E0A6959795879549
:1011900077956795BA95C9F7009761057105089528
:1011A0009B01AC010A2E06945795479537952795D4
:1011B000BA95C9F7620F731F841F951FA01D08956C
:0411C000F894FFCFD1
:1011C400555000444E00424F004E4F004275747417
:1011D400656E203A20004D6F6465203A2000256436
:1011E40000574149540000000000000000414343FF
:1011F400520000000000000000534C4F5700000054
:1012040000000000000200000002010800000000CD
:1012140000000000010000000101080000000000BF
:0412240000000000C6
:00000001FF
