:100000000C944A000C9469000C9469000C946900EB
:100010000C9469000C9469000C9469000C946900BC
:100020000C9412010C9469000C9469000C94690002
:100030000C9469000C9469000C9469000C9469009C
:100040000C9474000C9469000C9469000C94690081
:100050000C9469000C9469000C9469000C9469007C
:100060000C9469000C9469000C9469000C9469006C
:100070000C9469000C9469000C9469000C9469005C
:100080000C9469000C9469000C9469000C9469004C
:100090000C94690011241FBECFEFD0E1DEBFCDBFAD
:1000A00012E0A0E0B1E0E4E4F7E100E00BBF02C041
:1000B00007900D92AC32B107D9F712E0ACE2B2E092
:1000C00001C01D92A634B107E1F70E941F070C94EE
:1000D000A00B0C9400008AE084BD16BC83E187BDB0
:1000E00082E080936E0008951F920F920FB60F92D8
:1000F00011248F939F9380912C0290912D02019651
:1001000090932D0280932C029F918F910F900FBEA0
:100110000F901F9018958FEF87B987E083BB1AB8AF
:100120008FE08DB9089582E88093900083E18093F9
:10013000910085E39CE0909397008093960008954A
:100140002EB12C7F2EB96115710519F06130710542
:10015000A1F4BC0180E090E025E33CE040E050E009
:100160000E94370825E030E040E050E00E94560849
:100170003093990020939800089584E690E090933E
:1001800099008093980090939B0080939A00089523
:1001900089B129B191E021FD90E080FD04C081E0AA
:1001A000992331F002C0913011F080E0089582E08F
:1001B0000895813021F4653031F06F5F04C08230E2
:1001C00011F461116150862F0895089520E030E008
:1001D00008C00F920F900F920F900F920F902F5F09
:1001E0003F4F28173907A9F708950F931F93CF930F
:1001F000DF938C01C0E0D0E005C088EE93E00E9460
:10020000E6002196C017D107C1F7DF91CF911F916A
:100210000F91089588E88DBB80EC80936A0080E898
:100220008FBF08951F920F920FB60F9211248F93D4
:100230009F93809130029091310201969093310208
:10024000809330029F918F910F900FBE0F901F905F
:100250001895A29A84E690E00E94E600A29808957C
:1002600088E290E00E94F50088E388B90E942901A5
:1002700088E290E00E94E6008CE088B988E290E095
:100280000E94E6000E94290181E088B982E090E0A6
:100290000E94F5000E94290186E088B90E94290188
:1002A0000895A098A19888B90E9429010895A09A5C
:1002B000A19888B90E9429010895A098A198662361
:1002C00011F4805803C0613011F4805488B90E9441
:1002D000290108950F931F93CF93DF9300D0CDB7DB
:1002E000DEB749835A830E945D014981042F5A81F8
:1002F000152F02C00E945701F80181918F018823B8
:10030000C9F70F900F90DF91CF911F910F91089532
:10031000CF93DF930F92CDB7DEB749830E945D0183
:100320004981842F0E9457010F90DF91CF9108954A
:10033000CF92DF92EF92FF920F931F936B017C019C
:1003400020E030E040E05FE40E94300487FD11C00F
:10035000C701B60120E030E040E05FE40E944D03B9
:100360000E9461048B019C010050104020403048E5
:1003700006C0C701B6010E9461048B019C01B8014F
:10038000C9011F910F91FF90EF90DF90CF900895DA
:10039000A0E0B0E0EEECF1E00C949508EC014B012C
:1003A000FA018881823008F43EC1DB019C919230D1
:1003B00008F436C1843059F4943009F034C199817D
:1003C00011968C911197981709F027C12CC1943080
:1003D00009F426C19230A9F4823009F024C1CE017B
:1003E00028E0DC010D90CD01DA010D92AD01215024
:1003F000C1F7D40111968C9111979981892381833A
:1004000011C1823009F40CC1AA80BB80DB011296B5
:100410004D915C911397CC80DD80EE80FF80149627
:100420000D911D912D913C911797C501841B950B42
:10043000DC0197FF04C0AA27BB27A81BB90BA03279
:10044000B1050CF067C01816190684F528013901AA
:100450000A2E04C076946794579447940A94D2F76E
:1004600041E050E060E070E004C0440F551F661F9B
:10047000771FAA95D2F7415050406040704040230A
:1004800051236223732381E090E0A0E0B0E04115A6
:1004900051056105710519F480E090E0DC018C01E3
:1004A0009D0104291529262937293FC00097E9F124
:1004B000AA0EBB1E260137010A2E04C0769467944B
:1004C000579447940A94D2F741E050E060E070E01E
:1004D00004C0440F551F661F771FAA95D2F74150DD
:1004E0005040604070404C215D216E217F2181E0B1
:1004F00090E0A0E0B0E0411551056105710519F4E7
:1005000080E090E0DC016C017D01C428D528E6285C
:10051000F7280BC04A155B0524F400E010E09801B1
:1005200004C05A01CC24DD2476018981D4011196BE
:100530009C911197891709F445C0882329F00C195B
:100540001D092E093F0908C0D701C601801B910B68
:10055000A20BB30B8C019D0137FD04C01182B38245
:10056000A2820BC081E08183B382A2823095209564
:10057000109501951F4F2F4F3F4F048315832683FE
:1005800037830DC0880F991FAA1FBB1F84839583D3
:10059000A683B78382819381019793838283848129
:1005A0009581A681B781AC01BD01415050406040AA
:1005B00070404F3F2FEF52072FEF62072FE3720774
:1005C00008F30BC08183B382A2820C0D1D1D2E1D6A
:1005D0003F1D048315832683378383E08083448112
:1005E00055816681778177FF1DC0DB01CA0181706B
:1005F0009070A070B0707695679557954795842B4D
:10060000952BA62BB72B84839583A683B7838281F2
:10061000938101969383828305C0C3E2D1E003C036
:10062000E40101C0EF01CE01CDB7DEB7E0E10C94EB
:10063000B108A0E2B0E0EFE1F3E00C94A308DC0124
:10064000CB018D839E83AF83B88729833A834B8305
:100650005C83CE010596BE01675E7F4F0E945906FE
:10066000CE010196BE016F5E7F4F0E945906CE01FA
:100670004996BE016F5E7F4FAE01475F5F4F0E949C
:10068000C8010E948205462F572F682F792FCB0172
:10069000BA01A096E2E00C94BF08A0E2B0E0E3E566
:1006A000F3E00C94A308DC01CB018D839E83AF8320
:1006B000B88729833A834B835C83CE010596BE01BC
:1006C000675E7F4F0E945906CE010196BE016F5EA4
:1006D0007F4F0E9459068A8991E089278A8BCE0133
:1006E0004996BE016F5E7F4FAE01475F5F4F0E942C
:1006F000C8010E948205462F572F682F792FCB0102
:10070000BA01A096E2E00C94BF08A8E1B0E0EBE8E3
:10071000F3E00C949D08DC01CB018D839E83AF83B5
:10072000B88729833A834B835C83CE010596BE014B
:100730006F5E7F4F0E945906CE010196BE01675F32
:100740007F4F0E9459069989923008F475C08985B7
:10075000823008F474C02A893A8523272A8B943082
:1007600011F0923021F4981709F066C06BC0843004
:1007700039F41D8A1E8A1F8A188E1C8A1B8A5CC047
:10078000823019F484E0898B57C02B893C898B8592
:100790009C85281B390B3C8B2B8B8D899E89AF89BF
:1007A000B88DCD84DE84EF84F8888C159D05AE0568
:1007B000BF0540F4880F991FAA1FBB1F215030406E
:1007C0003C8B2B8BEFE1F0E000E010E020E030E428
:1007D00040E050E0BA018C159D05AE05BF0540F024
:1007E000402B512B622B732B8C199D09AE09BF092D
:1007F0003695279517950795880F991FAA1FBB1F38
:10080000319749F78A019B010F7710702070307083
:10081000003411052105310559F447FD09C0009741
:10082000A105B10529F0405C5F4F6F4F7F4F4078C5
:100830004D8B5E8B6F8B788FCE01419605C0CE01BC
:10084000099602C083E291E00E948205462F572F4D
:10085000682F792FCB01BA016896E8E00C94B908AB
:10086000A8E1B0E0E6E3F4E00C94A308DC01CB01DE
:100870008D839E83AF83B88729833A834B835C83C0
:10088000CE010596BE016F5E7F4F0E945906CE01D4
:100890000196BE01675F7F4F0E94590689898230A9
:1008A00058F08985823040F0CE014196BE01675FE5
:1008B0007F4F0E94C20601C08FEF6896E2E00C9461
:1008C000BF08ACE0B0E0E7E6F4E00C94A108DC017E
:1008D000CB0189839A83AB83BC83CE010196BE0191
:1008E0006B5F7F4F0E9459068D81823069F18230A3
:1008F00058F1843039F02F81388537FD25C02F31EC
:10090000310544F08E81882319F100E010E020E0E9
:1009100030E822C08EE190E0821B930B09851A8596
:100920002B853C8504C036952795179507958A95A4
:10093000D2F78E81882381F030952095109501950E
:100940001F4F2F4F3F4F08C000E010E0980104C038
:100950000FEF1FEF2FEF3FE7B801C9012C96E4E03E
:100960000C94BD08A8E0B0E0E8EBF4E00C949D081E
:100970006B017C011A82611571058105910519F4DD
:1009800082E089835EC083E089830EE110E01C83EE
:100990000B83CD82DE82EF82F886C701B6010E940A
:1009A0002F059C012150304037FF38C0EE27FF272C
:1009B000E21BF30B81E090E0A0E0B0E00E2E04C05B
:1009C000880F991FAA1FBB1F0A94D2F70197A1098C
:1009D000B1098C219D21AE21BF2141E050E060E0B2
:1009E00070E00097A105B10519F440E050E0BA01AC
:1009F00004C0F694E794D794C794EA95D2F7C42A32
:100A0000D52AE62AF72ACD82DE82EF82F8868EE1A9
:100A100090E0821B930B9C838B8313C021153105BF
:100A200081F0022E04C0CC0CDD1CEE1CFF1C0A94CD
:100A3000D2F7CD82DE82EF82F886021B130B1C8375
:100A40000B83CE0101960E948205462F572F682FF7
:100A5000792FCB01BA012896E8E00C94B908CF921F
:100A6000DF92EF92FF920F931F938B019C01003056
:100A700080E0180781E0280780E0380750F40F3F36
:100A800011052105310509F088F480E090E0DC01D2
:100A900016C00030E0E01E07E0E02E07E1E03E0770
:100AA00050F480E190E0A0E0B0E009C088E090E080
:100AB000A0E0B0E004C088E190E0A0E0B0E040E257
:100AC00050E060E070E0481B590B6A0B7B0B68013B
:100AD000790104C0F694E794D794C7948A95D2F725
:100AE000D701C601855D9E4FFC018081481B5109DD
:100AF00061097109CA011F910F91FF90EF90DF907A
:100B0000CF900895CF92DF92EF92FF920F931F93B1
:100B1000DC0114964D915D916D917C911797119622
:100B2000EC9111978C91823020F460618FEF90E00E
:100B3000A5C0843009F49DC0823009F494C04115E9
:100B400051056105710509F491C012968D919C9132
:100B500013972FEF823892070CF059C022E83FEF2D
:100B6000281B390B2A31310564F56A017B01022EFD
:100B700004C0F694E794D794C7940A94D2F781E01E
:100B800090E0A0E0B0E004C0880F991FAA1FBB1F2F
:100B90002A95D2F70197A109B10984239523A623A9
:100BA000B72341E050E060E070E00097A105B10597
:100BB00019F440E050E0BA014C295D296E297F29E3
:100BC00003C040E050E0BA01DB01CA018F779070AA
:100BD000A070B07080349105A105B10539F447FFCC
:100BE00009C0405C5F4F6F4F7F4F04C0415C5F4F57
:100BF0006F4F7F4F81E090E0403020E0520720E0CF
:100C0000620720E4720738F580E090E024C0803865
:100C100091057CF58A019B010F7710702070307070
:100C2000003411052105310539F447FF09C0405C46
:100C30005F4F6F4F7F4F04C0415C5F4F6F4F7F4FDF
:100C400077FD03C081589F4F06C0769567955795ED
:100C5000479580589F4F97E07695679557954795AC
:100C60009A95D1F70BC080E090E005C080E090E05D
:100C700005C08FEF90E040E050E0BA01982F9795C3
:100C800099279795A62FAF77E795EE27E795869555
:100C90003A2F392B282F2E2B842F952FA32FB22FAD
:100CA000BC01CD011F910F91FF90EF90DF90CF908D
:100CB0000895DC01FB014C9111965C9111971296FD
:100CC0008C911297682F6F7770E0982F991F992752
:100CD000991F13962C911397822F880F892B90E0E0
:100CE000221F2227221F2183009739F54115510524
:100CF0006105710511F482E029C082E89FEF9383BA
:100D0000828327E0440F551F661F771F2A95D1F76E
:100D100083E0808309C0440F551F661F771F8281BF
:100D20009381019793838283403080E0580780E06D
:100D3000680780E4780778F320C08F3F910579F445
:100D4000411551056105710519F484E0808308950A
:100D500064FF03C081E0808310C010820EC08F57F3
:100D600090409383828383E0808387E0440F551F04
:100D7000661F771F8A95D1F7706444835583668315
:100D800077830895CF93FC01DB019081923008F4C2
:100D90004CC08C91823008F448C0943069F42181B1
:100DA000843039F411968C91119790E0821B91094F
:100DB00044C02223D1F13FC0843021F0923041F46D
:100DC0008230B1F111968C9111978823A1F12DC039
:100DD000C181823001F111968C911197C817D9F415
:100DE0008281938112962D913C9113972817390790
:100DF00094F082179307BCF0448155816681778116
:100E000014968D919D910D90BC91A02D84179507FE
:100E1000A607B70718F4CC2341F00DC048175907AF
:100E20006A077B0728F4CC2331F081E090E005C00D
:100E300080E090E002C08FEF9FEFCF910895CF93B5
:100E4000DF93CDB7DEB727970FB6F894DEBF0FBE9E
:100E5000CDBF0E946B000E948B000E9430010E9457
:100E60000A010E949300789481E00E94510182E37C
:100E700090E00E94F50080E060E043E151E00E94D4
:100E80006A0180E061E043E051E00E946A0188EE7F
:100E900093E00E94F50081E00E94510184E690E019
:100EA0000E94F5008824992466247724AA24BB2470
:100EB0002CE3222E312C7E010894E11CF11C30E041
:100EC000C32E31E0D32E80912C0290912D0223EC81
:100ED0008135920708F451C080913002909131021F
:100EE000829DB001839D700D929D700D112480E054
:100EF00090E00E94B2049B01AC010E94190320E023
:100F000030E040EF51E40E94850320E030E040E50E
:100F100051E40E9485030E949801DC01CB0190936B
:100F20002F0280932E0200D000D000D02DB73EB704
:100F30002F5F3F4FEDB7FEB7F282E182F901D38216
:100F4000C282958384830E94CA088DB79EB7069695
:100F50000FB6F8949EBF0FBE8DBF80E061E0A70181
:100F60000E946A010894811C911C10923102109217
:100F7000300210922D0210922C0200D000D000D02E
:100F8000EDB7FEB73196ADB7BEB71296FC92EE92B2
:100F90001197D382C28280912C0290912D02958369
:100FA00084830E94CA08EDB7FEB736960FB6F89450
:100FB000FEBF0FBEEDBF80E060E0A7010E946A01A6
:100FC00000D000D000D0EDB7FEB73196ADB7BEB7B8
:100FD0001296FC92EE921197D382C28295828482FD
:100FE0000E94CA08EDB7FEB736960FB6F894FEBF5A
:100FF0000FBEEDBF87E060E0A7010E946A010E947A
:10100000C800082F10E00415150519F461147104C7
:1010100029F46A2D0E94D900A82EBB24C50160E0E6
:1010200070E00E94A00000D000D000D0EDB7FEB765
:101030003196ADB7BEB71296FC92EE921197D3825D
:10104000C282B582A4820E94CA08EDB7FEB7369666
:101050000FB6F894FEBF0FBEEDBF8DE060E0A701B4
:101060000E946A01280181E0682E712C2CCF629FBA
:10107000D001739FF001829FE00DF11D649FE00D90
:10108000F11D929FF00D839FF00D749FF00D659FF1
:10109000F00D9927729FB00DE11DF91F639FB00DF0
:1010A000E11DF91FBD01CF011124089597FB092E01
:1010B00005260ED057FD04D014D00AD0001C38F4F9
:1010C00050954095309521953F4F4F4F5F4F089574
:1010D000F6F790958095709561957F4F8F4F9F4F54
:1010E0000895A1E21A2EAA1BBB1BFD010DC0AA1F69
:1010F000BB1FEE1FFF1FA217B307E407F50720F081
:10110000A21BB30BE40BF50B661F771F881F991FFB
:101110001A9469F760957095809590959B01AC0144
:10112000BD01CF0108952F923F924F925F926F922F
:101130007F928F929F92AF92BF92CF92DF92EF9267
:10114000FF920F931F93CF93DF93CDB7DEB7CA1BE8
:10115000DB0B0FB6F894DEBF0FBECDBF09942A8813
:10116000398848885F846E847D848C849B84AA84BB
:10117000B984C884DF80EE80FD800C811B81AA8148
:10118000B981CE0FD11D0FB6F894DEBF0FBECDBF13
:10119000ED0108950F931F93CF93DF93CDB7DEB783
:1011A0002E970FB6F894DEBF0FBECDBF0D891E89F6
:1011B00086E08C831A8309838FEF9FE79E838D835C
:1011C000AE01475E5F4FCE0101966F89788D0E9418
:1011D000F908EF81F885E00FF11F10822E960FB607
:1011E000F894DEBF0FBECDBFDF91CF911F910F915D
:1011F00008952F923F924F925F926F927F928F92BB
:101200009F92AF92BF92CF92DF92EF92FF920F9395
:101210001F93CF93DF93CDB7DEB72D970FB6F8941A
:10122000DEBF0FBECDBF3C017D876C875A01FC013C
:1012300017821682838181FFC8C12E010894411C48
:10124000511CF3019381EC85FD8593FD859193FFFE
:101250008191FD87EC87882309F4B3C1853241F47D
:1012600093FD859193FF8191FD87EC87853229F469
:1012700090E0B3010E94160BE4CFFF24EE2410E0AF
:101280001032B0F48B3269F08C3228F4803251F095
:10129000833271F40BC08D3239F0803349F4116020
:1012A0002CC01260146029C0186027C0106125C0CE
:1012B00017FD2EC0282F20532A3098F416FF08C09F
:1012C0008F2D880FF82EFF0CFF0CF80EF20E15C0B4
:1012D0008E2D880FE82EEE0CEE0CE80EE20E10625A
:1012E0000CC08E3221F416FD6CC1106406C08C3621
:1012F00011F4106802C0883659F4EC85FD8593FD21
:10130000859193FF8191FD87EC87882309F0B8CF01
:10131000982F9554933018F09052933038F424E07D
:1013200030E0A20EB31E3FE339830FC0833631F0A5
:10133000833781F0833509F05AC022C0F5018081DE
:10134000898322E030E0A20EB31E21E0C22ED12C10
:10135000420114C092E0292E312C2A0C3B1CF501CD
:101360008080918016FF03C06F2D70E002C06FEF88
:101370007FEFC4010E940B0B6C0151011F7715C058
:1013800082E0282E312C2A0C3B1CF50180809180B4
:1013900016FF03C06F2D70E002C06FEF7FEFC40136
:1013A0000E94000B6C011068510113FD1CC006C0A7
:1013B00080E290E0B3010E94160BEA948E2D90E03B
:1013C000C816D906A8F30FC0F40117FD859117FFC1
:1013D00081914F0190E0B3010E94160BE110EA9455
:1013E0000894C108D108C114D10471F7E7C084364C
:1013F00011F0893651F5F50117FF07C08081918101
:10140000A281B38124E030E008C080819181AA27C5
:1014100097FDA095BA2F22E030E0A20EB31E012F57
:101420000F76B7FF08C0B095A095909581959F4F16
:10143000AF4FBF4F0068BC01CD01A2012AE030E0F0
:101440000E94420BD82ED4183FC0853721F41F7E4E
:101450002AE030E020C0197F8F36A9F0803720F4D1
:10146000883509F0AEC00BC0803721F0883709F00D
:10147000A8C001C0106114FF09C0146007C014FFA8
:1014800008C0166006C028E030E005C020E130E06A
:1014900002C020E132E0F50117FF07C060817181D1
:1014A0008281938144E050E006C06081718180E0D8
:1014B00090E042E050E0A40EB51EA2010E94420B53
:1014C000D82ED418012F0F7706FF09C00E7FDF1426
:1014D00030F404FF06C002FD04C00F7E02C01D2DC3
:1014E00001C01F2D802F90E004FF0CC0FE01ED0D08
:1014F000F11D2081203311F4097E09C002FF06C0CE
:101500001E5F05C086789070009709F01F5F802EDF
:10151000992403FD12C000FF0DC0FD2C1E1550F4D0
:10152000FE0CF11A1E2D06C080E290E0B3010E946D
:10153000160B1F5F1E15C0F304C01E1510F4E11A30
:1015400001C0EE2484FE0FC080E390E0B3010E944E
:10155000160B82FE1FC081FE03C088E590E010C01C
:1015600088E790E00DC0C40186789070009791F0F4
:1015700081FC02C080E201C08BE207FD8DE290E0B9
:10158000B3010E94160B06C080E390E0B3010E94F5
:10159000160BFA94DF14C0F3DA94F201ED0DF11D8D
:1015A000808190E0B3010E94160BDD20A9F706C0F0
:1015B00080E290E0B3010E94160BEA94EE20C1F79E
:1015C00040CEF3018681978102C08FEF9FEF2D9669
:1015D0000FB6F894DEBF0FBECDBFDF91CF911F9144
:1015E0000F91FF90EF90DF90CF90BF90AF909F90C2
:1015F0008F907F906F905F904F903F902F900895C5
:10160000FC010590615070400110D8F780959095CD
:101610008E0F9F1F0895FC016150704001900110D2
:10162000D8F7809590958E0F9F1F08950F931F9365
:10163000CF93DF938C01EB018B8181FF1BC082FF75
:101640000DC02E813F818C819D812817390764F45C
:10165000E881F9810193F983E88306C0E885F9857B
:10166000802F0995009731F48E819F8101969F8389
:101670008E8302C00FEF1FEFC801DF91CF911F9142
:101680000F910895FA01AA27283051F1203181F1F4
:10169000E8946F936E7F6E5F7F4F8F4F9F4FAF4F7A
:1016A000B1E03ED0B4E03CD0670F781F891F9A1F8D
:1016B000A11D680F791F8A1F911DA11D6A0F711D41
:1016C000811D911DA11D20D009F468943F912AE04D
:1016D000269F11243019305D3193DEF6CF01089535
:1016E000462F4770405D4193B3E00FD0C9F7F6CF66
:1016F000462F4F70405D4A3318F0495D31FD40522E
:10170000419302D0A9F7EACFB4E0A69597958795C3
:1017100077956795BA95C9F70097610571050895A2
:101720009B01AC010A2E069457954795379527954E
:10173000BA95C9F7620F731F841F951FA01D0895E6
:04174000F894FFCF4B
:1017440025640053504545445F434F4E54524F4C1B
:10175400000000414A4F552D554E495645525349B4
:1017640054590000000000000000000001020203C0
:101774000303030404040404040404050505050523
:101784000505050505050505050505060606060600
:1017940006060606060606060606060606060606E5
:1017A40006060606060606060606060707070707D0
:1017B40007070707070707070707070707070707B5
:1017C40007070707070707070707070707070707A5
:1017D4000707070707070707070707070707070795
:1017E4000707070707070707070707080808080880
:1017F4000808080808080808080808080808080865
:101804000808080808080808080808080808080854
:101814000808080808080808080808080808080844
:101824000808080808080808080808080808080834
:101834000808080808080808080808080808080824
:101844000808080808080808080808080808080814
:101854000808080808080808080808080808080804
:0C18640008080808080808080808080020
:00000001FF
