:100000000C944A000C9469000C9469000C946900EB
:100010000C9469000C9477040C9469000C946900AA
:100020000C9469000C9469000C9469000C946900AC
:100030000C9469000C9469000C9469000C9469009C
:100040000C9460040C9469000C9469000C94690091
:100050000C9469000C9469000C9469000C9469007C
:100060000C9469000C9469000C9469000C9469006C
:100070000C9469000C9469000C9469000C9469005C
:100080000C9469000C9469000C9469000C9469004C
:100090000C94690011241FBECFEFD0E1DEBFCDBFAD
:1000A00012E0A0E0B1E0E4EAF4E200E00BBF02C03D
:1000B00007900D92A63AB107D9F712E0A6EAB2E08E
:1000C00001C01D92AF3CB107E1F70E949B0C0C945C
:1000D00050120C9400009091D80091609093D80039
:1000E000833089F0843028F4813051F08230D1F4AB
:1000F00011C0853061F0853040F0863099F409C038
:100100001092E20009C086E005C088E003C08EE0DE
:1001100001C082E18093E2008CE08093E30087E3FA
:100120008093E40080E0982F9295907F9093ED006B
:100130001092EF001092EE001092F3001092F20075
:100140001092F1001092F0001092F7001092F60059
:100150001092F5001092F4001092FA001092FA003A
:100160001092FA001092FA001092FA001092FA001F
:100170001092FA001092FA008F5F8F30A1F6109261
:10018000DB001092DF001092DE001092E10010926E
:10019000E0008091D80082608093D8008091D900DF
:1001A00082FFFCCF08959091D80091609093D80081
:1001B0008330C1F0843028F4813051F0823039F539
:1001C0000EC08530C9F0853078F0863001F516C054
:1001D0001092E20084E08093E30083E116C0109265
:1001E000E2000FC082E00BC082E08093E2008EE06C
:1001F0008093E3008BE409C086E001C088E080932F
:10020000E2008CE08093E30087E38093E40080E0E9
:10021000982F9295907F9093ED001092EF0010929E
:10022000EE001092F3001092F2001092F100109282
:10023000F0001092F7001092F6001092F500109264
:10024000F4001092FA001092FA001092FA00109244
:10025000FA001092FA001092FA001092FA0010922E
:10026000FA008F5F8F30A1F61092DB001092DF0052
:100270001092DE001092E1001092E00080E2809384
:10028000D8008091D80082608093D8008091D900F6
:1002900082FFFCCF08950F931F93FB010081118112
:1002A000228133818295807F8093ED001092EE0051
:1002B0001092EF0085818823A1F4D901C80153E091
:1002C000B695A795979587955A95D1F78093F300A2
:1002D0000295000F007E0093F2008091EF008F7E68
:1002E00029C0D901C80155E1B695A795979587957D
:1002F0005A95D1F78093F300D901C8016DE0B69506
:10030000A795979587956A95D1F78093F200D901C3
:10031000C80175E0B695A795979587957A95D1F719
:100320008093F100000F000F000F0093F000809108
:10033000EF0080618093EF008091EF009681892B20
:100340008093EF008091F0004470482B4093F000C0
:100350008091F0008D7F8093F0008091F0008E7F7F
:100360008093F00080E009C0DF01A80FB11D17964F
:100370009C9117979093FA008F5F96818917A0F34D
:100380008091EF0080648093EF008091EE0086FF03
:10039000FCCF8091EE008F7B8093EE0081E01F9177
:1003A0000F910895CF92DF92EF92FF920F931F93D8
:1003B000FB018295807F8093ED008091EE0085FFA8
:1003C000FCCF8091EF0084FD1BC015828091F3006B
:1003D00090E0A0E0B0E0BA2FA92F982F8827409195
:1003E000F20050E060E070E0842B952BA62BB72B39
:1003F00035E0B695A795979587953A95D1F735C08D
:1004000081E085838091F30090E0A0E0B0E0B82F18
:10041000AA2799278827C090F2004091F100009107
:10042000F000DD24EE24FF247601DD24CC248C2989
:100430009D29AE29BF2910E020E030E0802B912BD0
:10044000A22BB32B50E060E070E0762F652F542F85
:100450004427842B952BA62BB72B689412F8B695BE
:10046000A795979587951694D1F780839183A2835A
:10047000B3838091F000847084838091EF008F704B
:10048000868340E009C08091FA002E0F3F1FD901FA
:1004900017968C9317974F5F242F30E08091EF00D1
:1004A00090E08F709070281739076CF31092EE006F
:1004B0008091EF0080688093EF008091EE008F7D47
:1004C0008093EE0081E01F910F91FF90EF90DF90FD
:1004D000CF900895AF92CF92DF92EF92FF920F9359
:1004E0008295807F8093ED001092EE00DB01CA01BF
:1004F000222329F5F3E0B695A79597958795FA9568
:10050000D1F78093F3004295440F407E4093F20070
:10051000D701C60123E0B695A795979587952A95AB
:10052000D1F78093F700C294CC0C30EEC322C09276
:10053000F6001092F4008091EF008F7E4DC0E5E14F
:10054000B695A79597958795EA95D1F78093F3008F
:10055000DB01CA01FDE0B695A79597958795FA95B9
:10056000D1F78093F200DB01CA0125E0B695A7958B
:10057000979587952A95D1F78093F100440F440F02
:10058000440F4093F000D701C60135E1B695A79519
:10059000979587953A95D1F78093F700D701C601D3
:1005A0004DE0B695A795979587954A95D1F7809395
:1005B000F600D701C601E5E0B695A7959795879512
:1005C000EA95D1F78093F500CC0CCC0CCC0CC09202
:1005D000F4008091EF0080618093EF008091EF0044
:1005E0000F70082B0093EF009091F4008A2D877014
:1005F000892B8093F4008091F4008E7F8093F40027
:100600008091EF0080688093EF000F91FF90EF9052
:10061000DF90CF90AF900895AF92CF92DF92EF929C
:10062000FF920F93382F8295807F8093ED00109278
:10063000EE008091EF0021FF02C0806201C08F7D3B
:100640008093EF00DB01CA0120FD25C023E0B695B1
:10065000A795979587952A95D1F78093F3004295B2
:10066000440F407E4093F200D701C60143E0B695A7
:10067000A795979587954A95D1F78093F700C294EF
:10068000CC0C50EEC522C092F6001092F40080917E
:10069000EF008F7E4DC0E5E1B695A79597958795BC
:1006A000EA95D1F78093F300DB01CA01FDE0B6952E
:1006B000A79597958795FA95D1F78093F200DB017E
:1006C000CA0125E0B695A795979587952A95D1F704
:1006D0008093F100440F440F440F4093F000D70182
:1006E000C60145E1B695A795979587954A95D1F7A7
:1006F0008093F700D701C601EDE0B695A7959795D1
:100700008795EA95D1F78093F600D701C601F5E009
:10071000B695A79597958795FA95D1F78093F500AB
:10072000CC0CCC0CCC0CC092F4008091EF0080611A
:100730008093EF008091EF000F70082B0093EF0083
:100740009091F4008A2D8770892B8093F40080911A
:10075000DB00806A8093DB00383050F481E090E069
:1007600002C0880F991F3A95E2F78093DE000DC012
:10077000232F30E02850304081E090E002C0880F05
:10078000991F2A95E2F78093DF008091EF0080683F
:100790008093EF0078940F91FF90EF90DF90CF90CF
:1007A000AF9008958FEF87B99FE093BB1AB890EF91
:1007B0009DB98EB908958AE88093900083E1809373
:1007C000910085E39CE0909397008093960086E4E7
:1007D00090E090939D0080939C0008952EB12C7F13
:1007E0002EB961157105A9F4BC0180E090E025E304
:1007F0003CE040E050E00E94E70E25E030E040E0C1
:1008000050E00E94060F3093990020939800709A50
:10081000089561307105A9F4BC0180E090E025E302
:100820003CE040E050E00E94E70E25E030E040E090
:1008300050E00E94060F3093990020939800719A1F
:10084000089584E690E090939900809398009093A7
:100850009B0080939A00089589B129B191E021FD10
:1008600090E080FD04C081E0992331F002C0913016
:1008700011F080E0089582E00895813021F4653020
:1008800031F06F5F04C0823011F461116150862F26
:100890000895EC9AEAE6F0E080818360808380E14D
:1008A0008CBB089584B5886084BD84B5826084BDA6
:1008B00016BC83E187BD82E080936E0015BA08956F
:1008C0001F920F920FB60F9211248F939F938091D6
:1008D000BE029091BF0201969093BF028093BE0228
:1008E0009F918F910F900FBE0F901F9018951F92A0
:1008F0000F920FB60F9211242F933F938F939F93D4
:100900002091BE023091BF0280916A0090E0837016
:100910009070009749F080916A0010926A001092DE
:10092000BF021092BE0209C080916A00836080936A
:100930006A003093BB022093BA029F918F913F913E
:100940002F910F900FBE0F901F901895089520E0E3
:1009500030E008C00F920F900F920F900F920F90FF
:100960002F5F3F4F28173907A9F708950F931F935B
:10097000CF93DF938C01C0E0D0E005C088EE93E018
:100980000E94A7042196C017D107C1F7DF91CF912C
:100990001F910F910895A29A84E690E00E94A70407
:1009A000A298089588E290E00E94B60488E388B98E
:1009B0000E94CB0488E290E00E94A7048CE088B9F2
:1009C00088E290E00E94A7040E94CB0481E088B9ED
:1009D00082E090E00E94B6040E94CB0486E088B9D1
:1009E0000E94CB040895A098A19888B90E94CB04D6
:1009F0000895A09AA19888B90E94CB040895A09860
:100A0000A198662311F4805803C0613011F480541A
:100A100088B90E94CB0408950F931F93CF93DF935F
:100A200000D0CDB7DEB749835A830E94FF044981C5
:100A3000042F5A81152F02C00E94F904F8018191F8
:100A40008F018823C9F70F900F90DF91CF911F91ED
:100A50000F910895CF93DF930F92CDB7DEB74983FF
:100A60000E94FF044981842F0E94F9040F90DF91B6
:100A7000CF910895CF92DF92EF92FF920F931F9341
:100A80006B017C0120E030E040E05FE40E9404095B
:100A900087FD11C0C701B60120E030E040E05FE40F
:100AA0000E94EF060E94DD098B019C01005010405E
:100AB0002040304806C0C701B6010E94DD098B0105
:100AC0009C01B801C9011F910F91FF90EF90DF9039
:100AD000CF900895A0E0B0E0E0E7F5E00C94450F7A
:100AE000EC014B01FA018881823008F43EC1DB0140
:100AF0009C91923008F436C1843059F4943009F056
:100B000034C1998111968C911197981709F027C1DA
:100B10002CC1943009F426C19230A9F4823009F036
:100B200024C1CE0128E0DC010D90CD01DA010D9247
:100B3000AD012150C1F7D40111968C911197998183
:100B40008923818311C1823009F40CC1AA80BB8042
:100B5000DB0112964D915C911397CC80DD80EE8085
:100B6000FF8014960D911D912D913C911797C50111
:100B7000841B950BDC0197FF04C0AA27BB27A81B89
:100B8000B90BA032B1050CF067C01816190684F530
:100B9000280139010A2E04C076946794579447942B
:100BA0000A94D2F741E050E060E070E004C0440FE6
:100BB000551F661F771FAA95D2F7415050406040DD
:100BC0007040402351236223732381E090E0A0E032
:100BD000B0E0411551056105710519F480E090E020
:100BE000DC018C019D0104291529262937293FC0E4
:100BF0000097E9F1AA0EBB1E260137010A2E04C098
:100C000076946794579447940A94D2F741E050E061
:100C100060E070E004C0440F551F661F771FAA955F
:100C2000D2F741505040604070404C215D216E2110
:100C30007F2181E090E0A0E0B0E041155105610521
:100C4000710519F480E090E0DC016C017D01C4289D
:100C5000D528E628F7280BC04A155B0524F400E0E8
:100C600010E0980104C05A01CC24DD24760189816A
:100C7000D40111969C911197891709F445C08823D6
:100C800029F00C191D092E093F0908C0D701C6011A
:100C9000801B910BA20BB30B8C019D0137FD04C08F
:100CA0001182B382A2820BC081E08183B382A282CF
:100CB00030952095109501951F4F2F4F3F4F04837E
:100CC0001583268337830DC0880F991FAA1FBB1F6A
:100CD00084839583A683B7838281938101979383CD
:100CE000828384819581A681B781AC01BD01415089
:100CF0005040604070404F3F2FEF52072FEF620788
:100D00002FE3720708F30BC08183B382A2820C0D1C
:100D10001D1D2E1D3F1D048315832683378383E00D
:100D20008083448155816681778177FF1DC0DB0117
:100D3000CA0181709070A070B070769567955795D4
:100D40004795842B952BA62BB72B84839583A6835D
:100D5000B7838281938101969383828305C0CEE914
:100D6000D1E003C0E40101C0EF01CE01CDB7DEB791
:100D7000E0E10C94610FA0E2B0E0E1ECF6E00C944D
:100D8000530FDC01CB018D839E83AF83B88729830A
:100D90003A834B835C83CE010596BE01675E7F4F2D
:100DA0000E94D50BCE010196BE016F5E7F4F0E945F
:100DB000D50BCE014996BE016F5E7F4FAE01475FF6
:100DC0005F4F0E946A050E94FE0A462F572F682F28
:100DD000792FCB01BA01A096E2E00C946F0FA0E24C
:100DE000B0E0E5EFF6E00C94530FDC01CB018D830E
:100DF0009E83AF83B88729833A834B835C83CE017C
:100E00000596BE01675E7F4F0E94D50BCE0101960D
:100E1000BE016F5E7F4F0E94D50B8A8991E08927C2
:100E20008A8BCE014996BE016F5E7F4FAE01475F50
:100E30005F4F0E946A050E94FE0A462F572F682FB7
:100E4000792FCB01BA01A096E2E00C946F0FA0E2DB
:100E5000B0E0EDE2F7E00C94450FDC01CB018D83AF
:100E60009E83AF83B88729833A834B835C83CE010B
:100E70000596BE01675E7F4F0E94D50BCE0101969D
:100E8000BE016F5E7F4F0E94D50B998D923078F036
:100E900089898230C0F0943019F4823041F4CAC09C
:100EA000843019F4923079F4C5C0923051F481E065
:100EB0002A8D9A89291709F480E08A8FCE014996F4
:100EC000BBC0823051F481E02A8D9A89291709F438
:100ED00080E08A8BCE014196AFC04D8C5E8C6F8CCA
:100EE00078A00D891E892F89388DE0E2F0E040E07E
:100EF00050E0BA01882499245401CC24DD247601E1
:100F0000C201817090700097D1F0C00ED11EE21E18
:100F1000F31EDB01CA01880D991DAA1DBB1D41E00E
:100F200050E060E070E0C016D106E206F30618F06B
:100F300040E050E0BA01480F591F6A1F7B1F880C20
:100F4000991CAA1CBB1C37FF08C081E090E0A0E000
:100F5000B0E0882A992AAA2ABB2A000F111F221F53
:100F6000331F7694679457944794319749F68B8D45
:100F70009C8D2B893C89820F931F02969C878B87BF
:100F800081E02A8D9A89291709F480E08A872B85C8
:100F90003C8517C0CA0181709070009761F0F6948B
:100FA000E794D794C79480E090E0A0E0B0E8C82A26
:100FB000D92AEA2AFB2A76956795579547952F5F98
:100FC0003F4F77FDE7CFC9010BC0440F551F661F88
:100FD000771FF7FC4160CC0CDD1CEE1CFF1C019759
:100FE0004030A0E05A07A0E06A07A0E47A0768F35F
:100FF0008B879C87DB01CA018F779070A070B070DF
:1010000080349105A105B10561F447FD0AC0C11402
:10101000D104E104F10429F0405C5F4F6F4F7F4F32
:1010200040784D875E876F87788B83E08987CE0114
:10103000099602C08EE991E00E94FE0A462F572FC2
:10104000682F792FCB01BA01A096E0E10C94610FD3
:10105000A8E1B0E0EEE2F8E00C944D0FDC01CB012A
:101060008D839E83AF83B88729833A834B835C83C8
:10107000CE010596BE016F5E7F4F0E94D50BCE015B
:101080000196BE01675F7F4F0E94D50B9989923010
:1010900008F475C08985823008F474C02A893A85BD
:1010A00023272A8B943011F0923021F4981709F0FD
:1010B00066C06BC0843039F41D8A1E8A1F8A188E60
:1010C0001C8A1B8A5CC0823019F484E0898B57C06B
:1010D0002B893C898B859C85281B390B3C8B2B8B62
:1010E0008D899E89AF89B88DCD84DE84EF84F888A0
:1010F0008C159D05AE05BF0540F4880F991FAA1FEA
:10110000BB1F215030403C8B2B8BEFE1F0E000E027
:1011100010E020E030E440E050E0BA018C159D057D
:10112000AE05BF0540F0402B512B622B732B8C1961
:101130009D09AE09BF093695279517950795880F24
:10114000991FAA1FBB1F319749F78A019B010F778F
:10115000107020703070003411052105310559F4EC
:1011600047FD09C00097A105B10529F0405C5F4F1C
:101170006F4F7F4F40784D8B5E8B6F8B788FCE019A
:10118000419605C0CE01099602C08EE991E00E9409
:10119000FE0A462F572F682F792FCB01BA01689688
:1011A000E8E00C94690FA8E1B0E0E9EDF8E00C94F8
:1011B000530FDC01CB018D839E83AF83B8872983D6
:1011C0003A834B835C83CE010596BE016F5E7F4FF1
:1011D0000E94D50BCE010196BE01675F7F4F0E9432
:1011E000D50B8989823058F08985823040F0CE0154
:1011F0004196BE01675F7F4F0E943E0C01C08FEF9A
:101200006896E2E00C946F0FA8E1B0E0EAE0F9E044
:101210000C94530FDC01CB018D839E83AF83B88781
:1012200029833A834B835C83CE010596BE016F5EB2
:101230007F4F0E94D50BCE010196BE01675F7F4FA5
:101240000E94D50B8989823058F08985823040F020
:10125000CE014196BE01675F7F4F0E943E0C01C0E8
:101260008FEF6896E2E00C946F0FA8E1B0E0EBE33B
:10127000F9E00C94530FDC01CB018D839E83AF8387
:10128000B88729833A834B835C83CE010596BE01E0
:101290006F5E7F4F0E94D50BCE010196BE01675F46
:1012A0007F4F0E94D50B8989823058F08985823022
:1012B00040F0CE014196BE01675F7F4F0E943E0C19
:1012C00001C081E06896E2E00C946F0FCF92DF924C
:1012D000EF92FF92CF93DF93CDB7DEB728970FB68B
:1012E000F894DEBF0FBECDBF6B017C0183E0898324
:1012F000D701C6018827B7FD83959927AA27BB2761
:10130000282F8A83C114D104E104F10419F482E086
:10131000898335C08EE190E09C838B83222389F002
:1013200080E0C81680E0D80680E0E80680E8F8068D
:1013300059F1F094E094D094C094C11CD11CE11CEC
:10134000F11CCD82DE82EF82F886C701B6010E94D1
:10135000AB0A01971816190694F4082E04C0CC0C99
:10136000DD1CEE1CFF1C0A94D2F7CD82DE82EF82D8
:10137000F8862EE130E0281B390B3C832B83CE010D
:1013800001960E94FE0A04C060E070E080E09FECDD
:10139000382F292F862F972FA32FB22FBC01CD01D5
:1013A00028960FB6F894DEBF0FBECDBFDF91CF9168
:1013B000FF90EF90DF90CF900895ACE0B0E0E3EEC7
:1013C000F9E00C94510FDC01CB0189839A83AB8344
:1013D000BC83CE010196BE016B5F7F4F0E94D50B8F
:1013E0008D81823069F1823058F1843039F02F815B
:1013F000388537FD25C02F31310544F08E81882393
:1014000019F100E010E020E030E822C08EE190E029
:10141000821B930B09851A852B853C8504C0369564
:101420002795179507958A95D2F78E81882381F0A5
:1014300030952095109501951F4F2F4F3F4F08C0B5
:1014400000E010E0980104C00FEF1FEF2FEF3FE71F
:10145000B801C9012C96E4E00C946D0FA8E0B0E04F
:10146000E4E3FAE00C944D0F6B017C011A826115E4
:1014700071058105910519F482E089835EC083E0DE
:1014800089830EE110E01C830B83CD82DE82EF8224
:10149000F886C701B6010E94AB0A9C01215030407A
:1014A00037FF38C0EE27FF27E21BF30B81E090E007
:1014B000A0E0B0E00E2E04C0880F991FAA1FBB1F2A
:1014C0000A94D2F70197A109B1098C219D21AE217F
:1014D000BF2141E050E060E070E00097A105B10558
:1014E00019F440E050E0BA0104C0F694E794D794B0
:1014F000C794EA95D2F7C42AD52AE62AF72ACD82DC
:10150000DE82EF82F8868EE190E0821B930B9C8353
:101510008B8313C02115310581F0022E04C0CC0C41
:10152000DD1CEE1CFF1C0A94D2F7CD82DE82EF8216
:10153000F886021B130B1C830B83CE0101960E94BD
:10154000FE0A462F572F682F792FCB01BA01289614
:10155000E8E00C94690FCF92DF92EF92FF920F9325
:101560001F938B019C01003080E0180781E0280761
:1015700080E0380750F40F3F11052105310509F0CF
:1015800088F480E090E0DC0116C00030E0E01E0747
:10159000E0E02E07E1E03E0750F480E190E0A0E0BB
:1015A000B0E009C088E090E0A0E0B0E004C088E1CD
:1015B00090E0A0E0B0E040E250E060E070E0481B66
:1015C000590B6A0B7B0B6801790104C0F694E79410
:1015D000D794C7948A95D2F7D701C6018A559E4FF2
:1015E000FC018081481B510961097109CA011F91E1
:1015F0000F91FF90EF90DF90CF900895CF92DF9200
:10160000EF92FF920F931F93DC0114964D915D9121
:101610006D917C9117971196EC9111978C91823076
:1016200020F460618FEF90E0A5C0843009F49DC084
:10163000823009F494C0411551056105710509F422
:1016400091C012968D919C9113972FEF823892073B
:101650000CF059C022E83FEF281B390B2A31310525
:1016600064F56A017B01022E04C0F694E794D794D6
:10167000C7940A94D2F781E090E0A0E0B0E004C003
:10168000880F991FAA1FBB1F2A95D2F70197A1099E
:10169000B10984239523A623B72341E050E060E0FD
:1016A00070E00097A105B10519F440E050E0BA01DF
:1016B0004C295D296E297F2903C040E050E0BA0122
:1016C000DB01CA018F779070A070B07080349105F3
:1016D000A105B10539F447FF09C0405C5F4F6F4F6A
:1016E0007F4F04C0415C5F4F6F4F7F4F81E090E0C0
:1016F000403020E0520720E0620720E4720738F50E
:1017000080E090E024C0803891057CF58A019B013F
:101710000F771070207030700034110521053105ED
:1017200039F447FF09C0405C5F4F6F4F7F4F04C0E3
:10173000415C5F4F6F4F7F4F77FD03C081589F4FD4
:1017400006C0769567955795479580589F4F97E0C7
:1017500076956795579547959A95D1F70BC080E098
:1017600090E005C080E090E005C08FEF90E040E0A1
:1017700050E0BA01982F979599279795A62FAF77A4
:10178000E795EE27E79586953A2F392B282F2E2BB4
:10179000842F952FA32FB22FBC01CD011F910F9144
:1017A000FF90EF90DF90CF900895DC01FB014C910A
:1017B00011965C91119712968C911297682F6F7702
:1017C00070E0982F991F9927991F13962C911397C2
:1017D000822F880F892B90E0221F2227221F21832E
:1017E000009739F5411551056105710511F482E045
:1017F00029C082E89FEF9383828327E0440F551F1F
:10180000661F771F2A95D1F783E0808309C0440FB4
:10181000551F661F771F828193810197938382836F
:10182000403080E0580780E0680780E4780778F36C
:1018300020C08F3F910579F441155105610571056F
:1018400019F484E08083089564FF03C081E08083FD
:1018500010C010820EC08F5790409383828383E024
:10186000808387E0440F551F661F771F8A95D1F745
:10187000706444835583668377830895CF93FC0116
:10188000DB019081923008F44CC08C91823008F4D6
:1018900048C0943069F42181843039F411968C91D8
:1018A000119790E0821B910944C02223D1F13FC0DF
:1018B000843021F0923041F48230B1F111968C9154
:1018C00011978823A1F12DC0C181823001F11196B9
:1018D0008C911197C817D9F48281938112962D911A
:1018E0003C9113972817390794F082179307BCF09F
:1018F000448155816681778114968D919D910D90DB
:10190000BC91A02D84179507A607B70718F4CC2320
:1019100041F00DC0481759076A077B0728F4CC230C
:1019200031F081E090E005C080E090E002C08FEFF0
:101930009FEFCF910895CF93DF93CDB7DEB72D976B
:101940000FB6F894DEBF0FBECDBF85E00E946B00DE
:1019500085E00E94D30081E041E050E060E070E06B
:1019600021E008E0CC24DD247601A5E0AA2E0E9427
:101970006A020E94D2030E9449040E9452040E94FB
:10198000D2040E94DB03789481E00E94F304AA242D
:10199000BB242224332482E090E09D878C87552449
:1019A000DD24F89474986C9A84EF91E00E94A70467
:1019B000749A85E090E00E94A704749884E690E011
:1019C0000E94A7046C9884E690E00E94A704789493
:1019D0006091BA027091BB0280E090E00E942E0AF2
:1019E0002CEA35EC47E257E30E94270720E030E07D
:1019F00040E05FE30E94270720E030E44DEA53E433
:101A00000E94270720E030E04AE754E40E942707BD
:101A1000162F072FE82EC92EA801852F942FAE2D43
:101A2000BC2DBC01CD0120E030E04AE754E40E9427
:101A300028080E943A05462E862F90E028EE33E0D3
:101A4000829FB001839F700D929F700D1124882793
:101A500077FD8095982F0E9466099B01AC01F801E3
:101A60008F2F9E2FAE2DBC2DBC01CD010E94EF0605
:101A7000C62E972E882E692E862F992DA82DB62D2D
:101A8000BC01CD0120E030E048EC52E40E9428087F
:101A90000E943A05162F64E6169FB001112488278C
:101AA00077FD8095982F0E9466099B01AC018C2DD3
:101AB000992DA82DB62DBC01CD010E94EF06062F51
:101AC000E72EF82E792E862F9E2DAF2DB72DBC0137
:101AD000CD0120E030E040E251E40E9428080E945D
:101AE0003A05842D805D8983105D1A83862F805D81
:101AF0008B83862F90E0BC01660F771FF3E0880F81
:101B0000991FFA95E1F7680F791F882777FD80956F
:101B1000982F0E9466099B01AC01802F9E2DAF2D4E
:101B2000B72DBC01CD010E94EF060E943A05605D11
:101B30006C831D828AE060E0AE014F5F5F4F0E94C0
:101B40000C0581E060EC72E00E94D2011091C702A6
:101B500086E060E047EC52E00E940C050E942C04F5
:101B600090E08130910561F485E060E040E051E073
:101B70000E940C0561E0E62EF12C01E010E01EC091
:101B80008230910559F485E060E043E051E00E9425
:101B90000C05EE24FF2402E010E010C0012F10E03D
:101BA0000115110549F480E060E046E051E00E9433
:101BB0000C05EE24FF2413C0EE24FF240130110590
:101BC00029F480E060E04BE051E007C002301105ED
:101BD00031F480E060E040E151E00E940C05DD203E
:101BE00029F48AE061E045E151E007C091E0D916AF
:101BF00031F48AE061E047E151E00E940C0500D039
:101C000000D000D0EDB7FEB7319686E090E08C0FA3
:101C10009D1FADB7BEB712969C938E931197A9E105
:101C2000B1E0B383A283358224820E947A0F8DB7FC
:101C30009EB706960FB6F8949EBF0FBE8DBF80E08C
:101C400061E0AE014A5F5F4F0E940C0500D000D0FA
:101C500000D0EDB7FEB7319686E090E08C0F9D1F67
:101C6000ADB7BEB712969C938E931197A9E1B1E0E0
:101C7000B383A283B582A4820E947A0F8DB79EB7E8
:101C800006960FB6F8949EBF0FBE8DBF84E061E04C
:101C9000AE014A5F5F4F0E940C0591E0E916F10426
:101CA00039F483E090E06C857D850E94EE0363C08B
:101CB0008C2D992DA82DB62DBC01CD0120E030E052
:101CC00048E452E40E94350987FF09C00894A11C2A
:101CD000B11C5D2CA9ECAA16B104C8F557C08C2D17
:101CE000992DA82DB62DBC01CD0120E030E048ECA7
:101CF00052E40E94D30818160CF048C08C2D992D80
:101D0000A82DB62DBC01CD0120E030E048E453E41D
:101D10000E94350987FF3AC0D514C1F5DD2051F482
:101D20001501AA24BB2401301105D1F002301105A0
:101D3000D9F41EC0B1E01501DB16E9F4AA24BB24D6
:101D400001301105D9F002301105F9F41AC0AA24A6
:101D5000BB2482E090E09D878C8700E010E016C0F5
:101D6000A1E0B0E0BD87AC875D2CDD24D3940EC02C
:101D70001D861C86F9CFAA24BB2408C01D861C869C
:101D800004C081E090E09D878C87DD2483E090E0B3
:101D90006C857D850E94EE0300932301109224013F
:101DA000A09225011092260110922701109228017D
:101DB0001092290110922A010115110509F4F1CDA3
:101DC00083E06CE171E040E00E944B01EACD629F4C
:101DD000D001739FF001829FE00DF11D649FE00D23
:101DE000F11D929FF00D839FF00D749FF00D659F84
:101DF000F00D9927729FB00DE11DF91F639FB00D83
:101E0000E11DF91FBD01CF011124089597FB092E93
:101E100005260ED057FD04D014D00AD0001C38F48B
:101E200050954095309521953F4F4F4F5F4F089506
:101E3000F6F790958095709561957F4F8F4F9F4FE6
:101E40000895A1E21A2EAA1BBB1BFD010DC0AA1FFB
:101E5000BB1FEE1FFF1FA217B307E407F50720F013
:101E6000A21BB30BE40BF50B661F771F881F991F8E
:101E70001A9469F760957095809590959B01AC01D7
:101E8000BD01CF0108952F923F924F925F926F92C2
:101E90007F928F929F92AF92BF92CF92DF92EF92FA
:101EA000FF920F931F93CF93DF93CDB7DEB7CA1B7B
:101EB000DB0B0FB6F894DEBF0FBECDBF09942A88A6
:101EC000398848885F846E847D848C849B84AA844E
:101ED000B984C884DF80EE80FD800C811B81AA81DB
:101EE000B981CE0FD11D0FB6F894DEBF0FBECDBFA6
:101EF000ED0108950F931F93CF93DF93CDB7DEB716
:101F00002E970FB6F894DEBF0FBECDBF0D891E8988
:101F100086E08C831A8309838FEF9FE79E838D83EE
:101F2000AE01475E5F4FCE0101966F89788D0E94AA
:101F3000A90FEF81F885E00FF11F10822E960FB6E2
:101F4000F894DEBF0FBECDBFDF91CF911F910F91EF
:101F500008952F923F924F925F926F927F928F924D
:101F60009F92AF92BF92CF92DF92EF92FF920F9328
:101F70001F93CF93DF93CDB7DEB72D970FB6F894AD
:101F8000DEBF0FBECDBF3C017D876C875A01FC01CF
:101F900017821682838181FFC8C12E010894411CDB
:101FA000511CF3019381EC85FD8593FD859193FF91
:101FB0008191FD87EC87882309F4B3C1853241F410
:101FC00093FD859193FF8191FD87EC87853229F4FC
:101FD00090E0B3010E94C611E4CFFF24EE2410E08C
:101FE0001032B0F48B3269F08C3228F4803251F028
:101FF000833271F40BC08D3239F0803349F41160B3
:102000002CC01260146029C0186027C0106125C060
:1020100017FD2EC0282F20532A3098F416FF08C031
:102020008F2D880FF82EFF0CFF0CF80EF20E15C046
:102030008E2D880FE82EEE0CEE0CE80EE20E1062EC
:102040000CC08E3221F416FD6CC1106406C08C36B3
:1020500011F4106802C0883659F4EC85FD8593FDB3
:10206000859193FF8191FD87EC87882309F0B8CF94
:10207000982F9554933018F09052933038F424E010
:1020800030E0A20EB31E3FE339830FC0833631F038
:10209000833781F0833509F05AC022C0F501808171
:1020A000898322E030E0A20EB31E21E0C22ED12CA3
:1020B000420114C092E0292E312C2A0C3B1CF50160
:1020C0008080918016FF03C06F2D70E002C06FEF1B
:1020D0007FEFC4010E94BB116C0151011F7715C035
:1020E00082E0282E312C2A0C3B1CF5018080918047
:1020F00016FF03C06F2D70E002C06FEF7FEFC401C9
:102100000E94B0116C011068510113FD1CC006C083
:1021100080E290E0B3010E94C611EA948E2D90E017
:10212000C816D906A8F30FC0F40117FD859117FF53
:1021300081914F0190E0B3010E94C611E110EA9431
:102140000894C108D108C114D10471F7E7C08436DE
:1021500011F0893651F5F50117FF07C08081918193
:10216000A281B38124E030E008C080819181AA2758
:1021700097FDA095BA2F22E030E0A20EB31E012FEA
:102180000F76B7FF08C0B095A095909581959F4FA9
:10219000AF4FBF4F0068BC01CD01A2012AE030E083
:1021A0000E94F211D82ED4183FC0853721F41F7E2B
:1021B0002AE030E020C0197F8F36A9F0803720F464
:1021C000883509F0AEC00BC0803721F0883709F0A0
:1021D000A8C001C0106114FF09C0146007C014FF3B
:1021E00008C0166006C028E030E005C020E130E0FD
:1021F00002C020E132E0F50117FF07C06081718164
:102200008281938144E050E006C06081718180E06A
:1022100090E042E050E0A40EB51EA2010E94F2112F
:10222000D82ED418012F0F7706FF09C00E7FDF14B8
:1022300030F404FF06C002FD04C00F7E02C01D2D55
:1022400001C01F2D802F90E004FF0CC0FE01ED0D9A
:10225000F11D2081203311F4097E09C002FF06C060
:102260001E5F05C086789070009709F01F5F802E72
:10227000992403FD12C000FF0DC0FD2C1E1550F463
:10228000FE0CF11A1E2D06C080E290E0B3010E9400
:10229000C6111F5F1E15C0F304C01E1510F4E11A0D
:1022A00001C0EE2484FE0FC080E390E0B3010E94E1
:1022B000C61182FE1FC081FE03C088E590E010C0F9
:1022C00088E790E00DC0C40186789070009791F087
:1022D00081FC02C080E201C08BE207FD8DE290E04C
:1022E000B3010E94C61106C080E390E0B3010E94D2
:1022F000C611FA94DF14C0F3DA94F201ED0DF11D6A
:10230000808190E0B3010E94C611DD20A9F706C0CC
:1023100080E290E0B3010E94C611EA94EE20C1F77A
:1023200040CEF3018681978102C08FEF9FEF2D96FB
:102330000FB6F894DEBF0FBECDBFDF91CF911F91D6
:102340000F91FF90EF90DF90CF90BF90AF909F9054
:102350008F907F906F905F904F903F902F90089557
:10236000FC010590615070400110D8F78095909560
:102370008E0F9F1F0895FC01615070400190011065
:10238000D8F7809590958E0F9F1F08950F931F93F8
:10239000CF93DF938C01EB018B8181FF1BC082FF08
:1023A0000DC02E813F818C819D812817390764F4EF
:1023B000E881F9810193F983E88306C0E885F9850E
:1023C000802F0995009731F48E819F8101969F831C
:1023D0008E8302C00FEF1FEFC801DF91CF911F91D5
:1023E0000F910895FA01AA27283051F1203181F187
:1023F000E8946F936E7F6E5F7F4F8F4F9F4FAF4F0D
:10240000B1E03ED0B4E03CD0670F781F891F9A1F1F
:10241000A11D680F791F8A1F911DA11D6A0F711DD3
:10242000811D911DA11D20D009F468943F912AE0DF
:10243000269F11243019305D3193DEF6CF010895C7
:10244000462F4770405D4193B3E00FD0C9F7F6CFF8
:10245000462F4F70405D4A3318F0495D31FD4052C0
:10246000419302D0A9F7EACFB4E0A6959795879556
:1024700077956795BA95C9F7009761057105089535
:102480009B01AC010A2E06945795479537952795E1
:10249000BA95C9F7620F731F841F951FA01D089579
:0424A000F894FFCFDE
:1024A400555000444E005741495400535055500074
:1024B4005350444E0052004C0025640003000000B9
:1024C40003010800000000000000000141434352E2
:1024D40000534C4F570006012C013101000000004D
:1024E40000000000000000000000000000000000E8
:1024F40000000000000000000000000000000000D8
:1025040000000000000000000000000000000000C7
:102514000000000000000000000000000000535014
:102524004545445F434F4E54524F4C000000414ACE
:102534004F552D554E4956455253495459000000A4
:10254400000000000000000102020303030304046E
:10255400040404040404050505050505050505052D
:10256400050505050505060606060606060606060D
:1025740006060606060606060606060606060606F7
:1025840006060606060607070707070707070707DD
:1025940007070707070707070707070707070707C7
:1025A40007070707070707070707070707070707B7
:1025B40007070707070707070707070707070707A7
:1025C400070707070707080808080808080808088D
:1025D4000808080808080808080808080808080877
:1025E4000808080808080808080808080808080867
:1025F4000808080808080808080808080808080857
:102604000808080808080808080808080808080846
:102614000808080808080808080808080808080836
:102624000808080808080808080808080808080826
:102634000808080808080808080808080808080816
:0626440008080808080860
:00000001FF
