:100000000C944A000C9469000C9469000C946900EB
:100010000C9469000C94F1020C9469000C94690032
:100020000C9469000C9469000C9469000C946900AC
:100030000C9469000C9469000C9469000C9469009C
:100040000C94DA020C9469000C9469000C94690019
:100050000C9469000C9469000C9469000C9469007C
:100060000C9469000C9486020C9469000C9469004D
:100070000C9469000C9469000C9469000C9469005C
:100080000C9469000C9469000C9469000C9469004C
:100090000C94690011241FBECFEFD0E1DEBFCDBFAD
:1000A00012E0A0E0B1E0EAEDF8E200E00BBF02C030
:1000B00007900D92A837B107D9F713E0A8E7B2E08F
:1000C00001C01D92A431B107E1F70E947F0F0C948B
:1000D0006B140C940000CF938091A602882321F426
:1000E00081E08093A60227C1C091A702C13021F010
:1000F000C23009F01FC166C060910403709105030E
:10010000809106039091070320E030E040E85FE330
:100110000E94860B8823C1F422E02093A702C0939B
:10012000AA02C093AB0280E090E0A0E8BFE3809316
:10013000B0029093B102A093B202B093B302C09305
:10014000A8022093A90218C160910C0370910D03BD
:1001500080910E0390910F0320E030E048EC52E4D0
:100160000E94DA0920E030EC4FE754E40E94DB0AF9
:100170009B01462F532F682F792F4093B402509341
:10018000B5026093B6027093B702E0EBF2E04091E3
:10019000B0025091B1026091B2027091B302408BF3
:1001A000518B628B738B4087518762877387582F7F
:1001B000492F822F932FA52FB42F84879587A68749
:1001C000B787DAC06091C8027091C9028091CA02F3
:1001D0009091CB0220E030E048EC52E40E94B70B53
:1001E00018164CF41092A9021092A8021092AB02B9
:1001F0001092AA029FC08091AB02813021F0823020
:1002000009F04CC019C060910803709109038091F6
:100210000A0390910B0320E030E040E85FE30E9486
:10022000860BE0EBF2E0882349F5C093AB0280E057
:1002300090E0A0E0B0E419C0609104037091050360
:10024000809106039091070320E030E040E85FE3EF
:100250000E94860BE0EBF2E0882381F481E080933A
:10026000AB0280E090E0A0E8BFE38093B0029093FF
:10027000B102A093B202B093B30210C08091B00259
:100280009091B102A091B202B091B302808B918B98
:10029000A28BB38B80879187A287B3878091A902B5
:1002A000813021F0823009F041C021C060911003FB
:1002B00070911103809112039091130320E030E0BC
:1002C00048EC52E40E94B70B181684F16091C80202
:1002D0007091C9028091CA029091CB0220E030E077
:1002E00040E85FE30E946E09DC01CB0116C060911B
:1002F000100370911103809112039091130320E079
:1003000030E048EC52E40E94190C1816ACF181E080
:100310008093A90280E090E0DC018093C802909372
:10032000C902A093CA02B093CB0226C082E0809398
:10033000A90222C081E08093A70280E090E0DC0166
:100340008093B0029093B102A093B202B093B30233
:100350008093C8029093C902A093CA02B093CB02C3
:1003600080E090E0AFE7B3E48093C4029093C502CD
:10037000A093C602B093C7028091B0029091B102DF
:10038000A091B202B091B3028093D1029093D202B5
:10039000A093D302B093D4028091B4029091B5029D
:1003A000A091B602B091B7028093D5029093D60285
:1003B000A093D702B093D8028091B8029091B9026D
:1003C000A091BA02B091BB028093D9029093DA0255
:1003D000A093DB02B093DC028091BC029091BD023D
:1003E000A091BE02B091BF028093DD029093DE0225
:1003F000A093DF02B093E0028091C0029091C1020D
:10040000A091C202B091C3028093E1029093E202F4
:10041000A093E302B093E4028091C4029091C502DC
:10042000A091C602B091C7028093E5029093E602C4
:10043000A093E702B093E8028091C8029091C902AC
:10044000A091CA02B091CB028093E9029093EA0294
:10045000A093EB02B093EC02CF910895E0916D016F
:10046000F0916E01118210828CE1E0EBF2E0DF018D
:10047000982F1D929A95E9F796E0E6EAF2E0DF01FF
:100480001D929A95E9F790E1E4E0F3E0DF011D9217
:100490009A95E9F7E1EDF2E0DF011D928A95E9F71F
:1004A0000895089580E480937C0080EF80BB8FE006
:1004B00080937E0088EC80937A0008951092C800A3
:1004C00088E98093C90086E08093CA001092CD002D
:1004D00087E68093CC0008958091C80087FFFCCF09
:1004E0008091CE0008959091C80095FFFCCF809335
:1004F000CE000895CF93DF93EC0102C00E947302F7
:1005000089918823D9F7DF91CF9108951F920F9297
:100510000FB60F9211248F939F9380917800909142
:1005200079009093A5028093A40288EC80937A00CE
:100530009F918F910F900FBE0F901F901895209153
:10054000A4023091A5023093AD022093AC0242E3A5
:1005500050E0249FC001259F900D349F900D1124E1
:100560006FEF73E00E944A117093CF026093CE0246
:1005700008958FEF87B918B883BB10BA1AB81DB8A1
:1005800084B985B90895EC9AEAE6F0E08081836049
:10059000808380E18CBB089584B5886084BD84B578
:1005A000826084BD16BC83E187BD82E080936E00CB
:1005B00015BA08951F920F920FB60F9211248F93C0
:1005C0009F9380919202909193020196909393024F
:1005D000809392029F918F910F900FBE0F901F906A
:1005E00018951F920F920FB60F9211242F933F93DD
:1005F0008F939F93209192023091930280916A0091
:1006000090E083709070009749F080916A0010929A
:100610006A00109293021092920209C080916A00BF
:10062000836080936A0030938F0220938E029F91A3
:100630008F913F912F910F900FBE0F901F901895A3
:100640009CB12CB181E021FD80E090FD03C08823A6
:1006500031F408C0813049F089E091E0089586E0E6
:1006600091E0089580E091E0089583E091E008959D
:1006700080919402882349F0E0916D01F0916E0120
:100680008CE091E091838083089581E080939402CF
:100690006091A4027091A50280E090E00E94120D8A
:1006A000DC01CB0180930C0390930D03A0930E0308
:1006B000B0930F03609905C080E090E0A0E8BFE32D
:1006C00003C080E090E0DC01809304039093050375
:1006D000A0930603B0930703619905C080E090E002
:1006E000A0E8BFE303C080E090E0DC018093080352
:1006F00090930903A0930A03B0930B038091EF0238
:100700009091F002A091F102B091F2028093100357
:1007100090931103A0931203B09313030E946B00F4
:100720006091D1027091D2028091D3029091D40253
:100730000E94C10CDC01CB019093AF028093AE020A
:100740006091D5027091D6028091D7029091D80223
:100750000E94C10CDC01CB019093CF028093CE02AA
:100760006091D9027091DA028091DB029091DC02F3
:100770000E94C10C609356016091DD027091DE020F
:100780008091DF029091E0020E94C10C60935A01B7
:100790006091E1027091E2028091E3029091E402A3
:1007A0000E94C10C609365016091E5027091E602C0
:1007B0008091E7029091E8020E94ED0765B960918F
:1007C000E9027091EA028091EB029091EC020E94A2
:1007D000C10CDC01CB019093F4028093F3021092E0
:1007E00094020895A29A84E690E00E94C907A29814
:1007F000089588E290E00E94D80788E388B90E94B3
:10080000F20388E290E00E94C9078CE088B988E290
:1008100090E00E94C9070E94F20381E088B982E05B
:1008200090E00E94D8070E94F20386E088B90E94F7
:10083000F2030895A098A19888B90E94F203089540
:10084000A09AA19888B90E94F2030895A098A1984F
:10085000662311F4805803C0613011F4805488B9C4
:100860000E94F20308950F931F93CF93DF9300D05C
:10087000CDB7DEB749835A830E9426044981042FED
:100880005A81152F02C00E942004F80181918F0126
:100890008823C9F70F900F90DF91CF911F910F918F
:1008A0000895CF93DF930F92CDB7DEB749830E94AF
:1008B00026044981842F0E9420040F90DF91CF915C
:1008C00008959091D80091609093D800833089F07A
:1008D000843028F4813051F08230D1F411C0853059
:1008E00061F0853040F0863099F409C01092E20042
:1008F00009C086E005C088E003C08EE001C082E147
:100900008093E2008CE08093E30087E38093E4002F
:1009100080E0982F9295907F9093ED001092EF00D9
:100920001092EE001092F3001092F2001092F1007B
:100930001092F0001092F7001092F6001092F5005D
:100940001092F4001092FA001092FA001092FA003D
:100950001092FA001092FA001092FA001092FA0027
:100960001092FA008F5F8F30A1F61092DB00109288
:10097000DF001092DE001092E1001092E000809102
:10098000D80082608093D8008091D90082FFFCCF8C
:1009900008959091D80091609093D8008330C1F071
:1009A000843028F4813051F0823039F50EC0853022
:1009B000C9F0853078F0863001F516C01092E2005B
:1009C00084E08093E30083E116C01092E2000FC040
:1009D00082E00BC082E08093E2008EE08093E3002F
:1009E0008BE409C086E001C088E08093E2008CE0DF
:1009F0008093E30087E38093E40080E0982F929552
:100A0000907F9093ED001092EF001092EE00109204
:100A1000F3001092F2001092F1001092F000109288
:100A2000F7001092F6001092F5001092F400109268
:100A3000FA001092FA001092FA001092FA00109246
:100A4000FA001092FA001092FA001092FA008F5FEA
:100A50008F30A1F61092DB001092DF001092DE00C2
:100A60001092E1001092E00080E28093D800809123
:100A7000D80082608093D8008091D90082FFFCCF9B
:100A800008950F931F93FB0100811181228133810F
:100A90008295807F8093ED001092EE001092EF001F
:100AA00085818823A1F4D901C80153E0B695A795A3
:100AB000979587955A95D1F78093F3000295000F8B
:100AC000007E0093F2008091EF008F7E29C0D90153
:100AD000C80155E1B695A795979587955A95D1F791
:100AE0008093F300D901C8016DE0B695A79597955D
:100AF00087956A95D1F78093F200D901C80175E016
:100B0000B695A795979587957A95D1F78093F1003B
:100B1000000F000F000F0093F0008091EF00806144
:100B20008093EF008091EF009681892B8093EF00F6
:100B30008091F0004470482B4093F0008091F000C9
:100B40008D7F8093F0008091F0008E7F8093F00085
:100B500080E009C0DF01A80FB11D17969C9117977F
:100B60009093FA008F5F96818917A0F38091EF0030
:100B700080648093EF008091EE0086FFFCCF80912F
:100B8000EE008F7B8093EE0081E01F910F9108951E
:100B9000CF92DF92EF92FF920F931F93FB0182950A
:100BA000807F8093ED008091EE0085FFFCCF8091E7
:100BB000EF0084FD1BC015828091F30090E0A0E05F
:100BC000B0E0BA2FA92F982F88274091F20050E06B
:100BD00060E070E0842B952BA62BB72B35E0B69503
:100BE000A795979587953A95D1F735C081E085838C
:100BF0008091F30090E0A0E0B0E0B82FAA279927F9
:100C00008827C090F2004091F1000091F000DD24AF
:100C1000EE24FF247601DD24CC248C299D29AE29E5
:100C2000BF2910E020E030E0802B912BA22BB32BCA
:100C300050E060E070E0762F652F542F4427842B1E
:100C4000952BA62BB72B689412F8B695A795979578
:100C500087951694D1F780839183A283B383809183
:100C6000F000847084838091EF008F70868340E071
:100C700009C08091FA002E0F3F1FD90117968C935F
:100C800017974F5F242F30E08091EF0090E08F7036
:100C90009070281739076CF31092EE008091EF00E6
:100CA00080688093EF008091EE008F7D8093EE004E
:100CB00081E01F910F91FF90EF90DF90CF9008950A
:100CC000AF92CF92DF92EF92FF920F938295807F47
:100CD0008093ED001092EE00DB01CA01222329F57A
:100CE000F3E0B695A79597958795FA95D1F78093F8
:100CF000F3004295440F407E4093F200D701C601B5
:100D000023E0B695A795979587952A95D1F7809377
:100D1000F700C294CC0C30EEC322C092F6001092C1
:100D2000F4008091EF008F7E4DC0E5E1B695A79568
:100D300097958795EA95D1F78093F300DB01CA0177
:100D4000FDE0B695A79597958795FA95D1F780938D
:100D5000F200DB01CA0125E0B695A7959795879526
:100D60002A95D1F78093F100440F440F440F40932C
:100D7000F000D701C60135E1B695A79597958795FF
:100D80003A95D1F78093F700D701C6014DE0B695AB
:100D9000A795979587954A95D1F78093F600D70147
:100DA000C601E5E0B695A79597958795EA95D1F7A1
:100DB0008093F500CC0CCC0CCC0CC092F40080914C
:100DC000EF0080618093EF008091EF000F70082B9F
:100DD0000093EF009091F4008A2D8770892B809307
:100DE000F4008091F4008E7F8093F4008091EF00F6
:100DF00080688093EF000F91FF90EF90DF90CF908D
:100E0000AF900895AF92CF92DF92EF92FF920F933F
:100E1000382F8295807F8093ED001092EE008091B4
:100E2000EF0021FF02C0806201C08F7D8093EF0040
:100E3000DB01CA0120FD25C023E0B695A795979553
:100E400087952A95D1F78093F3004295440F407E11
:100E50004093F200D701C60143E0B695A795979558
:100E600087954A95D1F78093F700C294CC0C50EE49
:100E7000C522C092F6001092F4008091EF008F7EA0
:100E80004DC0E5E1B695A79597958795EA95D1F779
:100E90008093F300DB01CA01FDE0B695A795979515
:100EA0008795FA95D1F78093F200DB01CA0125E01E
:100EB000B695A795979587952A95D1F78093F100D8
:100EC000440F440F440F4093F000D701C60145E1A1
:100ED000B695A795979587954A95D1F78093F70092
:100EE000D701C601EDE0B695A79597958795EA9548
:100EF000D1F78093F600D701C601F5E0B695A79526
:100F000097958795FA95D1F78093F500CC0CCC0C8A
:100F1000CC0CC092F4008091EF0080618093EF00D0
:100F20008091EF000F70082B0093EF009091F40078
:100F30008A2D8770892B8093F4008091DB00806A72
:100F40008093DB00383050F481E090E002C0880FDD
:100F5000991F3A95E2F78093DE000DC0232F30E011
:100F60002850304081E090E002C0880F991F2A95F8
:100F7000E2F78093DF008091EF0080688093EF00BC
:100F800078940F91FF90EF90DF90CF90AF900895FD
:100F9000089520E030E008C00F920F900F920F905C
:100FA0000F920F902F5F3F4F28173907A9F7089529
:100FB0000F931F93CF93DF938C01C0E0D0E005C067
:100FC00088EE93E00E94C9072196C017D107C1F7A8
:100FD000DF91CF911F910F910895CF92DF92EF9201
:100FE000FF920F931F936B017C0120E030E040E003
:100FF0005FE40E94E80B87FD11C0C701B60120E045
:1010000030E040E05FE40E94A2090E94C10C8B0125
:101010009C01005010402040304806C0C701B60176
:101020000E94C10C8B019C01B801C9011F910F9155
:10103000FF90EF90DF90CF900895A0E0B0E0E3E262
:10104000F8E00C946011EC014B01FA0188818230C8
:1010500008F43EC1DB019C91923008F436C1843023
:1010600059F4943009F034C1998111968C911197FB
:10107000981709F027C12CC1943009F426C1923089
:10108000A9F4823009F024C1CE0128E0DC010D90E2
:10109000CD01DA010D92AD012150C1F7D4011196B5
:1010A0008C91119799818923818311C1823009F430
:1010B0000CC1AA80BB80DB0112964D915C91139705
:1010C000CC80DD80EE80FF8014960D911D912D91D6
:1010D0003C911797C501841B950BDC0197FF04C059
:1010E000AA27BB27A81BB90BA032B1050CF067C01B
:1010F0001816190684F5280139010A2E04C07694C1
:101100006794579447940A94D2F741E050E060E026
:1011100070E004C0440F551F661F771FAA95D2F7D1
:10112000415050406040704040235123622373235C
:1011300081E090E0A0E0B0E0411551056105710546
:1011400019F480E090E0DC018C019D01042915294F
:10115000262937293FC00097E9F1AA0EBB1E2601B8
:1011600037010A2E04C076946794579447940A94E2
:10117000D2F741E050E060E070E004C0440F551F3A
:10118000661F771FAA95D2F74150504060407040CB
:101190004C215D216E217F2181E090E0A0E0B0E054
:1011A000411551056105710519F480E090E0DC01FD
:1011B0006C017D01C428D528E628F7280BC04A1504
:1011C0005B0524F400E010E0980104C05A01CC242F
:1011D000DD2476018981D40111969C91119789179C
:1011E00009F445C0882329F00C191D092E093F096F
:1011F00008C0D701C601801B910BA20BB30B8C0159
:101200009D0137FD04C01182B382A2820BC081E030
:101210008183B382A28230952095109501951F4F4E
:101220002F4F3F4F04831583268337830DC0880FCC
:10123000991FAA1FBB1F84839583A683B7838281CE
:10124000938101979383828384819581A681B7815D
:10125000AC01BD0141505040604070404F3F2FEF06
:1012600052072FEF62072FE3720708F30BC0818349
:10127000B382A2820C0D1D1D2E1D3F1D04831583FC
:101280002683378383E0808344815581668177811B
:1012900077FF1DC0DB01CA0181709070A070B07033
:1012A0007695679557954795842B952BA62BB72B4D
:1012B00084839583A683B7838281938101969383E8
:1012C000828305C0CFE6D1E003C0E40101C0EF0195
:1012D000CE01CDB7DEB7E0E10C947C11A0E2B0E026
:1012E000E4E7F9E00C946E11DC01CB018D839E8361
:1012F000AF83B88729833A834B835C83CE010596FD
:10130000BE01675E7F4F0E94B90ECE010196BE01FD
:101310006F5E7F4F0E94B90ECE014996BE016F5E8F
:101320007F4FAE01475F5F4F0E941D080E94E20D94
:10133000462F572F682F792FCB01BA01A096E2E0F4
:101340000C948A11A0E2B0E0E8EAF9E00C946E1186
:10135000DC01CB018D839E83AF83B88729833A83D9
:101360004B835C83CE010596BE01675E7F4F0E9472
:10137000B90ECE010196BE016F5E7F4F0E94B90E7D
:101380008A8991E089278A8BCE014996BE016F5EDA
:101390007F4FAE01475F5F4F0E941D080E94E20D24
:1013A000462F572F682F792FCB01BA01A096E2E084
:1013B0000C948A11A0E2B0E0E0EEF9E00C94601128
:1013C000DC01CB018D839E83AF83B88729833A8369
:1013D0004B835C83CE010596BE01675E7F4F0E9402
:1013E000B90ECE010196BE016F5E7F4F0E94B90E0D
:1013F000998D923078F089898230C0F0943019F458
:10140000823041F4CAC0843019F4923079F4C5C0F6
:10141000923051F481E02A8D9A89291709F480E0ED
:101420008A8FCE014996BBC0823051F481E02A8D6B
:101430009A89291709F480E08A8BCE014196AFC0C2
:101440004D8C5E8C6F8C78A00D891E892F89388D0C
:10145000E0E2F0E040E050E0BA0188249924540131
:10146000CC24DD247601C201817090700097D1F008
:10147000C00ED11EE21EF31EDB01CA01880D991DAC
:10148000AA1DBB1D41E050E060E070E0C016D1062F
:10149000E206F30618F040E050E0BA01480F591F89
:1014A0006A1F7B1F880C991CAA1CBB1C37FF08C035
:1014B00081E090E0A0E0B0E0882A992AAA2ABB2A1D
:1014C000000F111F221F331F76946794579447947F
:1014D000319749F68B8D9C8D2B893C89820F931F08
:1014E00002969C878B8781E02A8D9A89291709F4B7
:1014F00080E08A872B853C8517C0CA018170907077
:10150000009761F0F694E794D794C79480E090E058
:10151000A0E0B0E8C82AD92AEA2AFB2A769567957E
:10152000579547952F5F3F4F77FDE7CFC9010BC018
:10153000440F551F661F771FF7FC4160CC0CDD1C64
:10154000EE1CFF1C01974030A0E05A07A0E06A079C
:10155000A0E47A0768F38B879C87DB01CA018F7749
:101560009070A070B07080349105A105B10561F450
:1015700047FD0AC0C114D104E104F10429F0405C24
:101580005F4F6F4F7F4F40784D875E876F87788BB7
:1015900083E08987CE01099602C08FE691E00E9420
:1015A000E20D462F572F682F792FCB01BA01A09655
:1015B000E0E10C947C11A8E1B0E0E1EEFAE00C94DB
:1015C0006811DC01CB018D839E83AF83B8872983AB
:1015D0003A834B835C83CE010596BE016F5E7F4FDD
:1015E0000E94B90ECE010196BE01675F7F4F0E9437
:1015F000B90E9989923008F475C08985823008F453
:1016000074C02A893A8523272A8B943011F09230AE
:1016100021F4981709F066C06BC0843039F41D8A34
:101620001E8A1F8A188E1C8A1B8A5CC0823019F49D
:1016300084E0898B57C02B893C898B859C85281B2E
:10164000390B3C8B2B8B8D899E89AF89B88DCD84CE
:10165000DE84EF84F8888C159D05AE05BF0540F447
:10166000880F991FAA1FBB1F215030403C8B2B8B2A
:10167000EFE1F0E000E010E020E030E440E050E096
:10168000BA018C159D05AE05BF0540F0402B512BCE
:10169000622B732B8C199D09AE09BF0936952795CE
:1016A00017950795880F991FAA1FBB1F319749F7F8
:1016B0008A019B010F771070207030700034110583
:1016C0002105310559F447FD09C00097A105B10571
:1016D00029F0405C5F4F6F4F7F4F40784D8B5E8BA2
:1016E0006F8B788FCE01419605C0CE01099602C05E
:1016F0008FE691E00E94E20D462F572F682F792F39
:10170000CB01BA016896E8E00C948411A8E1B0E03E
:10171000ECE8FBE00C946E11DC01CB018D839E8321
:10172000AF83B88729833A834B835C83CE010596C8
:10173000BE016F5E7F4F0E94B90ECE010196BE01C1
:10174000675F7F4F0E94B90E8989823058F0898582
:10175000823040F0CE014196BE01675F7F4F0E940C
:10176000220F01C081E06896E2E00C948A11A8E1A2
:10177000B0E0EDEBFBE00C946E11DC01CB018D834E
:101780009E83AF83B88729833A834B835C83CE01E2
:101790000596BE016F5E7F4F0E94B90ECE01019685
:1017A000BE01675F7F4F0E94B90E8989823058F071
:1017B0008985823040F0CE014196BE01675F7F4F40
:1017C0000E94220F01C08FEF6896E2E00C948A110C
:1017D000A8E1B0E0EEEEFBE00C946E11DC01CB0171
:1017E0008D839E83AF83B88729833A834B835C8341
:1017F000CE010596BE016F5E7F4F0E94B90ECE01ED
:101800000196BE01675F7F4F0E94B90E89898230C1
:1018100058F08985823040F0CE014196BE01675F65
:101820007F4F0E94220F01C08FEF6896E2E00C9478
:101830008A11A8E1B0E0EFE1FCE00C946E11DC014C
:10184000CB018D839E83AF83B88729833A834B83F3
:101850005C83CE010596BE016F5E7F4F0E94B90E7C
:10186000CE010196BE01675F7F4F0E94B90E898944
:10187000823058F08985823040F0CE014196BE0119
:10188000675F7F4F0E94220F01C081E06896E2E00F
:101890000C948A11CF92DF92EF92FF92CF93DF9355
:1018A000CDB7DEB728970FB6F894DEBF0FBECDBF19
:1018B0006B017C0183E08983D701C6018827B7FDCE
:1018C00083959927AA27BB27282F8A83C114D1047F
:1018D000E104F10419F482E0898335C08EE190E0DF
:1018E0009C838B83222389F080E0C81680E0D80691
:1018F00080E0E80680E8F80659F1F094E094D0948E
:10190000C094C11CD11CE11CF11CCD82DE82EF828F
:10191000F886C701B6010E948F0D019718161906A7
:1019200094F4082E04C0CC0CDD1CEE1CFF1C0A94A1
:10193000D2F7CD82DE82EF82F8862EE130E0281BDE
:10194000390B3C832B83CE0101960E94E20D04C02B
:1019500060E070E080E09FEC382F292F862F972FD2
:10196000A32FB22FBC01CD0128960FB6F894DEBF8D
:101970000FBECDBFDF91CF91FF90EF90DF90CF9062
:101980000895ACE0B0E0E7ECFCE00C946C11DC01F5
:10199000CB0189839A83AB83BC83CE010196BE01C0
:1019A0006B5F7F4F0E94B90E8D81823069F182306A
:1019B00058F1843039F02F81388537FD25C02F311B
:1019C000310544F08E81882319F100E010E020E019
:1019D00030E822C08EE190E0821B930B09851A85C6
:1019E0002B853C8504C036952795179507958A95D4
:1019F000D2F78E81882381F030952095109501953E
:101A00001F4F2F4F3F4F08C000E010E0980104C067
:101A10000FEF1FEF2FEF3FE7B801C9012C96E4E06D
:101A20000C948811A8E0B0E0E8E1FDE00C946811A6
:101A30006B017C011A82611571058105910519F40C
:101A400082E089835EC083E089830EE110E01C831D
:101A50000B83CD82DE82EF82F886C701B6010E9439
:101A60008F0D9C012150304037FF38C0EE27FF27F3
:101A7000E21BF30B81E090E0A0E0B0E00E2E04C08A
:101A8000880F991FAA1FBB1F0A94D2F70197A109BB
:101A9000B1098C219D21AE21BF2141E050E060E0E1
:101AA00070E00097A105B10519F440E050E0BA01DB
:101AB00004C0F694E794D794C794EA95D2F7C42A61
:101AC000D52AE62AF72ACD82DE82EF82F8868EE1D9
:101AD00090E0821B930B9C838B8313C021153105EF
:101AE00081F0022E04C0CC0CDD1CEE1CFF1C0A94FD
:101AF000D2F7CD82DE82EF82F886021B130B1C83A5
:101B00000B83CE0101960E94E20D462F572F682FBE
:101B1000792FCB01BA012896E8E00C948411CF927A
:101B2000DF92EF92FF920F931F938B019C01003085
:101B300080E0180781E0280780E0380750F40F3F65
:101B400011052105310509F088F480E090E0DC0101
:101B500016C00030E0E01E07E0E02E07E1E03E079F
:101B600050F480E190E0A0E0B0E009C088E090E0AF
:101B7000A0E0B0E004C088E190E0A0E0B0E040E286
:101B800050E060E070E0481B590B6A0B7B0B68016A
:101B9000790104C0F694E794D794C7948A95D2F754
:101BA000D701C60189589E4FFC018081481B51090D
:101BB00061097109CA011F910F91FF90EF90DF90A9
:101BC000CF900895CF92DF92EF92FF920F931F93E1
:101BD000DC0114964D915D916D917C911797119652
:101BE000EC9111978C91823020F460618FEF90E03E
:101BF000A5C0843009F49DC0823009F494C0411519
:101C000051056105710509F491C012968D919C9161
:101C100013972FEF823892070CF059C022E83FEF5C
:101C2000281B390B2A31310564F56A017B01022E2C
:101C300004C0F694E794D794C7940A94D2F781E04D
:101C400090E0A0E0B0E004C0880F991FAA1FBB1F5E
:101C50002A95D2F70197A109B10984239523A623D8
:101C6000B72341E050E060E070E00097A105B105C6
:101C700019F440E050E0BA014C295D296E297F2912
:101C800003C040E050E0BA01DB01CA018F779070D9
:101C9000A070B07080349105A105B10539F447FFFB
:101CA00009C0405C5F4F6F4F7F4F04C0415C5F4F86
:101CB0006F4F7F4F81E090E0403020E0520720E0FE
:101CC000620720E4720738F580E090E024C0803895
:101CD00091057CF58A019B010F77107020703070A0
:101CE000003411052105310539F447FF09C0405C76
:101CF0005F4F6F4F7F4F04C0415C5F4F6F4F7F4F0F
:101D000077FD03C081589F4F06C07695679557951C
:101D1000479580589F4F97E07695679557954795DB
:101D20009A95D1F70BC080E090E005C080E090E08C
:101D300005C08FEF90E040E050E0BA01982F9795F2
:101D400099279795A62FAF77E795EE27E795869584
:101D50003A2F392B282F2E2B842F952FA32FB22FDC
:101D6000BC01CD011F910F91FF90EF90DF90CF90BC
:101D70000895DC01FB014C9111965C91119712962C
:101D80008C911297682F6F7770E0982F991F992781
:101D9000991F13962C911397822F880F892B90E00F
:101DA000221F2227221F2183009739F54115510553
:101DB0006105710511F482E029C082E89FEF9383E9
:101DC000828327E0440F551F661F771F2A95D1F79E
:101DD00083E0808309C0440F551F661F771F8281EF
:101DE0009381019793838283403080E0580780E09D
:101DF000680780E4780778F320C08F3F910579F475
:101E0000411551056105710519F484E08083089539
:101E100064FF03C081E0808310C010820EC08F5722
:101E200090409383828383E0808387E0440F551F33
:101E3000661F771F8A95D1F7706444835583668344
:101E400077830895CF93FC01DB019081923008F4F1
:101E50004CC08C91823008F448C0943069F42181E0
:101E6000843039F411968C91119790E0821B91097E
:101E700044C02223D1F13FC0843021F0923041F49C
:101E80008230B1F111968C9111978823A1F12DC068
:101E9000C181823001F111968C911197C817D9F444
:101EA0008281938112962D913C91139728173907BF
:101EB00094F082179307BCF0448155816681778145
:101EC00014968D919D910D90BC91A02D841795072E
:101ED000A607B70718F4CC2341F00DC048175907DF
:101EE0006A077B0728F4CC2331F081E090E005C03D
:101EF00080E090E002C08FEF9FEFCF910895CF93E5
:101F0000DF93CDB7DEB72B970FB6F894DEBF0FBEC9
:101F1000CDBF0E94C3020E94CC020E94B9020E945F
:101F2000F90383E00E9461040E94520285E00E944E
:101F3000610485E00E94C90483E043E050E060E072
:101F400070E021E008E0CC24DD24760115E0A12E2C
:101F50000E94600684E044E050E060E070E021E030
:101F60000E946006789480E061E044E151E00E94C4
:101F7000330481E080939C021092AF021092AE0273
:101F800006E0A02EB12CAC0EBD1E8CE1882E81E0A7
:101F9000982E98EE492E93E0592E8CB1609B07C085
:101FA00081FD09C0B7E36B2EB1E07B2E04C0ABE22C
:101FB0006A2EA1E07A2E00D000D000D0EDB7FEB797
:101FC0003196ADB7BEB71296BC92AE92119793827E
:101FD00082828091CE02848315820E9495118DB7F2
:101FE0009EB706960FB6F8949EBF0FBE8DBF89E0D0
:101FF00060E0A3010E9433048DE060E0A5010E942F
:1020000033048091AE029091AF02AC01440F551F92
:10201000480F591F440F551F440F551F415E5E4F17
:1020200089E061E00E94330400D000D000D0EDB719
:10203000FEB73196ADB7BEB71296BC92AE9211976D
:10204000938282828091F3029091F402958384833B
:102050000E9495118DB79EB706960FB6F8949EBF55
:102060000FBE8DBF80E061E0A5010E94330400D067
:1020700000D000D0EDB7FEB73196ADB7BEB712961F
:10208000BC92AE921197938282828091FE028483E9
:1020900015820E9495118DB79EB706960FB6F894DB
:1020A0009EBF0FBE8DBF8FE061E0A5010E9433048B
:1020B0000E94380382E06FE471E040E00E94410535
:1020C00081E06EE571E040E00E9441050E94380326
:1020D000F89474986C9A84EF91E00E94C907749AFE
:1020E00085E090E00E94C907749884E690E00E9421
:1020F000C9076C9884E690E00E94C90778946091C3
:102100008E0270918F0280E090E00E94120D2CEA06
:1021100035EC47E257E30E94DA0920E030E040E086
:102120005FE30E94DA0920E030E44DEA53E40E94C4
:10213000DA0920E030E04AE754E40E94DA09162F79
:10214000072FF82EE92EA8019701852F942FA32F92
:10215000B22FBC01CD0120E030E04AE754E40E94F8
:10216000DB0A0E94ED07C62E862F90E0849DB00109
:10217000859D700D949D700D1124882777FD8095A5
:10218000982F0E944A0C9B01AC01F801B7018F2FD8
:102190009E2FA72FB62FBC01CD010E94A209162F9A
:1021A000072FF82EE92EA8019701852F942FA32F32
:1021B000B22F8093EF029093F002A093F102B093BC
:1021C000F202BC01CD0120E030E048EC52E40E9474
:1021D000DB0A0E94ED07D62E94E6699FB001112418
:1021E000882777FD8095982F0E944A0C9B01AC01AF
:1021F000F801B7018F2F9E2FA72FB62FBC01CD015D
:102200000E94A209162F072FF82EE92EA801970188
:10221000852F942FA32FB22FBC01CD0120E030E0F9
:1022200040E251E40E94DB0A0E94ED078C2D805DA4
:1022300089838D2D805D8A83862F805D8B83862F99
:1022400090E0BC01660F771FF3E0880F991FFA95A5
:10225000E1F7680F791F882777FD8095982F0E94F6
:102260004A0C9B01AC01F801B7018F2F9E2FA72FBD
:10227000B62FBC01CD010E94A2090E94ED07605D4E
:102280006C831D8280E060E0AE014F5F5F4F0E9473
:10229000330483CEAA1BBB1B51E107C0AA1FBB1F7F
:1022A000A617B70710F0A61BB70B881F991F5A95E2
:1022B000A9F780959095BC01CD0108952F923F928A
:1022C0004F925F926F927F928F929F92AF92BF9246
:1022D000CF92DF92EF92FF920F931F93CF93DF93F2
:1022E000CDB7DEB7CA1BDB0B0FB6F894DEBF0FBE4F
:1022F000CDBF09942A88398848885F846E847D849C
:102300008C849B84AA84B984C884DF80EE80FD809D
:102310000C811B81AA81B981CE0FD11D0FB6F89413
:10232000DEBF0FBECDBFED0108950F931F93CF9376
:10233000DF93CDB7DEB72E970FB6F894DEBF0FBE92
:10234000CDBF0D891E8986E08C831A8309838FEFA8
:102350009FE79E838D83AE01475E5F4FCE0101965E
:102360006F89788D0E94C411EF81F885E00FF11F0D
:1023700010822E960FB6F894DEBF0FBECDBFDF9150
:10238000CF911F910F9108952F923F924F925F929C
:102390006F927F928F929F92AF92BF92CF92DF9275
:1023A000EF92FF920F931F93CF93DF93CDB7DEB7DA
:1023B0002D970FB6F894DEBF0FBECDBF3C017D87D1
:1023C0006C875A01FC0117821682838181FFC8C184
:1023D0002E010894411C511CF3019381EC85FD856D
:1023E00093FD859193FF8191FD87EC87882309F404
:1023F000B3C1853241F493FD859193FF8191FD87AF
:10240000EC87853229F490E0B3010E94E113E4CF18
:10241000FF24EE2410E01032B0F48B3269F08C32DD
:1024200028F4803251F0833271F40BC08D3239F0D0
:10243000803349F411602CC01260146029C0186008
:1024400027C0106125C017FD2EC0282F20532A3029
:1024500098F416FF08C08F2D880FF82EFF0CFF0C84
:10246000F80EF20E15C08E2D880FE82EEE0CEE0C35
:10247000E80EE20E10620CC08E3221F416FD6CC123
:10248000106406C08C3611F4106802C0883659F406
:10249000EC85FD8593FD859193FF8191FD87EC8708
:1024A000882309F0B8CF982F9554933018F09052A4
:1024B000933038F424E030E0A20EB31E3FE33983BA
:1024C0000FC0833631F0833781F0833509F05AC06D
:1024D00022C0F5018081898322E030E0A20EB31E84
:1024E00021E0C22ED12C420114C092E0292E312CC1
:1024F0002A0C3B1CF5018080918016FF03C06F2DD4
:1025000070E002C06FEF7FEFC4010E94D6136C0130
:1025100051011F7715C082E0282E312C2A0C3B1C5C
:10252000F5018080918016FF03C06F2D70E002C01E
:102530006FEF7FEFC4010E94CB136C011068510153
:1025400013FD1CC006C080E290E0B3010E94E113BD
:10255000EA948E2D90E0C816D906A8F30FC0F401B6
:1025600017FD859117FF81914F0190E0B3010E9403
:10257000E113E110EA940894C108D108C114D10410
:1025800071F7E7C0843611F0893651F5F50117FF70
:1025900007C080819181A281B38124E030E008C02E
:1025A00080819181AA2797FDA095BA2F22E030E083
:1025B000A20EB31E012F0F76B7FF08C0B095A095ED
:1025C000909581959F4FAF4FBF4F0068BC01CD01E3
:1025D000A2012AE030E00E940D14D82ED4183FC08A
:1025E000853721F41F7E2AE030E020C0197F8F3626
:1025F000A9F0803720F4883509F0AEC00BC08037D1
:1026000021F0883709F0A8C001C0106114FF09C08B
:10261000146007C014FF08C0166006C028E030E050
:1026200005C020E130E002C020E132E0F50117FFF3
:1026300007C0608171818281938144E050E006C0CF
:102640006081718180E090E042E050E0A40EB51E10
:10265000A2010E940D14D82ED418012F0F7706FF67
:1026600009C00E7FDF1430F404FF06C002FD04C071
:102670000F7E02C01D2D01C01F2D802F90E004FF92
:102680000CC0FE01ED0DF11D2081203311F4097EF7
:1026900009C002FF06C01E5F05C0867890700097D3
:1026A00009F01F5F802E992403FD12C000FF0DC0AA
:1026B000FD2C1E1550F4FE0CF11A1E2D06C080E2F2
:1026C00090E0B3010E94E1131F5F1E15C0F304C028
:1026D0001E1510F4E11A01C0EE2484FE0FC080E341
:1026E00090E0B3010E94E11382FE1FC081FE03C08F
:1026F00088E590E010C088E790E00DC0C4018678BE
:102700009070009791F081FC02C080E201C08BE2E2
:1027100007FD8DE290E0B3010E94E11306C080E363
:1027200090E0B3010E94E113FA94DF14C0F3DA944D
:10273000F201ED0DF11D808190E0B3010E94E113E3
:10274000DD20A9F706C080E290E0B3010E94E1130A
:10275000EA94EE20C1F740CEF3018681978102C052
:102760008FEF9FEF2D960FB6F894DEBF0FBECDBF53
:10277000DF91CF911F910F91FF90EF90DF90CF905D
:10278000BF90AF909F908F907F906F905F904F9091
:102790003F902F900895FC0105906150704001100A
:1027A000D8F7809590958E0F9F1F0895FC0161507A
:1027B000704001900110D8F7809590958E0F9F1F63
:1027C00008950F931F93CF93DF938C01EB018B81BF
:1027D00081FF1BC082FF0DC02E813F818C819D81B6
:1027E0002817390764F4E881F9810193F983E883B4
:1027F00006C0E885F985802F0995009731F48E8110
:102800009F8101969F838E8302C00FEF1FEFC80147
:10281000DF91CF911F910F910895FA01AA272830D7
:1028200051F1203181F1E8946F936E7F6E5F7F4F9D
:102830008F4F9F4FAF4FB1E03ED0B4E03CD0670F19
:10284000781F891F9A1FA11D680F791F8A1F911D6C
:10285000A11D6A0F711D811D911DA11D20D009F4BC
:1028600068943F912AE0269F11243019305D3193FE
:10287000DEF6CF010895462F4770405D4193B3E0E7
:102880000FD0C9F7F6CF462F4F70405D4A3318F08E
:10289000495D31FD4052419302D0A9F7EACFB4E03F
:1028A000A6959795879577956795BA95C9F70097F7
:1028B0006105710508959B01AC010A2E0694579598
:1028C000479537952795BA95C9F7620F731F841FEF
:0A28D000951FA01D0895F894FFCF96
:1028DA00555000444E00424F004E4F004F766572ED
:1028EA0072756E004D6F6465203A200025640057AA
:1028FA0041495400000000000000004143435200D7
:10290A0000000000000000534C4F57000000000078
:10291A000000005741524E00000000000000000273
:10292A000000000201080000000000000000010091
:10293A0000000101080000000000000000CC0200B5
:10294A000000000000000000010202030303030468
:10295A000404040404040405050505050505050524
:10296A000505050505050506060606060606060604
:10297A0006060606060606060606060606060606ED
:10298A0006060606060606070707070707070707D4
:10299A0007070707070707070707070707070707BD
:1029AA0007070707070707070707070707070707AD
:1029BA00070707070707070707070707070707079D
:1029CA000707070707070708080808080808080884
:1029DA00080808080808080808080808080808086D
:1029EA00080808080808080808080808080808085D
:1029FA00080808080808080808080808080808084D
:102A0A00080808080808080808080808080808083C
:102A1A00080808080808080808080808080808082C
:102A2A00080808080808080808080808080808081C
:102A3A00080808080808080808080808080808080C
:082A4A0008080808080808004C
:00000001FF
